:020000040000FA
:0600000000F099EF01F091
:10000800FFFF6182E9CF19F0EACF1AF0D9CF1BF0D0
:10001800DACF1CF0F3CF1DF0F4CF1EF0CA949E92F5
:1000280000F000F000F000F000F000F000F000F048
:1000380000F000F000F000F000F000F000F000F038
:1000480000F000F000F000F000F000F000F000F028
:1000580000F000F000F000F000F000F000F000F018
:1000680000F000F000F000F000F000F000F000F008
:1000780000F000F000F000F000F000F000F000F0F8
:1000880000F000F000F000F000F000F000F000F0E8
:1000980000F000F000F000F000F000F000F000F0D8
:1000A80000F000F000F000F000F000F000F000F0C8
:1000B80000F000F000F000F000F000F000F000F0B8
:1000C80000F000F000F000F000F000F000F000F0A8
:1000D80000F000F000F000F000F000F000F000F098
:1000E80000F000F000F000F000F000F000F000F088
:1000F80000F000F000F000F000F000F000F000F078
:1001080000F000F000F000F000F000F000F000F067
:1001180000F000F000F000F000F000F000F000F057
:1001280000F000F000F000F000F000F000F000F047
:1001380000F000F000F000F000F000F000F000F037
:1001480000F000F000F000F000F000F000F000F027
:1001580000F000F000F000F000F000F000F000F017
:1001680000F000F000F000F000F000F000F000F007
:1001780000F000F000F000F000F000F000F000F0F7
:1001880000F000F000F000F000F000F000F000F0E7
:1001980000F000F000F000F000F000F000F000F0D7
:1001A80000F000F000F000F000F000F000F000F0C7
:1001B80000F000F000F000F000F000F000F000F0B7
:1001C80000F000F000F000F000F000F000F000F0A7
:1001D80000F000F000F000F000F000F000F000F097
:1001E80000F000F000F000F000F000F000F000F087
:1001F80000F000F000F000F000F000F000F000F077
:1002080000F000F000F000F000F000F000F000F066
:1002180000F000F000F000F000F000F000F000F056
:1002280000F000F000F000F0CA84010E4E26000E27
:100238004F2250225122260E4E184F1050105110A6
:10024800D8A429EF01F02CEF01F0FFFF5AEF01F0DD
:10025800FFFF5C2A000E4E6E000E4F6E000E506EB1
:10026800000E516E5A0E0A6E000E0B6E1DEC12F047
:100278005950D8B442EF01F045EF01F0FFFF56EFB7
:1002880001F0FFFF000E596E680E0E6E20EE5AF058
:1002980000EE0FF0060EDBCFEBFFE806FCE2000EE7
:1002A800ADEC0CF0FFFF010E0001EE6FFFFF010E39
:1002B8005226000E532254225522110E5218531062
:1002C80054105510D8A46BEF01F06EEF01F0FFFF4A
:1002D80089EF01F0FFFF8BA074EF01F079EF01F0D7
:1002E800FFFF186A182A7BEF01F0FFFF186AFFFF6B
:1002F8008B501818FE0B18188B6E000E526E000EDD
:10030800536E000E546E000E556EFFFF1EC0F4FFB4
:100318001DC0F3FF1CC0DAFF1BC0D9FF1AC0EAFFDB
:0E03280019C0E9FF61921100FFFF59EF13F0B9
:10060000005765646E657364617900536174757237
:10061000646179005468757273646179005475651A
:100620007364617900467269646179004D6F6E642C
:1006300061790053756E646179003030303000317B
:100640003030300030313030003131303000303037
:100650003130003130313000303131300031313122
:100660003000303030310031303031003031303115
:100670000031313031003030313100313031310032
:0B0680003031313100313131310000E8
:10068C00FFFF00019451800B9D6F945194259F6F37
:10069C0093AF53EF03F056EF03F0FFFF58EF03F067
:1006AC00FFFF9F81FFFF9F51D8B45FEF03F062EF14
:1006BC0003F0FFFF7BEF03F0FFFF9F29D8A469EF46
:1006CC0003F06CEF03F0FFFF75EF03F0FFFF000E7C
:1006DC00916F000E926F000E936F000E946FFFFFE0
:1006EC00938F000E946F84EF03F0FFFF000E916F59
:1006FC00000E926F000E936F000E946FFFFF9851D7
:10070C00800B9E6F9D519E19D8B48FEF03F092EF22
:10071C0003F0FFFF94EF03F0FFFF9D8DFFFF985157
:10072C0098259E6F97AF9DEF03F0A0EF03F0FFFFAE
:10073C00A2EF03F0FFFF9E81FFFF9E51D8B4A9EFFB
:10074C0003F0ACEF03F0FFFFC5EF03F0FFFF9E29B2
:10075C00D8A4B3EF03F0B6EF03F0FFFFBFEF03F045
:10076C00FFFF000E956F000E966F000E976F000E38
:10077C00986FFFFF978F000E986FCEEF03F0FFFF7F
:10078C00000E956F000E966F000E976F000E986F0F
:10079C00FFFF9F519E5DD8B0D6EF03F0D9EF03F069
:1007AC00FFFF04EF04F0FFFF9DADDFEF03F0E2EF7E
:1007BC0003F0FFFFE5EF03F0FFFF800E9D1BFFFF33
:1007CC009FC0A0F09EC09FF0A0C09EF091C0A0F072
:1007DC0095C091F0A0C095F092C0A0F096C092F098
:1007EC00A0C096F093C0A0F097C093F0A0C097F073
:1007FC0094C0A0F098C094F0A0C098F0FFFF000E39
:10080C00A06F9F519EC099F09A6B995F000E9A5BF6
:10081C009ABF1AEF04F09A510AE11A0E995DD8A00A
:10082C001AEF04F01DEF04F0FFFF60EF04F0FFFF80
:10083C009151921193119411D8A427EF04F02BEF3E
:10084C0004F0FFFF010E2DEF04F0FFFF000EFFFF81
:10085C00A06F000E916F000E926F000E936F000E42
:10086C00946F9EC09FF06BEF04F0FFFFA0A141EFCF
:10087C0004F044EF04F0FFFF4BEF04F0FFFFD890BF
:10088C00A0310109A06F4EEF04F0FFFFD890A03308
:10089C00FFFF91A154EF04F057EF04F0FFFF59EF65
:1008AC0004F0FFFFA08FFFFF943594339333923302
:1008BC0091339F2BFFFF9E519F5DD8A068EF04F0F2
:1008CC006BEF04F0FFFF3BEF04F0FFFF9DBD71EFFA
:1008DC0004F074EF04F0FFFFC1EF04F0FFFF9F5131
:1008EC00D8A47BEF04F07EEF04F0FFFF89EF04F057
:1008FC00FFFF000E916F000E926F000E936F000EB3
:10090C00946F18EF06F0FFFF9551912796519223A3
:10091C00975193239851942394A197EF04F09AEF55
:10092C0004F0FFFF65EF05F0FFFFA0A1A0EF04F0BE
:10093C00A3EF04F0FFFFAAEF04F0FFFFD890A03163
:10094C000109A06FADEF04F0FFFFD890A033FFFFBB
:10095C0091A1B3EF04F0B6EF04F0FFFFB8EF04F091
:10096C00FFFFA08FFFFF9435943393339233913371
:10097C009F2B65EF05F0FFFF9551915D96519259B4
:10098C00975193599451800A996F9851800A9959AB
:10099C00D8B0D3EF04F0D6EF04F0FFFF04EF05F06E
:1009AC00FFFF9151955D996F925196599A6F9351A2
:1009BC0097599B6F945198599C6FFF0E9925916F85
:1009CC00FF0E9A21926FFF0E9B21936FFF0E9C21BD
:1009DC00946F800E9D1BA06DA051D8A4F8EF04F06D
:1009EC00FBEF04F0FFFF0DEF05F0FFFF010E912769
:1009FC00000E9223932394230DEF05F0FFFF9551E6
:100A0C00915F9651925B9751935B9851945BFFFF6A
:100A1C009151921193119411D8A417EF05F01AEF7C
:100A2C0005F0FFFF5CEF05F0FFFFA051D8A421EF0C
:100A3C0005F024EF05F0FFFF5CEF05F0FFFF000E63
:100A4C00916F000E926F000E936F000E946F18EF63
:100A5C0006F0FFFFD8909137923793379437A0AFB9
:100A6C003AEF05F03DEF05F0FFFF3FEF05F0FFFF1C
:100A7C009181FFFFA0A145EF05F048EF05F0FFFFC6
:100A8C004DEF05F0FFFFD880A03750EF05F0FFFFCA
:100A9C00D890A037FFFF9F51D8B457EF05F05AEF0D
:100AAC0005F0FFFF5CEF05F0FFFF9F07FFFF93AF23
:100ABC0062EF05F065EF05F0FFFF2FEF05F0FFFF8C
:100ACC00000E9E6FA0AF6DEF05F070EF05F0FFFF0D
:100ADC008FEF05F0FFFFA0C099F07F0E9917D8B4E7
:100AEC007AEF05F07DEF05F0FFFF83EF05F0FFFFD8
:100AFC00FFFF010E9E6F8FEF05F0FFFF91A189EFB5
:100B0C0005F08CEF05F0FFFF8FEF05F0FFFF7EEF98
:100B1C0005F0FFFF9E51D8B496EF05F099EF05F064
:100B2C00FFFFC9EF05F0FFFF010E9127000E922386
:100B3C009323942394A1A5EF05F0A8EF05F0FFFFF4
:100B4C00C9EF05F0FFFF91C099F092C09AF093C0E5
:100B5C009BF094C09CF09C359C339B339A33993317
:100B6C0099C091F09AC092F09BC093F09CC094F005
:100B7C009F29D8B4C4EF05F0C7EF05F0FFFFC9EF0C
:100B8C0005F0FFFF9F2BFFFF9F29D8B4D0EF05F096
:100B9C00D3EF05F0FFFFDDEF05F0FFFF9F51D8A469
:100BAC00DAEF05F0DDEF05F0FFFFF2EF05F0FFFFE8
:100BBC00000E916F000E926F000E936F000E946FEB
:100BCC009F51D8A4ECEF05F0EFEF05F0FFFFF2EF2B
:100BDC0005F0FFFF000E9D6FFFFF9FA1F8EF05F0E2
:100BEC00FBEF05F0FFFFFFEF05F0FFFF938F01EF29
:100BFC0006F0FFFF939FFFFFD8909F31946F9DAF3E
:100C0C000AEF06F00DEF06F0FFFF0FEF06F0FFFF07
:100C1C00948FFFFF91C091F092C092F093C093F02B
:100C2C0094C094F0FFFF1200FFFFFFFF3050800BC9
:100C3C00396E305030243F6E2FAE27EF06F02AEF7E
:100C4C0006F0FFFF2CEF06F0FFFF3F80FFFF3F5049
:100C5C00D8B433EF06F036EF06F0FFFF4DEF06F099
:100C6C00FFFF3F28D8A43DEF06F040EF06F0FFFF52
:100C7C0049EF06F0FFFF000E2D6E000E2E6E000EDB
:100C8C002F6E000E306EFFFF2F8E56EF06F0FFFF1B
:100C9C00000E2D6E000E2E6E000E2F6E000E306E9E
:100CAC00FFFF3450800B391A345034243E6E33AE6F
:100CBC0062EF06F065EF06F0FFFF67EF06F0FFFF4F
:100CCC003E80FFFF3E50D8B46EEF06F071EF06F099
:100CDC00FFFF88EF06F0FFFF3E28D8A478EF06F060
:100CEC007BEF06F0FFFF84EF06F0FFFF000E316E86
:100CFC00000E326E000E336E000E346EFFFF338E1C
:100D0C0091EF06F0FFFF000E316E000E326E000EFA
:100D1C00336E000E346EFFFF3E50D8B498EF06F0E1
:100D2C009BEF06F0FFFFA5EF06F0FFFF3F50D8A4A6
:100D3C00A2EF06F0A5EF06F0FFFFB0EF06F0FFFF05
:100D4C00000E2D6E000E2E6E000E2F6E000E306EED
:100D5C006AEF08F0FFFF33502D02F3CF44F0F4CFCD
:100D6C0045F044503A6E3B6A3C6A3D6A4550406ED1
:100D7C00416A426A436A32502E02F3CF44F0F4CFF8
:100D8C0045F044503A26000E3B223C223D22455071
:100D9C004026000E41224222432231502F02F3CF33
:100DAC0044F0F4CF45F044503A26000E3B223C224E
:100DBC003D2245504026000E4122422243223CC097
:100DCC003DF03BC03CF03AC03BF03A6A31502E0249
:100DDC00F3CF44F0F4CF45F044503A2645503B2233
:100DEC00000E3C22000E3D2232502D02F3CF44F077
:100DFC00F4CF45F044503A2645503B22000E3C229D
:100E0C00000E3D223CC03DF03BC03CF03AC03BF0F4
:100E1C003A6A31502D02F3CF44F0F4CF45F04450F0
:100E2C003A2645503B22000E3C22000E3D22335008
:100E3C002E02F3CF44F0F4CF45F0445040264550F9
:100E4C004122000E4222000E432232502F02F3CFD9
:100E5C0044F0F4CF45F04450402645504122000E5A
:100E6C004222000E432233502F02F3CF44F0F4CF32
:100E7C0045F04450356E4550366E376A386A37C087
:100E8C0038F036C037F035C036F0356A355040266C
:100E9C003650412237504222385043223AC035F066
:100EAC003BC036F03CC037F03DC038F0190E65EF52
:100EBC0007F0FFFFD8903832373236323532FFFF29
:100ECC00E82E5FEF07F03550402636504122375060
:100EDC004222385043223CC03DF03BC03CF03AC06B
:100EEC003BF03A6A3E503FC035F0366A3526000E6C
:100EFC003622820E3524446EFF0E3620456EA0EF4E
:100F0C0007F0FFFFD89040364136423643363DAEAF
:100F1C0092EF07F095EF07F0FFFF97EF07F0FFFF59
:100F2C004080FFFFD8903A363B363C363D3644067F
:100F3C00D8A04506FFFF42AEA6EF07F0A9EF07F0D9
:100F4C00FFFF87EF07F0FFFF000E3E6E3DAEB1EFE7
:100F5C0007F0B4EF07F0FFFFDFEF07F0FFFFFF0E26
:100F6C003A14356EFF0E3B14366EFF0E3C14376E82
:100F7C007F0E3D14386E3550361037103810D8B4FB
:100F8C00CAEF07F0CDEF07F0FFFFD3EF07F0FFFF3D
:100F9C00FFFF010E3E6EDFEF07F0FFFF40A0D9EF21
:100FAC0007F0DCEF07F0FFFFDFEF07F0FFFFCEEFFE
:100FBC0007F0FFFF3E50D8B4E6EF07F0E9EF07F07B
:100FCC00FFFF10EF08F0FFFF010E4026000E41223C
:100FDC004222432243A0F5EF07F0F8EF07F0FFFFA2
:100FEC0010EF08F0FFFF40C035F041C036F042C0B2
:100FFC0037F043C038F03834383237323632353285
:10100C0035C040F036C041F037C042F038C043F034
:10101C00444A452AFFFF45BE1CEF08F0455009E144
:10102C004428D8A01CEF08F01FEF08F0FFFF2AEFB0
:10103C0008F0FFFF000E406E000E416E800E426EF7
:10104C007F0E436E5FEF08F0FFFF45BE39EF08F0EF
:10105C00455006E14404D8B036EF08F039EF08F0FB
:10106C00FFFF46EF08F0FFFF000E406E000E416ED2
:10107C00000E426E000E436E000E396E5FEF08F0EC
:10108C00FFFF44C03FF0FF0E4016FF0E41167F0ECF
:10109C004216000E43163FA056EF08F059EF08F029
:1010AC00FFFF5BEF08F0FFFF428EFFFFD8903F3051
:1010BC00436EFFFF3950431240C02DF041C02EF05B
:1010CC0042C02FF043C030F0FFFF1200FFFFFFFFC4
:1010DC004950800B0001886F495049248F6F48AEEE
:1010EC007AEF08F07DEF08F0FFFF7FEF08F0FFFFCD
:1010FC008F81FFFF8F51D8B486EF08F089EF08F08D
:10110C00FFFFA2EF08F0FFFF8F29D8A490EF08F0A3
:10111C0093EF08F0FFFF9CEF08F0FFFF000E466E08
:10112C00000E476E000E486E000E496EFFFF488E93
:10113C00000E496EABEF08F0FFFF000E466E000E7E
:10114C00476E000E486E000E496EFFFF4D50800B2F
:10115C00881B4D504D24906F4CAEB7EF08F0BAEF92
:10116C0008F0FFFFBCEF08F0FFFF9081FFFF9051EC
:10117C00D8B4C3EF08F0C6EF08F0FFFFDFEF08F0BC
:10118C00FFFF9029D8A4CDEF08F0D0EF08F0FFFFB7
:10119C00D9EF08F0FFFF000E4A6E000E4B6E000EEA
:1011AC004C6E000E4D6EFFFF4C8E000E4D6EE8EF38
:1011BC0008F0FFFF000E4A6E000E4B6E000E4C6ED8
:1011CC00000E4D6EFFFF4A504B104C104D10D8A422
:1011DC00F2EF08F0F5EF08F0FFFF0FEF09F0FFFF5B
:1011EC00000E466E000E476E000E486E000E496EE5
:1011FC00800E48127F0E4912FFFF8851491246C0DB
:10120C0046F047C047F048C048F049C049F084EF69
:10121C000AF0FFFF8F51D8A416EF09F019EF09F06F
:10122C00FFFF24EF09F0FFFF000E466E000E476E25
:10123C00000E486E000E496E84EF0AF0FFFF9051CD
:10124C008FC080F0816B805F000E815B7F0E8025EC
:10125C00896F000E81218A6F46C084F047C085F0EB
:10126C0048C086F049C087F0000E466E000E476EEF
:10127C00000E486E000E496E000E8B6F000E8C6FC8
:10128C00000E8D6F000E8E6F000E906F90EF09F0B8
:10129C00FFFF9051D8B455EF09F058EF09F0FFFF5C
:1012AC0073EF09F0FFFFD89084378537863787377F
:1012BC00D89046364736483649368EAF68EF09F037
:1012CC006BEF09F0FFFF6DEF09F0FFFF4680FFFFAA
:1012DC00D8908B378C378D378E37FFFF4A50845D13
:1012EC004B5085594C5086594D508759D8A081EF99
:1012FC0009F084EF09F0FFFF8EEF09F0FFFF8E8DF0
:10130C004A50845F4B50855B4C50865B4D50875BDD
:10131C00FFFF902BFFFF190E906597EF09F09AEFE6
:10132C0009F0FFFF4EEF09F0FFFF84518511861184
:10133C008711D8B4A4EF09F0A7EF09F0FFFFC4EFB1
:10134C0009F0FFFF8B81C4EF09F0FFFFD890463600
:10135C004736483649368EAFB6EF09F0B9EF09F08B
:10136C00FFFFBBEF09F0FFFF4680FFFFD8908B37E4
:10137C008C378D378E378907D8A08A07FFFF48AE88
:10138C00CAEF09F0CDEF09F0FFFFABEF09F0FFFF5B
:10139C00000E906F8EAFD5EF09F0D8EF09F0FFFF7C
:1013AC0003EF0AF0FFFFFF0E8B15806FFF0E8C15FD
:1013BC00816FFF0E8D15826F7F0E8E15836F80519E
:1013CC00811182118311D8B4EEEF09F0F1EF09F01D
:1013DC00FFFFF7EF09F0FFFFFFFF010E906F03EF28
:1013EC000AF0FFFF46A0FDEF09F000EF0AF0FFFF47
:1013FC0003EF0AF0FFFFF2EF09F0FFFF9051D8B4B2
:10140C000AEF0AF00DEF0AF0FFFF34EF0AF0FFFFCE
:10141C00010E4626000E47224822492249A019EF08
:10142C000AF01CEF0AF0FFFF34EF0AF0FFFF46C092
:10143C0080F047C081F048C082F049C083F083350A
:10144C00833382338133803380C046F081C047F0D0
:10145C0082C048F083C049F0894B8A2BFFFF8ABFBA
:10146C0040EF0AF08A5109E18929D8A040EF0AF02F
:10147C0043EF0AF0FFFF4FEF0AF0FFFF000E8A6FF9
:10148C008969000E466E000E476E000E486E000E07
:10149C00496EFFFF8ABF5EEF0AF08A5106E18905AB
:1014AC00D8B05BEF0AF05EEF0AF0FFFF6DEF0AF0C9
:1014BC00FFFF000E8A6F000E896F000E466E000E45
:1014CC00476E000E486E000E496E000E886FFFFFCF
:1014DC0089C08FF08FA175EF0AF078EF0AF0FFFF4B
:1014EC007CEF0AF0FFFF488E7EEF0AF0FFFF489E6C
:1014FC00FFFFD8908F31496E02EF09F0FFFF120009
:10150C00FFFFFFFFEAC0B1F0EBC0B2F0ECC0B3F0EC
:10151C00EDC0B4F0A1C0B1F0A2C0B2F0A3C0B3F062
:10152C00A4C0B4F0810E0001A56FFF0EA66FB1C070
:10153C00A7F0B2C0A8F0B3C0A9F0B4C0AAF0180EBE
:10154C00AEEF0AF0FFFFD890AA33A933A833A73324
:10155C00FFFFE82EA8EF0AF0A751A525AF6F000EEC
:10156C00A621B06FB0BFC4EF0AF0B0510AE1170E5C
:10157C00AF5DD8A0C4EF0AF0C7EF0AF0FFFFD3EFBE
:10158C000AF0FFFFFFFFA1C0A1F0A2C0A2F0A3C010
:10159C00A3F0A4C0A4F0AEEF0BF0FFFFB0BFD9EFE7
:1015AC000AF0DCEF0AF0FFFF59EF0BF0FFFFAFC0C2
:1015BC00A5F0FF0EA66FFF0EA76F7F0EA86F000E93
:1015CC00A96FFFFFA567EDEF0AF0F6EF0AF0FFFF3A
:1015DC00A935A933A833A733A633A52FE7EF0AF013
:1015EC00FFFFA6C0ABF0A7C0ACF0A8C0ADF0A9C07F
:1015FC00AEF00001AB51B115A56FAC51B215A66F91
:10160C00AD51B315A76FAE51B415A86FA551A61166
:10161C00A711A811D8A415EF0BF018EF0BF0FFFFD2
:10162C001BEF0BF0FFFFC8EF0AF0FFFFB1C0A5F0F6
:10163C00B2C0A6F0B3C0A7F0B4C0A8F0200E2DEF36
:10164C000BF0FFFFD890A833A733A633A533FFFFC9
:10165C00E82E27EF0BF0A551A611A711A811D8A4BD
:10166C003AEF0BF03DEF0BF0FFFF46EF0BF0FFFFF7
:10167C00AB51B127AC51B223AD51B323AE51B4230E
:10168C00FFFFAB1DA56FAC1DA66FAD1DA76FAE1DEB
:10169C00A86FA551B117A651B217A751B317A851EE
:1016AC00B417A5EF0BF0FFFFB1C0A5F0B2C0A6F0C8
:1016BC00B3C0A7F0B4C0A8F0200E6BEF0BF0FFFF87
:1016CC00D890A833A733A633A533FFFFE82E65EFD8
:1016DC000BF0A551A611A711A811D8B478EF0BF0F7
:1016EC007BEF0BF0FFFF86EF0BF0FFFF000EB16FEF
:1016FC00000EB26F000EB36F800EB46FA5EF0BF03F
:10170C00FFFFD890B135A56FB235A66FB335A76F73
:10171C00B435A86FA551A611A711A811D8B499EF8B
:10172C000BF09CEF0BF0FFFFA5EF0BF0FFFF000E93
:10173C00B16F000EB26F800EB36F3F0EB46FFFFF30
:10174C00B1C0A1F0B2C0A2F0B3C0A3F0B4C0A4F079
:10175C00FFFF1200FFFFFFFF276E2750D8B4B9EF31
:10176C000BF0BCEF0BF0FFFFE1EF0BF0FFFF22BE25
:10177C00C5EF0BF0C2EF0BF0FFFFE1EF0BF0FFFF3B
:10178C001FC023F020C024F021C025F022C026F079
:10179C00231E241E251E261E232A000E242225224B
:1017AC00262223C029F024C02AF025C02BF026C005
:1017BC002CF0EAEF0BF0FFFF1FC029F020C02AF03D
:1017CC0021C02BF022C02CF0FFFF1F502010211045
:1017DC002210D8A4F4EF0BF0F7EF0BF0FFFF02EFA1
:1017EC000CF0FFFF000E1F6E000E206E000E216E1F
:1017FC00000E226EAAEF0CF0FFFF960E286E0EEF75
:10180C000CF0FFFF282AD8902C322B322A322932A6
:10181C00FFFF000E2914236E000E2A14246E000EF6
:10182C002B14256EFE0E2C14266E2350241025101E
:10183C002610D8A424EF0CF027EF0CF0FFFF07EFD5
:10184C000CF0FFFF37EF0CF0FFFF282A010E2926C2
:10185C00000E2A222B222C22D8902C322B322A3208
:10186C002932FFFF000E2914236E000E2A14246E59
:10187C00000E2B14256EFF0E2C14266E23502410F4
:10188C0025102610D8A44DEF0CF050EF0CF0FFFFF4
:10189C002AEF0CF0FFFF5AEF0CF0FFFF2806D89050
:1018AC0029362A362B362C36FFFF2BBE60EF0CF078
:1018BC0063EF0CF0FFFF6DEF0CF0FFFF020E2860E2
:1018CC006AEF0CF06DEF0CF0FFFF53EF0CF0FFFF25
:1018DC0028B073EF0CF076EF0CF0FFFF78EF0CF004
:1018EC00FFFF2B9EFFFFD890283228C023F0246ADC
:1018FC00256A266A23C026F0256A246A236A2350A7
:10190C00291224502A1225502B1226502C12275003
:10191C00D8B493EF0CF096EF0CF0FFFFA1EF0CF0A6
:10192C00FFFF22BE9FEF0CF09CEF0CF0FFFFA1EF2E
:10193C000CF0FFFF2C8EFFFF29C01FF02AC020F0F7
:10194C002BC021F02CC022F0FFFF1200FFFFFFFF85
:10195C00166E1650E7EC13F00009D8B4B8EF0CF083
:10196C00BBEF0CF0FFFFBEEF0CF0FFFF97EF0DF09D
:10197C00FFFF0E500E24FE0B026E16500FEC14F0EF
:10198C000009D8B4CCEF0CF0CFEF0CF0FFFFD2EF86
:10199C000CF0FFFF97EF0DF0FFFF000E026E1650DC
:1019AC000FEC14F00009D8B4DEEF0CF0E1EF0CF002
:1019BC00FFFFE4EF0CF0FFFF97EF0DF0FFFF170EAA
:1019CC00096E000E0A6E11507CEC13F017C002F079
:1019DC0016500FEC14F00009D8B4F7EF0CF0FAEF36
:1019EC000CF0FFFFFDEF0CF0FFFF97EF0DF0FFFF8A
:1019FC00170E096E000E0A6E10507CEC13F017C017
:101A0C0002F016500FEC14F00009D8B410EF0DF0E2
:101A1C0013EF0DF0FFFF16EF0DF0FFFF97EF0DF03A
:101A2C00FFFF170E096E000E0A6E0F507CEC13F0C0
:101A3C0017C002F016500FEC14F00009D8B429EFBF
:101A4C000DF02CEF0DF0FFFF2FEF0DF0FFFF97EFD8
:101A5C000DF0FFFF170E096E000E0A6E12507CEC93
:101A6C0013F017C002F016500FEC14F00009D8B4A4
:101A7C0042EF0DF045EF0DF0FFFF48EF0DF0FFFFCB
:101A8C0097EF0DF0FFFF170E096E000E0A6E135044
:101A9C007CEC13F017C002F016500FEC14F0000998
:101AAC00D8B45BEF0DF05EEF0DF0FFFF61EF0DF0C2
:101ABC00FFFF97EF0DF0FFFF170E096E000E0A6E79
:101ACC0014507CEC13F017C002F016500FEC14F00D
:101ADC000009D8B474EF0DF077EF0DF0FFFF7AEF3B
:101AEC000DF0FFFF97EF0DF0FFFF170E096E000EC4
:101AFC000A6E15507CEC13F017C002F016500FEC68
:101B0C0014F00009D8B48DEF0DF090EF0DF0FFFF3D
:101B1C0093EF0DF0FFFF97EF0DF0FFFF1650D8EC91
:101B2C0013F0FFFF1200FFFFFFFF21C0D9FF22C0FF
:101B3C00DAFF000EDF6E20EE01F02150D926225084
:101B4C00DA22000EDF6E20EE02F02150D926225050
:101B5C00DA22000EDF6E20EE03F02150D92622503F
:101B6C00DA22000EDF6E20EE04F02150D92622502E
:101B7C00DA22000EDF6ECFEF0DF0FFFF20EE04F047
:101B8C002150D9262250DA22DF2A100E1F5E270E92
:101B9C00205AFFFF100E1F5C270E2058D8B0D9EF2B
:101BAC000DF0DCEF0DF0FFFFC3EF0DF0FFFFEBEFDF
:101BBC000DF0FFFF20EE03F02150D9262250DA223F
:101BCC00DF2AE80E1F5E030E205AFFFFE80E1F5C93
:101BDC00030E2058D8B0F5EF0DF0F8EF0DF0FFFF25
:101BEC00DFEF0DF0FFFF07EF0EF0FFFF20EE02F02E
:101BFC002150D9262250DA22DF2A640E1F5E000EF5
:101C0C00205AFFFF205007E1640E1F5CD8B011EF83
:101C1C000EF014EF0EF0FFFFFBEF0DF0FFFF23EFC4
:101C2C000EF0FFFF20EE01F02150D9262250DA22CF
:101C3C00DF2A0A0E1F5E000E205AFFFF205007E11C
:101C4C000A0E1F5CD8B02DEF0EF030EF0EF0FFFF38
:101C5C0017EF0EF0FFFF21C0D9FF22C0DAFF1FC023
:101C6C00DFFF1200FFFFFFFF21342234286E2850C3
:101C7C00D8A443EF0EF046EF0EF0FFFF52EF0EF03C
:101C8C00FFFFFFFF000E1F6E000E206E000E216E78
:101C9C00000E226ED1EF0EF0FFFF1FC023F020C00C
:101CAC0024F021C025F022C026F0200E64EF0EF0A7
:101CBC00FFFFD8902632253224322332FFFFE82E44
:101CCC005EEF0EF02350276E218EFF0E1F16FF0EB7
:101CDC002016FF0E2116000E2216960E285E28BE28
:101CEC007DEF0EF07AEF0EF0FFFF97EF0EF0FFFF97
:101CFC002850800A970FD8B086EF0EF089EF0EF0BF
:101D0C00FFFF8CEF0EF0FFFF47EF0EF0FFFFD890B8
:101D1C002232213220321F32283E8CEF0EF0B5EFEA
:101D2C000EF0FFFF1F0E28649EEF0EF0A1EF0EF0D9
:101D3C00FFFFABEF0EF0FFFF47EF0EF0FFFFD89069
:101D4C001F362036213622362806FFFF2850D8A40D
:101D5C00B2EF0EF0B5EF0EF0FFFFA4EF0EF0FFFFA9
:101D6C002750D8B4BCEF0EF0BFEF0EF0FFFFC8EF5A
:101D7C000EF0FFFF221E211E201E1F6C000E2022C3
:101D8C0021222222FFFF1FC01FF020C020F021C003
:101D9C0021F022C022F0FFFF1200FFFFFFFF000125
:101DAC00BF6F000E316E000E326E800E336E410E20
:101DBC00346EB5C01FF0B6C020F0B7C021F0B8C06B
:101DCC0022F0000EB1EC0BF01FC02DF020C02EF055
:101DDC0021C02FF022C030F01BEC06F02DC04AF0D1
:101DEC002EC04BF02FC04CF030C04DF0000E466EA4
:101DFC00240E476E740E486E4B0E496E6DEC08F057
:101E0C0046C091F047C092F048C093F049C094F09E
:101E1C00000E0001956F000E966F800E976FBF0E2F
:101E2C00986F46EC03F091C0A1F092C0A2F093C061
:101E3C00A3F094C0A4F087EC0AF0A1C0BBF0A2C040
:101E4C00BCF0A3C0BDF0A4C0BEF0BBC01FF0BCC0B2
:101E5C0020F0BDC021F0BEC022F039EC0EF01F50B6
:101E6C00AF6E0001BF51D8A43EEF0FF041EF0FF061
:101E7C00FFFF48EF0FF0FFFFAC84AC8AAB8EAB8852
:101E8C00948E949CFFFF000E206E1E0E1F6E3CEC79
:101E9C0011F01200FFFFFFFF000E066E04BE5CEF98
:101EAC000FF059EF0FF0FFFF63EF0FF0FFFF036C24
:101EBC00041ED8B0042A010E066EFFFF02BE6CEFA2
:101ECC000FF069EF0FF0FFFF73EF0FF0FFFF016CE6
:101EDC00021ED8B0022A010E061AFFFF000E086E71
:101EEC00000E076E03500410D8B47FEF0FF082EF92
:101EFC000FF0FFFFB3EF0FF0FFFF010E056E8CEF3D
:101F0C000FF0FFFFD89003360436052AFFFF04AE0E
:101F1C0092EF0FF095EF0FF0FFFF87EF0FF0FFFF41
:101F2C00FFFFD890073608360350015C0450025866
:101F3C00D8A0A3EF0FF0A6EF0FF0FFFFACEF0FF060
:101F4C00FFFF0350015E0450025A0780FFFFD89038
:101F5C0004320332052E96EF0FF0FFFF0650D8B473
:101F6C00BAEF0FF0BDEF0FF0FFFFC2EF0FF0FFFF66
:101F7C00076C081ED8B0082AFFFF07C001F008C084
:101F8C0002F01200FFFFFFFF236E040E205CD8A0AE
:101F9C00D2EF0FF0D5EF0FF0FFFFD9EF0FF0FFFFEF
:101FAC00030E206E1F68FFFF2350D8A4E0EF0FF044
:101FBC00E3EF0FF0FFFF0AEF10F0FFFF1FC021F05F
:101FCC0020C022F0D89022322132D89022322132F5
:101FDC002150BE6ED8902030226E1F30216E010E23
:101FEC002116213A2146BD502118DF0B2118BD6E58
:101FFC001FC021F0010E2116213ABD502118EF0B04
:10200C002118BD6E39EF10F0FFFF2304D8A411EF97
:10201C0010F014EF10F0FFFF39EF10F0FFFF1FC0AE
:10202C0021F020C022F0D89022322132D8902232D6
:10203C0021322150BB6ED8902030226E1F30216E81
:10204C00010E2116213A2146BA502118DF0B211816
:10205C00BA6E1FC021F0010E2116213ABA50211878
:10206C00EF0B2118BA6EFFFF1200FFFFFFFF000EEF
:10207C00066E02BE47EF10F044EF10F0FFFF4EEF7C
:10208C0010F0FFFF016C021ED8B0022A010E066E82
:10209C00FFFF04BE57EF10F054EF10F0FFFF5CEFA2
:1020AC0010F0FFFF036C041ED8B0042AFFFF03508E
:1020BC000410D8B464EF10F067EF10F0FFFF94EF4A
:1020CC0010F0FFFF010E056E71EF10F0FFFFD890BE
:1020DC0003360436052AFFFF04AE77EF10F07AEFD3
:1020EC0010F0FFFF6CEF10F0FFFFFFFF0350015CDF
:1020FC0004500258D8A085EF10F088EF10F0FFFFC5
:10210C008DEF10F0FFFF0350015E0450025AFFFFE9
:10211C00D89004320332052E7BEF10F0FFFF0650EF
:10212C00D8B49BEF10F09EEF10F0FFFFA3EF10F070
:10213C00FFFF016C021ED8B0022AFFFF01C001F0A4
:10214C0002C002F01200FFFFFFFF20EEDFF010EEE6
:10215C00C1F00A0EDBCFE3FFE806FCE2160E5A6E66
:10216C00110E5B6E000E5C6E060E5D6E130E5E6ED7
:10217C00040E5F6E140E606E010E926E180E936E4E
:10218C00700E946E0E0EC16E000E0001B56FC20E75
:10219C00B66F010EB76F000EB86F000EBA6F000E5F
:1021AC00B96F000ED4EC0EF0FFFF8BA0E0EF10F037
:1021BC00E6EF10F0FFFF0001C06BC02BE9EF10F051
:1021CC00FFFF0001C06BFFFF8B50C019FE0BC01945
:1021DC008B6E000E206E640E1F6E3CEC11F0660EC2
:1021EC001F6E000E9FEC13F0DAEF10F099EF01F078
:1021FC00FFFF256E2550C9EC13F00009D8B409EF88
:10220C0011F00CEF11F0FFFF0FEF11F0FFFF39EFA2
:10221C0011F0FFFF23502324FE0B206E255003ECFE
:10222C0014F00009D8B41DEF11F020EF11F0FFFFEE
:10223C0023EF11F0FFFF39EF11F0FFFF24C020F066
:10224C00255003EC14F00009D8B42FEF11F032EF45
:10225C0011F0FFFF35EF11F0FFFF39EF11F0FFFF29
:10226C002550BAEC13F0FFFF1200FFFFFFFF1FC059
:10227C0021F020C022F0FFFF21502210D8A449EFFA
:10228C0011F04CEF11F0FFFF4FEF11F0FFFF68EF73
:10229C0011F0FFFF000E246EC70E236EFFFF230606
:1022AC00D8A0240623502410D8A45FEF11F062EFBD
:1022BC0011F0FFFF54EF11F0FFFF2106D8A022060A
:1022CC0041EF11F0FFFF1200FFFFFFFFFFFFC7B44C
:1022DC0072EF11F075EF11F0FFFF6CEF11F0FFFFD3
:1022EC00000E1F6EFFFFC5BC7EEF11F081EF11F0E9
:1022FC00FFFF86EF11F0FFFFFFFF000E95EF11F0CF
:10230C00FFFF1F2A630E1F648EEF11F091EF11F087
:10231C00FFFF78EF11F0FFFF9E9682EF11F0FFFFA9
:10232C001200FFFFFFFFFFFFC7B49FEF11F0A2EFFA
:10233C0011F0FFFF99EF11F0FFFF000E016EFFFF90
:10234C00C5BCABEF11F0AEEF11F0FFFFB3EF11F026
:10235C00FFFFFFFF000EC2EF11F0FFFF012A630E1B
:10236C000164BBEF11F0BEEF11F0FFFFA5EF11F010
:10237C00FFFF9E96AFEF11F0FFFF1200FFFFFFFF74
:10238C0020EE01F02550D9262650DA223A0EDF64D1
:10239C00D2EF11F0D5EF11F0FFFFE6EF11F0FFFFD8
:1023AC0020EE01F02550D9262650DA22000EDF6EE1
:1023BC0025C022F026C023F075EC12F0EEEF11F0E0
:1023CC00FFFF20EE01F02550D9262650DA22DF2A15
:1023DC00FFFF1200FFFFFFFF20EE01F02350D92674
:1023EC002450DA22DF50D8A4FEEF11F001EF12F0E6
:1023FC00FFFF12EF12F0FFFF20EE01F02350D92661
:10240C002450DA223B0EDF6E23C021F024C022F0D0
:10241C00C1EC12F01AEF12F0FFFF20EE01F0235086
:10242C00D9262450DA22DF06FFFF1200FFFFFFFF40
:10243C0020EE02F00A50D9260B50DA223A0EDF6455
:10244C002AEF12F02DEF12F0FFFF3EEF12F0FFFF1C
:10245C0020EE02F00A50D9260B50DA22000EDF6E65
:10246C000AC007F00BC008F049EC12F046EF12F06E
:10247C00FFFF20EE02F00A50D9260B50DA22DF2A99
:10248C00FFFF1200FFFFFFFF20EE01F00750D926DF
:10249C000850DA223A0EDF6456EF12F059EF12F0C0
:1024AC00FFFF6AEF12F0FFFF20EE01F00750D92674
:1024BC000850DA22000EDF6E07C004F008C005F0E9
:1024CC000DEC13F072EF12F0FFFF20EE01F007504D
:1024DC00D9260850DA22DF2AFFFF1200FFFFFFFF88
:1024EC0022C0D9FF23C0DAFF160EDF6480EF12F092
:1024FC0083EF12F0FFFF92EF12F0FFFF22C0D9FF23
:10250C0023C0DAFF000EDF6E22C01FF023C020F0C4
:10251C009BEC12F098EF12F0FFFF22C0D9FF23C002
:10252C00DAFFDF2AFFFF1200FFFFFFFF20EE04F0AF
:10253C001F50D9262050DA22160EDF64A8EF12F0B5
:10254C00ABEF12F0FFFFB6EF12F0FFFF20EE04F03E
:10255C001F50D9262050DA22000EDF6EBEEF12F08B
:10256C00FFFF20EE04F01F50D9262050DA22DF2A7C
:10257C00FFFF1200FFFFFFFF21C0D9FF22C0DAFFCF
:10258C00DF50D8A4CCEF12F0CFEF12F0FFFFDEEF4C
:10259C0012F0FFFF21C0D9FF22C0DAFF170EDF6E49
:1025AC0021C01FF022C020F0E7EC12F0E4EF12F093
:1025BC00FFFF21C0D9FF22C0DAFFDF06FFFF1200A8
:1025CC00FFFFFFFF20EE04F01F50D9262050DA2227
:1025DC00DF50D8A4F4EF12F0F7EF12F0FFFF02EF88
:1025EC0013F0FFFF20EE04F01F50D9262050DA2202
:1025FC00170EDF6E0AEF13F0FFFF20EE04F01F50F2
:10260C00D9262050DA22DF06FFFF1200FFFFFFFF62
:10261C0004C0D9FF05C0DAFF160EDF6418EF13F003
:10262C001BEF13F0FFFF2AEF13F0FFFF04C0D9FFDD
:10263C0005C0DAFF000EDF6E04C001F005C002F029
:10264C0033EC13F030EF13F0FFFF04C0D9FF05C0DB
:10265C00DAFFDF2AFFFF1200FFFFFFFF20EE04F07E
:10266C000150D9260250DA22160EDF6440EF13F027
:10267C0043EF13F0FFFF4EEF13F0FFFF20EE04F0DB
:10268C000150D9260250DA22000EDF6E56EF13F0FD
:10269C00FFFF20EE04F00150D9260250DA22DF2A87
:1026AC00FFFF1200FFFFEC0EF66E270EF76E000E0A
:1026BC00F86E00EED1F010EE19F00900F5CFEEFF38
:1026CC00E550E150FAE10001EE6BED6BEC6BEB6B5E
:1026DC00EA6B00EE4EF0130EEE6AE806FDE1619037
:1026EC006192000EF86E0001AAEF10F0FFFF0D6E64
:1026FC000DC001F0026A000E046E0A0E036E3CEC73
:10270C0010F001C00BF002C00CF00DC001F0026A19
:10271C00000E046E0A0E036E51EC0FF00150100DFA
:10272C00F3500B2409C0D9FF0AC0DAFFDF6E120088
:10273C00FFFFFFFF206E2050D8A4A7EF13F0AAEFE5
:10274C0013F0FFFFB7EF13F0FFFFFFFFACA2B1EFE9
:10275C0013F0B4EF13F0FFFFABEF13F0FFFF1FC04C
:10276C00ADFFFFFF1200FFFFFFFFC584FFFFC5B4E5
:10277C00C2EF13F0C5EF13F0FFFFBCEF13F0FFFF38
:10278C00000E1200FFFFFFFFC580FFFFC5B0D1EFA9
:10279C0013F0D4EF13F0FFFFCBEF13F0FFFF000E9D
:1027AC001200FFFFFFFFC584FFFFC5B4E0EF13F07D
:1027BC00E3EF13F0FFFFDAEF13F0FFFF000E120050
:1027CC00FFFFFFFFC580FFFFC5B0EFEF13F0F2EF87
:1027DC0013F0FFFFE9EF13F0FFFF000E1200FFFFF5
:1027EC002C061D060106140625060B063306407939
:0927FC0024301912027800103F8C
:10280600FFFF216E20C0C9FF9E9621506BEC11F090
:10281600226E22501200FFFFFFFF036E02C0C9FFA7
:102826009E96035098EC11F0046E04501200FFFFC0
:02283600FFFFA2
:020000040020DA
:08000000FFFFFFFFFFFFFFFF00
:020000040030CA
:0E000000FF220D0EFF0181FF0FC00FE00F4029
:00000001FF
