:020000040000FA
:0600000000F06BEF01F0BF
:10000800FFFF4C82D9CF05F0DACF06F0CA949E9252
:1000180000F000F000F000F000F000F000F000F058
:1000280000F000F000F000F000F000F000F000F048
:1000380000F000F000F000F000F000F000F000F038
:1000480000F000F000F000F000F000F000F000F028
:1000580000F000F000F000F000F000F000F000F018
:1000680000F000F000F000F000F000F000F000F008
:1000780000F000F000F000F000F000F000F000F0F8
:1000880000F000F000F000F000F000F000F000F0E8
:1000980000F000F000F000F000F000F000F000F0D8
:1000A80000F000F000F000F000F000F000F000F0C8
:1000B80000F000F000F000F000F000F000F000F0B8
:1000C80000F000F000F000F000F000F000F000F0A8
:1000D80000F000F000F000F000F000F000F000F098
:1000E80000F000F000F000F000F000F000F000F088
:1000F80000F000F000F000F000F000F000F000F078
:1001080000F000F000F000F000F000F000F000F067
:1001180000F000F000F000F000F000F000F000F057
:1001280000F000F000F000F000F000F000F000F047
:1001380000F000F000F000F000F000F000F000F037
:1001480000F000F000F000F000F000F000F000F027
:1001580000F000F000F000F000F000F000F000F017
:1001680000F000F000F000F000F000F000F000F007
:1001780000F000F000F000F000F000F000F000F0F7
:1001880000F000F000F000F000F000F000F000F0E7
:1001980000F000F000F000F000F000F000F000F0D7
:1001A80000F000F000F000F000F000F000F000F0C7
:1001B80000F000F000F000F000F000F000F000F0B7
:1001C80000F000F000F000F000F000F000F000F0A7
:1001D80000F000F000F000F000F000F000F000F097
:1001E80000F000F000F000F000F000F000F000F087
:1001F80000F000F000F000F000F000F000F000F077
:1002080000F000F000F000F000F000F000F000F066
:1002180000F000F000F000F0CA84010E2F26000E56
:10022800302231223222260E2F183010311032108F
:10023800D8A421EF01F024EF01F0FFFF34EF01F023
:10024800FFFF3C2A000E2F6E000E306E000E316E3E
:10025800000E326E3A0E016E000E026E89EC08F046
:10026800FFFF010E3326000E342235223622110EEE
:100278003318341035103610D8A445EF01F048EF84
:1002880001F0FFFF63EF01F0FFFF8BA04EEF01F0DD
:1002980053EF01F0FFFF046A042A55EF01F0FFFF56
:1002A800046AFFFF8B500418FE0B04188B6E000EB7
:1002B800336E000E346E000E356E000E366EFFFF84
:1002C80006C0DAFF05C0D9FF4C921100FFFFB8EF56
:1002D8000AF0FFFF20EE41F010EE1FF00A0EDBCF10
:1002E800E3FFE806FCE2160E3A6E110E3B6E000EB6
:1002F8003C6E060E3D6E130E3E6E040E3F6E140EDF
:10030800406E010E926E180E936E700E946E0E0E65
:10031800C16EA00E146E860E156E010E166E000EBE
:10032800176E000E196E010E186E000E34EC09F0EF
:10033800400E0B6E29C00CF0000E05EC0BF0410EC0
:100348000B6E29C00CF0000E05EC0BF0420E0B6E84
:1003580029C00CF0000E05EC0BF0430E0B6E29C003
:100368000CF0000E05EC0BF0000E086E0768100E7E
:10037800D3EC0AF0000E086E000E076E000E0A6E2F
:10038800000E096E000E3CEC0AF0680E0B6E000EB3
:10039800E4EC08F0680E146E20EE3AF000EE15F06A
:1003A800060EDBCFEBFFE806FCE2000EEAEC03F0FA
:1003B800680E146E3A0E156E000E166E000ED7EC0F
:1003C80004F0FFFF080E3A64ECEF01F0EFEF01F0E4
:1003D800FFFF03EF02F0FFFF0A0E3A60F6EF01F0AD
:1003E800F9EF01F0FFFF03EF02F0FFFF000E086EC8
:1003F800460E076E000ED8EC06F0FBEF02F0FFFF8A
:10040800090E3A640AEF02F00DEF02F0FFFF21EF48
:1004180002F0FFFF0B0E3A6014EF02F017EF02F044
:10042800FFFF21EF02F0FFFF000E086E550E076E6A
:10043800000ED8EC06F0FBEF02F0FFFF0A0E3A645C
:1004480028EF02F02BEF02F0FFFF3FEF02F0FFFF73
:10045800110E3A6032EF02F035EF02F0FFFF3FEF86
:1004680002F0FFFF000E086EB40E076E000ED8EC07
:1004780006F0FBEF02F0FFFF100E3A6446EF02F0C1
:1004880049EF02F0FFFF5DEF02F0FFFF120E3A6046
:1004980050EF02F053EF02F0FFFF5DEF02F0FFFFB5
:1004A800000E086E8C0E076E000ED8EC06F0FBEFFF
:1004B80002F0FFFF110E3A6464EF02F067EF02F0FA
:1004C800FFFF7BEF02F0FFFF130E3A606EEF02F0C2
:1004D80071EF02F0FFFF7BEF02F0FFFF000E086EE6
:1004E800730E076E000ED8EC06F0FBEF02F0FFFF6C
:1004F800120E3A6482EF02F085EF02F0FFFF99EFE7
:1005080002F0FFFF140E3A608CEF02F08FEF02F05A
:10051800FFFF99EF02F0FFFF000E086E5A0E076EFC
:10052800000ED8EC06F0FBEF02F0FFFF130E3A6462
:10053800A0EF02F0A3EF02F0FFFFB7EF02F0FFFF1A
:10054800150E3A60AAEF02F0ADEF02F0FFFFB7EF29
:1005580002F0FFFF000E086E230E076E000ED8ECA7
:1005680006F0FBEF02F0FFFF140E3A64BEEF02F054
:10057800C1EF02F0FFFFD5EF02F0FFFF160E3A6061
:10058800C8EF02F0CBEF02F0FFFFD5EF02F0FFFF5C
:10059800000E086E140E076E000ED8EC06F0FBEF86
:1005A80002F0FFFF150E3A64DCEF02F0DFEF02F015
:1005B800FFFFF3EF02F0FFFF170E3A60E6EF02F0DD
:1005C800E9EF02F0FFFFF3EF02F0FFFF000E086E05
:1005D8000C0E076E000ED8EC06F0FBEF02F0FFFFE2
:1005E800000E086E050E076E000ED8EC06F0FFFF31
:1005F80082BA01EF03F004EF03F0FFFF1FEF03F0EF
:10060800FFFF000E086E960E076E71EC09F03A0EA9
:10061800076E000E086EF3EC09F0680E146E20EEFB
:100628003AF000EE15F0060EDBCFEBFFE806FCE231
:10063800000EEAEC03F0FFFF82BC25EF03F028EF81
:1006480003F0FFFF43EF03F0FFFF000E086E960E66
:10065800076E71EC09F03A0E076E000E086ECDECCD
:1006680009F0680E146E20EE3AF000EE15F0060E52
:10067800DBCFEBFFE806FCE2000EEAEC03F0FFFF3D
:1006880081B649EF03F04CEF03F0FFFF67EF03F08B
:10069800FFFF000E086E960E076E71EC09F03A0E19
:1006A800076E000E086E7CEC0AF0680E146E20EEE1
:1006B8003AF000EE15F0060EDBCFEBFFE806FCE2A1
:1006C800000EEAEC03F0FFFF81B86DEF03F070EF66
:1006D80003F0FFFF8BEF03F0FFFF000E086E960E8E
:1006E800076E71EC09F03A0E076E000E086E5CECAE
:1006F8000AF0680E146E20EE3AF000EE15F0060EC1
:10070800DBCFEBFFE806FCE2000EEAEC03F0FFFFAC
:100718003BC007F0086A2A0E096E000E0A6EC1EC8B
:1007280005F0400E0B6E1F0E2A24D96EDA6A000EF1
:10073800DA22DF500C6E000E05EC0BF0410E0B6E4A
:100748001F0E2B24D96EDA6A000EDA22DF500C6EE7
:10075800000E05EC0BF03AC007F0086A2A0E096E85
:10076800000E0A6EC1EC05F0420E0B6E1F0E2A2415
:10077800D96EDA6A000EDA22DF500C6E000E05EC34
:100788000BF02B50D8A4CBEF03F0CEEF03F0FFFF14
:10079800D8EF03F0FFFF430E0B6EFF0E0C6E000E3A
:1007A80005EC0BF0E5EF01F0FFFF430E0B6E1F0E9B
:1007B8002B24D96EDA6A000EDA22DF500C6E000E96
:1007C80005EC0BF0E5EF01F06BEF01F0FFFF1C6E9D
:1007D8001C5050EC0BF00009D8B4F5EF03F0F8EF1B
:1007E80003F0FFFFFBEF03F0FFFFD4EF04F0FFFF80
:1007F80014501424FE0B086E1C50ECEC0AF000098F
:10080800D8B409EF04F00CEF04F0FFFF0FEF04F089
:10081800FFFFD4EF04F0FFFF000E086E1C50ECEC55
:100828000AF00009D8B41BEF04F01EEF04F0FFFF34
:1008380021EF04F0FFFFD4EF04F0FFFF1D0E0F6E51
:10084800000E106E175019EC0AF01DC008F01C506D
:10085800ECEC0AF00009D8B434EF04F037EF04F0F8
:10086800FFFF3AEF04F0FFFFD4EF04F0FFFF1D0E87
:100878000F6E000E106E165019EC0AF01DC008F02D
:100888001C50ECEC0AF00009D8B44DEF04F050EF1E
:1008980004F0FFFF53EF04F0FFFFD4EF04F0FFFF75
:1008A8001D0E0F6E000E106E155019EC0AF01DC0CB
:1008B80008F01C50ECEC0AF00009D8B466EF04F01C
:1008C80069EF04F0FFFF6CEF04F0FFFFD4EF04F0D2
:1008D800FFFF1D0E0F6E000E106E185019EC0AF077
:1008E8001DC008F01C50ECEC0AF00009D8B47FEFEA
:1008F80004F082EF04F0FFFF85EF04F0FFFFD4EF70
:1009080004F0FFFF1D0E0F6E000E106E195019EC4B
:100918000AF01DC008F01C50ECEC0AF00009D8B42D
:1009280098EF04F09BEF04F0FFFF9EEF04F0FFFF49
:10093800D4EF04F0FFFF1D0E0F6E000E106E1A505C
:1009480019EC0AF01DC008F01C50ECEC0AF0000984
:10095800D8B4B1EF04F0B4EF04F0FFFFB7EF04F040
:10096800FFFFD4EF04F0FFFF1D0E0F6E000E106E98
:100978001B5019EC0AF01DC008F01C50ECEC0AF0F2
:100988000009D8B4CAEF04F0CDEF04F0FFFFD0EFB0
:1009980004F0FFFFD4EF04F0FFFF1C5041EC0BF014
:1009A800FFFF1200FFFFFFFF176E14C00EF0000ECE
:1009B8000F6E180E106E000E116E17504BEC07F0EC
:1009C8000009D8B4EAEF04F0EDEF04F0FFFFF0EF10
:1009D80004F0FFFFBEEF05F0FFFF020E1524076EBF
:1009E800000E1620086E18502EEC0BF014C00EF0F6
:1009F800010E0F6E180E106E000E116E17504BEC94
:100A080007F00009D8B40BEF05F00EEF05F0FFFF73
:100A180011EF05F0FFFFBEEF05F0FFFF010E1524F3
:100A2800076E000E1620086E18502EEC0BF014C03E
:100A38000EF0020E0F6E180E106E000E116E17508B
:100A48004BEC07F00009D8B42CEF05F02FEF05F0B8
:100A5800FFFF32EF05F0FFFFBEEF05F0FFFF15C007
:100A680007F016C008F018502EEC0BF014C00EF06A
:100A7800030E0F6E180E106E000E116E17504BEC11
:100A880007F00009D8B44BEF05F04EEF05F0FFFF73
:100A980051EF05F0FFFFBEEF05F0FFFF030E152431
:100AA800076E000E1620086E18502EEC0BF014C0BE
:100AB8000EF0040E0F6E180E106E000E116E175009
:100AC8004BEC07F00009D8B46CEF05F06FEF05F0B8
:100AD800FFFF72EF05F0FFFFBEEF05F0FFFF040E0A
:100AE8001524076E000E1620086E18502EEC0BF019
:100AF80014C00EF0050E0F6E180E106E000E116E5B
:100B080017504BEC07F00009D8B48DEF05F090EFC3
:100B180005F0FFFF93EF05F0FFFFBEEF05F0FFFFC5
:100B2800050E1524076E000E1620086E18502EECC0
:100B38000BF014C00EF0060E0F6E180E106E000E9D
:100B4800116E17504BEC07F00009D8B4AEEF05F062
:100B5800B1EF05F0FFFFB4EF05F0FFFFBEEF05F0C2
:100B6800FFFF060E1524076E000E1620086E18509B
:100B78002EEC0BF0FFFF1200FFFFFFFF09C0D9FFAB
:100B88000AC0DAFF000EDF6E20EE01F00950D92608
:100B98000A50DA22000EDF6E20EE02F00950D92644
:100BA8000A50DA22000EDF6E20EE03F00950D92633
:100BB8000A50DA22000EDF6E20EE04F00950D92622
:100BC8000A50DA22000EDF6EF6EF05F0FFFF20EE86
:100BD80004F00950D9260A50DA22DF2A100E075EDF
:100BE800270E085AFFFF100E075C270E0858D8B0CA
:100BF80000EF06F003EF06F0FFFFEAEF05F0FFFF56
:100C080012EF06F0FFFF20EE03F00950D9260A5034
:100C1800DA22DF2AE80E075E030E085AFFFFE80E05
:100C2800075C030E0858D8B01CEF06F01FEF06F05B
:100C3800FFFF06EF06F0FFFF2EEF06F0FFFF20EEA6
:100C480002F00950D9260A50DA22DF2A640E075E1C
:100C5800000E085AFFFF085007E1640E075CD8B081
:100C680038EF06F03BEF06F0FFFF22EF06F0FFFF3C
:100C78004AEF06F0FFFF20EE01F00950D9260A508E
:100C8800DA22DF2A0A0E075E000E085AFFFF085014
:100C980007E10A0E075CD8B054EF06F057EF06F0EC
:100CA800FFFF3EEF06F0FFFF09C0D9FF0AC0DAFFD9
:100CB80007C0DFFF1200FFFFFFFF000E0C6E0ABE29
:100CC8006BEF06F068EF06F0FFFF72EF06F0FFFF2C
:100CD800096C0A1ED8B00A2A010E0C6EFFFF08BE66
:100CE8007BEF06F078EF06F0FFFF82EF06F0FFFFDC
:100CF800076C081ED8B0082A010E0C1AFFFF000E58
:100D08000E6E000E0D6E09500A10D8B48EEF06F064
:100D180091EF06F0FFFFC2EF06F0FFFF010E0B6E2A
:100D28009BEF06F0FFFFD89009360A360B2AFFFF23
:100D38000AAEA1EF06F0A4EF06F0FFFF96EF06F06B
:100D4800FFFFFFFFD8900D360E360950075C0A509A
:100D58000858D8A0B2EF06F0B5EF06F0FFFFBBEFDA
:100D680006F0FFFF0950075E0A50085A0D80FFFF82
:100D7800D8900A3209320B2EA5EF06F0FFFF0C506F
:100D8800D8B4C9EF06F0CCEF06F0FFFFD1EF06F0BC
:100D9800FFFF0D6C0E1ED8B00E2AFFFF0DC007F026
:100DA8000EC008F01200FFFFFFFF0B6E040E085C78
:100DB800D8A0E1EF06F0E4EF06F0FFFFE8EF06F059
:100DC800FFFF030E086E0768FFFF0B50D8A4EFEF74
:100DD80006F0F2EF06F0FFFF19EF07F0FFFF07C07C
:100DE80009F008C00AF0D8900A320932D8900A32BD
:100DF80009320950BE6ED89008300A6E0730096E65
:100E0800010E0916093A0946BD500918DF0B0918E1
:100E1800BD6E07C009F0010E0916093ABD50091840
:100E2800EF0B0918BD6E48EF07F0FFFF0B04D8A4BD
:100E380020EF07F023EF07F0FFFF48EF07F0FFFF71
:100E480007C009F008C00AF0D8900A320932D890D1
:100E58000A3209320950BB6ED89008300A6E073042
:100E6800096E010E0916093A0946BA500918DF0B2E
:100E78000918BA6E07C009F0010E0916093ABA50E6
:100E88000918EF0B0918BA6EFFFF1200FFFFFFFFEA
:100E9800126E125050EC0BF0136E1350D8A457EF8B
:100EA80007F05AEF07F0FFFF63EF07F0FFFF0E5060
:100EB8000E24FE0B086E1250ECEC0AF0136EFFFFC6
:100EC8001350D8A46AEF07F06DEF07F0FFFF74EF37
:100ED80007F0FFFF0FC008F01250ECEC0AF0136E99
:100EE800FFFF1350D8A47BEF07F07EEF07F0FFFF5A
:100EF80083EF07F0FFFF12505FEC0BF0136EFFFF5C
:100F08001350D8A48AEF07F08DEF07F0FFFF95EF95
:100F180007F0FFFFD8800E34086E1250ECEC0AF090
:100F2800136EFFFF1350D8A49CEF07F09FEF07F054
:100F3800FFFFAAEF07F0FFFF010E096E10C00AF0CD
:100F480011C00BF012509CEC0AF0136EFFFF135007
:100F5800D8A4B1EF07F0B4EF07F0FFFFB8EF07F040
:100F6800FFFF125041EC0BF0FFFF000E1200FFFFD5
:100F7800FFFF000E0C6E08BEC7EF07F0C4EF07F0C6
:100F8800FFFFCEEF07F0FFFF076C081ED8B0082A56
:100F9800010E0C6EFFFF0ABED7EF07F0D4EF07F083
:100FA800FFFFDCEF07F0FFFF096C0A1ED8B00A2A22
:100FB800FFFF09500A10D8B4E4EF07F0E7EF07F095
:100FC800FFFF14EF08F0FFFF010E0B6EF1EF07F0C3
:100FD800FFFFD89009360A360B2AFFFF0AAEF7EF53
:100FE80007F0FAEF07F0FFFFECEF07F0FFFFFFFF56
:100FF8000950075C0A500858D8A005EF08F008EF18
:1010080008F0FFFF0DEF08F0FFFF0950075E0A50D8
:10101800085AFFFFD8900A3209320B2EFBEF07F06F
:10102800FFFF0C50D8B41BEF08F01EEF08F0FFFFCD
:1010380023EF08F0FFFF076C081ED8B0082AFFFF4F
:1010480007C007F008C008F01200FFFFFFFF000EFE
:101058000F6E000E106E000E116E000E126E0B5009
:101068000C100D100E10D8B43CEF08F03FEF08F04C
:10107800FFFF7EEF08F0FFFF010E136E4BEF08F045
:10108800FFFFD8900B360C360D360E36132AFFFFAD
:101098000EAE51EF08F054EF08F0FFFF44EF08F0F0
:1010A800FFFFFFFFD8900F361036113612360B505F
:1010B800075C0C5008580D5009580E500A58D8A013
:1010C80068EF08F06BEF08F0FFFF75EF08F0FFFF1F
:1010D8000B50075E0C50085A0D50095A0E500A5A08
:1010E8000F80FFFFD8900E320D320C320B32132EC8
:1010F80055EF08F0FFFF0FC007F010C008F011C04F
:1011080009F012C00AF01200FFFFFFFF20EE02F004
:101118000150D9260250DA223A0EDF6496EF08F021
:1011280099EF08F0FFFFE0EF08F0FFFF20EE02F074
:101138000150D9260250DA22000EDF6E20EE01F0AF
:101148000150D9260250DA223A0EDF64AEEF08F0D9
:10115800B1EF08F0FFFFD8EF08F0FFFF20EE01F035
:101168000150D9260250DA22000EDF6E01C0D9FFE5
:1011780002C0DAFF160EDF64C4EF08F0C7EF08F00C
:10118800FFFFD0EF08F0FFFF01C0D9FF02C0DAFF70
:10119800000EDF6EE0EF08F0FFFF01C0D9FF02C0CC
:1011A800DAFFDF2AE0EF08F0FFFF20EE01F0015040
:1011B800D9260250DA22DF2AFFFF1200FFFFFFFFC5
:1011C800FFFF0C6E0C5050EC0BF00009D8B4EFEF99
:1011D80008F0F2EF08F0FFFFF5EF08F0FFFF31EF3E
:1011E80009F0FFFF0B500B24FE0B086E0C50ECECC3
:1011F8000AF00009D8B403EF09F006EF09F0FFFF81
:1012080009EF09F0FFFF31EF09F0FFFF0E0E086E3E
:101218000C50ECEC0AF00009D8B415EF09F018EFFF
:1012280009F0FFFF1BEF09F0FFFF31EF09F0FFFFA7
:10123800100E086E0C50ECEC0AF00009D8B427EF39
:1012480009F02AEF09F0FFFF2DEF09F0FFFF31EF5A
:1012580009F0FFFF0C5041EC0BF0FFFF1200FFFFFD
:10126800FFFF1E6E1E50D8A43CEF09F03FEF09F0B7
:10127800FFFF68EF09F0FFFF000E076E240E086EEF
:10128800F40E096E000E0A6E14C00BF015C00CF0B7
:1012980016C00DF017C00EF02AEC08F0FF0E072458
:1012A8001A6EFF0E08201B6EFF0E09201C6EFF0E23
:1012B8000A201D6E94869488C650F00B0809C66EE5
:1012C800C68A1AC0C8FFC78EFFFF000E086E0A0E36
:1012D800076E71EC09F01200FFFFFFFF07C009F06D
:1012E80008C00AF0FFFF09500A10D8A47EEF09F0E1
:1012F80081EF09F0FFFF84EF09F0FFFF9DEF09F090
:10130800FFFF000E0C6EC70E0B6EFFFF0B06D8A07A
:101318000C060B500C10D8A494EF09F097EF09F0C5
:10132800FFFF89EF09F0FFFF0906D8A00A0676EF4C
:1013380009F0FFFF1200FFFFFFFFFFFFC7B4A7EF91
:1013480009F0AAEF09F0FFFFA1EF09F0FFFF000E77
:10135800076EFFFFC5BCB3EF09F0B6EF09F0FFFF5A
:10136800BBEF09F0FFFFFFFF010ECAEF09F0FFFF17
:10137800072A630E0764C3EF09F0C6EF09F0FFFF01
:10138800ADEF09F0FFFF9E96B7EF09F0FFFF1200DF
:10139800FFFFFFFF20EE01F00750D9260850DA22A0
:1013A8003A0EDF64DAEF09F0DDEF09F0FFFFE8EF4E
:1013B80009F0FFFF20EE01F00750D9260850DA2285
:1013C800000EDF6EF0EF09F0FFFF20EE01F007508E
:1013D800D9260850DA22DF2AFFFF1200FFFFFFFF9D
:1013E80020EE01F00750D9260850DA22DF50D8A4A1
:1013F80000EF0AF003EF0AF0FFFF0EEF0AF0FFFF1D
:1014080020EE01F00750D9260850DA223B0EDF6E95
:1014180016EF0AF0FFFF20EE01F00750D92608501A
:10142800DA22DF06FFFF1200FFFFFFFF136E13C073
:1014380007F0086A000E0A6E0A0E096EBCEC07F087
:1014480007C011F008C012F013C007F0086A000EB8
:101458000A6E0A0E096E60EC06F00750100DF35084
:1014680011240FC0D9FF10C0DAFFDF6E1200FFFF92
:10147800FFFF0B6E0B50D8A444EF0AF047EF0AF0B9
:10148800FFFF4CEF0AF0FFFF0F0EBD1259EF0AF0F5
:10149800FFFF0B04D8A453EF0AF056EF0AF0FFFF42
:1014A80059EF0AF0FFFF0F0EBA12FFFF1200FFFFFD
:1014B800FFFF07C0D9FF08C0DAFF160EDF6467EF29
:1014C8000AF06AEF0AF0FFFF73EF0AF0FFFF07C0A8
:1014D800D9FF08C0DAFF000EDF6E79EF0AF0FFFFD0
:1014E80007C0D9FF08C0DAFFDF2AFFFF1200FFFF9D
:1014F800FFFF07C0D9FF08C0DAFFDF50D8A487EF85
:101508000AF08AEF0AF0FFFF93EF0AF0FFFF07C027
:10151800D9FF08C0DAFF170EDF6E99EF0AF0FFFF58
:1015280007C0D9FF08C0DAFFDF06FFFF1200FFFF80
:10153800FFFF0D6EC586FFFF9EA6A5EF0AF0A8EF78
:101548000AF0FFFF9FEF0AF0FFFF9E9609C007F021
:101558000D501BEC0BF00AC0D9FF0BC0DAFFC9CF46
:10156800DFFF010E1200FFFFDC0EF66E160EF76E9F
:10157800000EF86E00EE41F010EE0BF00900F5CF0A
:10158800EEFFE550E150FAE100EE2FF0120EEE6AA0
:10159800E806FDE14C904C9200016DEF01F0FFFF71
:1015A8000A6E9D82F28EF28C07C0CBFF030ECA1220
:1015B8000AC009F0FF0E0926094609460946CA501D
:1015C8000918870B0918CA6ECA84D08E1200FFFF4B
:1015D800FFFF0A6E08C0C9FF9E960A50A0EC09F0EA
:1015E8000009D8B4FAEF0AF0FDEF0AF0FFFF00EFA8
:1015F8000BF0FFFF01EF0BF0FFFFFFFF010E1200E2
:10160800FFFFFFFF0D6E0D5050EC0BF00B500B243D
:10161800FE0B086E0D50ECEC0AF00CC008F00D50F3
:10162800ECEC0AF00D5041EC0BF01200FFFFFFFF4D
:1016380007B002D0C59A01D0C58AC588FFFFC5B8D2
:1016480028EF0BF02BEF0BF0FFFF22EF0BF0FFFF63
:101658001200FFFFFFFF0A6E0AC009F00F0E0916FD
:101668000A380F0B0F0B0A0DF350092407C0D9FFD6
:1016780008C0DAFFDF6E1200FFFFFFFFC584FFFF1F
:10168800C5B449EF0BF04CEF0BF0FFFF43EF0BF045
:10169800FFFF000E1200FFFFFFFFC580FFFFC5B070
:1016A80058EF0BF05BEF0BF0FFFF52EF0BF0FFFF73
:1016B800000E1200FFFFFFFFC582FFFFC5B267EFF4
:1016C8000BF06AEF0BF0FFFF61EF0BF0FFFF000E6E
:0F16D8001200FFFF407924301912027800103FF2
:0216E800FFFF02
:020000040020DA
:08000000FFFFFFFFFFFFFFFF00
:020000040030CA
:0E000000FF220D0EFF0181FF0FC00FE00F4029
:00000001FF
