:020000040000FA
:0600000000F061EF01F0C9
:10000800FFFF6882CA949E9200F000F000F000F0B2
:1000180000F000F000F000F000F000F000F000F058
:1000280000F000F000F000F000F000F000F000F048
:1000380000F000F000F000F000F000F000F000F038
:1000480000F000F000F000F000F000F000F000F028
:1000580000F000F000F000F000F000F000F000F018
:1000680000F000F000F000F000F000F000F000F008
:1000780000F000F000F000F000F000F000F000F0F8
:1000880000F000F000F000F000F000F000F000F0E8
:1000980000F000F000F000F000F000F000F000F0D8
:1000A80000F000F000F000F000F000F000F000F0C8
:1000B80000F000F000F000F000F000F000F000F0B8
:1000C80000F000F000F000F000F000F000F000F0A8
:1000D80000F000F000F000F000F000F000F000F098
:1000E80000F000F000F000F000F000F000F000F088
:1000F80000F000F000F000F000F000F000F000F078
:1001080000F000F000F000F000F000F000F000F067
:1001180000F000F000F000F000F000F000F000F057
:1001280000F000F000F000F000F000F000F000F047
:1001380000F000F000F000F000F000F000F000F037
:1001480000F000F000F000F000F000F000F000F027
:1001580000F000F000F000F000F000F000F000F017
:1001680000F000F000F000F000F000F000F000F007
:1001780000F000F000F000F000F000F000F000F0F7
:1001880000F000F000F000F000F000F000F000F0E7
:1001980000F000F000F000F000F000F000F000F0D7
:1001A80000F000F000F000F000F000F000F000F0C7
:1001B80000F000F000F000F000F000F000F000F0B7
:1001C80000F000F000F000F000F000F000F000F0A7
:1001D80000F000F000F000F000F000F000F000F097
:1001E80000F000F000F000F000F000F000F000F087
:1001F80000F000F000F000F000F000F000F000F077
:1002080000F000F000F000F000F000F000F000F066
:10021800CA84010E0001DD27000EDE23DF23E02360
:10022800010EE127000EE223E323E423250EDD1966
:10023800DE11DF11E011D8A424EF01F027EF01F05F
:10024800FFFF32EF01F0FFFF010EE86F000EDD6FD8
:10025800000EDE6F000EDF6F000EE06FFFFF100E66
:10026800E119E211E311E411D8A43DEF01F040EFE8
:1002780001F0FFFF5DEF01F0FFFF89A246EF01F0FB
:100288004BEF01F0FFFF016A012A4DEF01F0FFFF7C
:10029800016AFFFF014689500118FD0B0118896E9C
:1002A800000E0001E16F000EE26F000EE36F000E1A
:1002B800E46FFFFF68921100FFFF50EF12F0FFFF9D
:1002C8004550800B4E6E45504524506E44AE6FEF3E
:1002D80001F072EF01F0FFFF74EF01F0FFFF5080B3
:1002E800FFFF5050D8B47BEF01F07EEF01F0FFFF25
:1002F80097EF01F0FFFF5028D8A485EF01F088EFB1
:1003080001F0FFFF91EF01F0FFFF000E426E000EBB
:10031800436E000E446E000E456EFFFF448E000EC5
:10032800456EA0EF01F0FFFF000E426E000E436E17
:10033800000E446E000E456EFFFF4950800B4F6E55
:100348004E504F18D8B4ABEF01F0AEEF01F0FFFFFD
:10035800B0EF01F0FFFF4E8CFFFF495049244F6E6C
:1003680048AEB9EF01F0BCEF01F0FFFFBEEF01F0BE
:10037800FFFF4F80FFFF4F50D8B4C5EF01F0C8EF23
:1003880001F0FFFFE1EF01F0FFFF4F28D8A4CFEF06
:1003980001F0D2EF01F0FFFFDBEF01F0FFFF000EED
:1003A800466E000E476E000E486E000E496EFFFF47
:1003B800488E000E496EEAEF01F0FFFF000E466E10
:1003C800000E476E000E486E000E496EFFFF50503B
:1003D8004F5CD8B0F2EF01F0F5EF01F0FFFF20EF2E
:1003E80002F0FFFF4EACFBEF01F0FEEF01F0FFFF64
:1003F80001EF02F0FFFF800E4E1AFFFF50C051F0D0
:100408004FC050F051C04FF042C051F046C042F0CA
:1004180051C046F043C051F047C043F051C047F0C7
:1004280044C051F048C044F051C048F045C051F0B4
:1004380049C045F051C049F0FFFF000E516E5050C1
:100448004FC04AF04B6A4A5E000E4B5A4BBE36EF1D
:1004580002F04B500AE11A0E4A5CD8A036EF02F0BF
:1004680039EF02F0FFFF7CEF02F0FFFF425043102C
:1004780044104510D8A443EF02F047EF02F0FFFF05
:10048800010E49EF02F0FFFF000EFFFF516E000E54
:10049800426E000E436E000E446E000E456E4FC055
:1004A80050F087EF02F0FFFF51A05DEF02F060EF20
:1004B80002F0FFFF67EF02F0FFFFD890513001090B
:1004C800516E6AEF02F0FFFFD8905132FFFF42A051
:1004D80070EF02F073EF02F0FFFF75EF02F0FFFF1D
:1004E800518EFFFF45344532443243324232502A5E
:1004F800FFFF4F50505CD8A084EF02F087EF02F066
:10050800FFFF57EF02F0FFFF4EBC8DEF02F090EFB8
:1005180002F0FFFFDDEF02F0FFFF5050D8A497EF85
:1005280002F09AEF02F0FFFFA5EF02F0FFFF000EC6
:10053800426E000E436E000E446E000E456E34EFA0
:1005480004F0FFFF465042264750432248504422B9
:100558004950452245A0B3EF02F0B6EF02F0FFFF85
:1005680081EF03F0FFFF51A0BCEF02F0BFEF02F0F4
:10057800FFFFC6EF02F0FFFFD89051300109516E1E
:10058800C9EF02F0FFFFD8905132FFFF42A0CFEF32
:1005980002F0D2EF02F0FFFFD4EF02F0FFFF518E1E
:1005A800FFFF45344532443243324232502A81EF0C
:1005B80003F0FFFF4650425C4750435848504458A8
:1005C8004550800A4A6E4950800A4A58D8B0EFEF21
:1005D80002F0F2EF02F0FFFF20EF03F0FFFF4250BE
:1005E800465C4A6E435047584B6E445048584C6ED0
:1005F800455049584D6EFF0E4A24426EFF0E4B205F
:10060800436EFF0E4C20446EFF0E4D20456E800E4B
:100618004E1A516C5150D8A414EF03F017EF03F0A1
:10062800FFFF29EF03F0FFFF010E4226000E4322D1
:100638004422452229EF03F0FFFF4650425E47500F
:10064800435A4850445A4950455AFFFF42504310B4
:1006580044104510D8A433EF03F036EF03F0FFFF42
:1006680078EF03F0FFFF5150D8A43DEF03F040EFBF
:1006780003F0FFFF78EF03F0FFFF000E426E000E5D
:10068800436E000E446E000E456E34EF04F0FFFF1B
:10069800D890423643364436453651AE56EF03F0CD
:1006A80059EF03F0FFFF5BEF03F0FFFF4280FFFF0E
:1006B80051A061EF03F064EF03F0FFFF69EF03F06F
:1006C800FFFFD88051366CEF03F0FFFFD89051360A
:1006D800FFFF5050D8B473EF03F076EF03F0FFFF3D
:1006E80078EF03F0FFFF5006FFFF44AE7EEF03F004
:1006F80081EF03F0FFFF4BEF03F0FFFF000E4F6E9B
:1007080051AE89EF03F08CEF03F0FFFFABEF03F07E
:10071800FFFF51C04AF07F0E4A16D8B496EF03F097
:1007280099EF03F0FFFF9FEF03F0FFFFFFFF010EBC
:100738004F6EABEF03F0FFFF42A0A5EF03F0A8EF69
:1007480003F0FFFFABEF03F0FFFF9AEF03F0FFFFAB
:100758004F50D8B4B2EF03F0B5EF03F0FFFFE5EF69
:1007680003F0FFFF010E4226000E432244224522D9
:1007780045A0C1EF03F0C4EF03F0FFFFE5EF03F07E
:10078800FFFF42C04AF043C04BF044C04CF045C0A4
:100798004DF04D344D324C324B324A324AC042F061
:1007A8004BC043F04CC044F04DC045F05028D8B47D
:1007B800E0EF03F0E3EF03F0FFFFE5EF03F0FFFFE7
:1007C800502AFFFF5028D8B4ECEF03F0EFEF03F006
:1007D800FFFFF9EF03F0FFFF5050D8A4F6EF03F046
:1007E800F9EF03F0FFFF0EEF04F0FFFF000E426E7B
:1007F800000E436E000E446E000E456E5050D8A495
:1008080008EF04F00BEF04F0FFFF0EEF04F0FFFF1A
:10081800000E4E6EFFFF50A014EF04F017EF04F027
:10082800FFFF1BEF04F0FFFF448E1DEF04F0FFFFF6
:10083800449EFFFFD8905030456E4EAE26EF04F030
:1008480029EF04F0FFFF2BEF04F0FFFF458EFFFFB9
:1008580042C042F043C043F044C044F045C045F0B4
:10086800FFFF1200FFFFFFFF1350800B1C6E135099
:100878001324226E12AE43EF04F046EF04F0FFFF9C
:1008880048EF04F0FFFF2280FFFF2250D8B44FEF5B
:1008980004F052EF04F0FFFF69EF04F0FFFF222895
:1008A800D8A459EF04F05CEF04F0FFFF65EF04F003
:1008B800FFFF000E106E000E116E000E126E000E7D
:1008C800136EFFFF128E72EF04F0FFFF000E106E22
:1008D800000E116E000E126E000E136EFFFF175001
:1008E800800B1C1A175017241D6E16AE7EEF04F0ED
:1008F80081EF04F0FFFF83EF04F0FFFF1D80FFFF8F
:100908001D50D8B48AEF04F08DEF04F0FFFFA4EF78
:1009180004F0FFFF1D28D8A494EF04F097EF04F02B
:10092800FFFFA0EF04F0FFFF000E146E000E156E1F
:10093800000E166E000E176EFFFF168EADEF04F058
:10094800FFFF000E146E000E156E000E166E000EE0
:10095800176EFFFF1D50D8B4B4EF04F0B7EF04F0E2
:10096800FFFFC1EF04F0FFFF2250D8A4BEEF04F050
:10097800C1EF04F0FFFFCCEF04F0FFFF000E106E94
:10098800000E116E000E126E000E136E86EF06F04A
:10099800FFFF16501002F3CF27F0F4CF28F02750AE
:1009A8001E6E1F6A206A216A2850236E246A256AEF
:1009B800266A15501102F3CF27F0F4CF28F02750FC
:1009C8001E26000E1F222022212228502326000E38
:1009D80024222522262214501202F3CF27F0F4CF26
:1009E80028F027501E26000E1F22202221222850E0
:1009F8002326000E24222522262220C021F01FC0F3
:100A080020F01EC01FF01E6A14501102F3CF27F009
:100A1800F4CF28F027501E2628501F22000E20222F
:100A2800000E212215501002F3CF27F0F4CF28F042
:100A380027501E2628501F22000E2022000E212299
:100A480020C021F01FC020F01EC01FF01E6A1450E5
:100A58001002F3CF27F0F4CF28F027501E26285095
:100A68001F22000E2022000E212216501102F3CF61
:100A780027F0F4CF28F02750232628502422000EF0
:100A88002522000E262215501202F3CF27F0F4CFAC
:100A980028F02750232628502422000E2522000E55
:100AA800262216501202F3CF27F0F4CF28F0275051
:100AB800186E2850196E1A6A1B6A1AC01BF019C0E2
:100AC8001AF018C019F0186A185023261950242251
:100AD8001A5025221B5026221EC018F01FC019F0DC
:100AE80020C01AF021C01BF0190E81EF05F0FFFF9E
:100AF800D8901B321A3219321832FFFFE82E7BEFDA
:100B080005F018502326195024221A5025221B506C
:100B1800262220C021F01FC020F01EC01FF01E6A30
:100B28001D5022C018F0196A1826000E1922820ECC
:100B38001824276EFF0E1920286EBCEF05F0FFFF62
:100B4800D890233624362536263621AEAEEF05F06A
:100B5800B1EF05F0FFFFB3EF05F0FFFF2380FFFFC4
:100B6800D8901E361F36203621362706D8A02806EC
:100B7800FFFF25AEC2EF05F0C5EF05F0FFFFA3EFBD
:100B880005F0FFFF000E1D6E21AECDEF05F0D0EF92
:100B980005F0FFFFFBEF05F0FFFFFF0E1E14186EB8
:100BA800FF0E1F14196EFF0E20141A6E7F0E2114EB
:100BB8001B6E185019101A101B10D8B4E6EF05F068
:100BC800E9EF05F0FFFFEFEF05F0FFFFFFFF010E74
:100BD8001D6EFBEF05F0FFFF23A0F5EF05F0F8EF22
:100BE80005F0FFFFFBEF05F0FFFFEAEF05F0FFFF61
:100BF8001D50D8B402EF06F005EF06F0FFFF2CEF0A
:100C080006F0FFFF010E2326000E242225222622AD
:100C180026A011EF06F014EF06F0FFFF2CEF06F008
:100C2800FFFF23C018F024C019F025C01AF026C011
:100C38001BF01B341B321A321932183218C023F039
:100C480019C024F01AC025F01BC026F0274A282A0C
:100C5800FFFF28BE38EF06F0285009E12728D8A062
:100C680038EF06F03BEF06F0FFFF46EF06F0FFFF18
:100C7800000E236E000E246E800E256E7F0E266EEB
:100C88007BEF06F0FFFF28BE55EF06F0285006E17F
:100C98002704D8B052EF06F055EF06F0FFFF62EFD9
:100CA80006F0FFFF000E236E000E246E000E256E68
:100CB800000E266E000E1C6E7BEF06F0FFFF27C0AD
:100CC80022F0FF0E2316FF0E24167F0E2516000EA7
:100CD800261622A072EF06F075EF06F0FFFF77EFF9
:100CE80006F0FFFF258EFFFFD8902230266EFFFF0B
:100CF8001C50261223C010F024C011F025C012F099
:100D080026C013F0FFFF1200FFFFFFFF2C50800BDF
:100D1800396E2C502C24406E2BAE95EF06F098EFD0
:100D280006F0FFFF9AEF06F0FFFF4080FFFF4050FC
:100D3800D8B4A1EF06F0A4EF06F0FFFFBDEF06F070
:100D4800FFFF4028D8A4ABEF06F0AEEF06F0FFFF98
:100D5800B7EF06F0FFFF000E296E000E2A6E000E98
:100D68002B6E000E2C6EFFFF2B8E000E2C6EC6EF26
:100D780006F0FFFF000E296E000E2A6E000E2B6E85
:100D8800000E2C6EFFFF3050800B391A3050302483
:100D9800416E2FAED2EF06F0D5EF06F0FFFFD7EF8A
:100DA80006F0FFFF4180FFFF4150D8B4DEEF06F0A8
:100DB800E1EF06F0FFFFFAEF06F0FFFF4128D8A4A5
:100DC800E8EF06F0EBEF06F0FFFFF4EF06F0FFFFA9
:100DD800000E2D6E000E2E6E000E2F6E000E306E61
:100DE800FFFF2F8E000E306E03EF07F0FFFF000E9F
:100DF8002D6E000E2E6E000E2F6E000E306EFFFF51
:100E08002D502E102F103010D8A40DEF07F010EF32
:100E180007F0FFFF2AEF07F0FFFF000E296E000E14
:100E28002A6E000E2B6E000E2C6E800E2B127F0E7B
:100E38002C12FFFF39502C1229C029F02AC02AF0A1
:100E48002BC02BF02CC02CF09FEF08F0FFFF405078
:100E5800D8A431EF07F034EF07F0FFFF3FEF07F0BA
:100E6800FFFF000E296E000E2A6E000E2B6E000E7C
:100E78002C6E9FEF08F0FFFF415040C031F0326AFE
:100E8800315E000E325A7F0E31243A6E000E322047
:100E98003B6E29C035F02AC036F02BC037F02CC085
:100EA80038F0000E296E000E2A6E000E2B6E000E12
:100EB8002C6E000E3C6E000E3D6E000E3E6E000E57
:100EC8003F6E000E416EABEF07F0FFFF4150D8B404
:100ED80070EF07F073EF07F0FFFF8EEF07F0FFFFEB
:100EE800D8903536363637363836D89029362A36B9
:100EF8002B362C363FAE83EF07F086EF07F0FFFF67
:100F080088EF07F0FFFF2980FFFFD8903C363D3679
:100F18003E363F36FFFF2D50355C2E5036582F5049
:100F2800375830503858D8A09CEF07F09FEF07F09B
:100F3800FFFFA9EF07F0FFFF3F8C2D50355E2E50C5
:100F4800365A2F50375A3050385AFFFF412AFFFF80
:100F5800190E4164B2EF07F0B5EF07F0FFFF69EF34
:100F680007F0FFFF3550361037103810D8B4BFEFF0
:100F780007F0C2EF07F0FFFFDFEF07F0FFFF3C804D
:100F8800DFEF07F0FFFFD89029362A362B362C36AC
:100F98003FAED1EF07F0D4EF07F0FFFFD6EF07F031
:100FA800FFFF2980FFFFD8903C363D363E363F365E
:100FB8003A06D8A03B06FFFF2BAEE5EF07F0E8EFB7
:100FC80007F0FFFFC6EF07F0FFFF000E416E3FAED0
:100FD800F0EF07F0F3EF07F0FFFF1EEF08F0FFFF59
:100FE800FF0E3C14316EFF0E3D14326EFF0E3E14A0
:100FF800336E7F0E3F14346E31503210331034107C
:10100800D8B409EF08F00CEF08F0FFFF12EF08F072
:10101800FFFFFFFF010E416E1EEF08F0FFFF29A042
:1010280018EF08F01BEF08F0FFFF1EEF08F0FFFFB6
:101038000DEF08F0FFFF4150D8B425EF08F028EF76
:1010480008F0FFFF4FEF08F0FFFF010E2926000E02
:101058002A222B222C222CA034EF08F037EF08F09C
:10106800FFFF4FEF08F0FFFF29C031F02AC032F030
:101078002BC033F02CC034F03434343233323232B3
:10108800313231C029F032C02AF033C02BF034C0DD
:101098002CF03A4A3B2AFFFF3BBE5BEF08F03B507F
:1010A80009E13A28D8A05BEF08F05EEF08F0FFFFEF
:1010B8006AEF08F0FFFF000E3B6E3A68000E296EDB
:1010C800000E2A6E000E2B6E000E2C6EFFFF3BBE2C
:1010D80079EF08F03B5006E13A04D8B076EF08F013
:1010E80079EF08F0FFFF88EF08F0FFFF000E3B6E76
:1010F800000E3A6E000E296E000E2A6E000E2B6E40
:10110800000E2C6E000E396EFFFF3AC040F040A072
:1011180090EF08F093EF08F0FFFF97EF08F0FFFF5C
:101128002B8E99EF08F0FFFF2B9EFFFFD8904030E1
:101138002C6E1DEF07F0FFFF1200FFFFFFFF000EF0
:101148000001CA6F20EED6F010EECFF0060EDBCF0E
:10115800E3FFE806FCE2160ECF6FCFC0CFF0110E0A
:10116800D06FD0C0D0F0000ED16FD1C0D1F0060E34
:10117800D26FD2C0D2F0130ED36FD3C0D3F0040E07
:10118800D46FD4C0D4F0140ED56FD5C0D5F0E5C057
:10119800CDF0E6C0CEF0080ECD6FCDC0CDF0000E7C
:1011A800CE6FCEC0CEF020EEB4F010EEBFF00A0E37
:1011B800DBCFE3FFE806FCE20C0E926E000E936EA6
:1011C800400E946E0F0EC16E89908992000E5C6E6F
:1011D800C20E5D6E010E5E6E000E5F6E000E616ED9
:1011E800000E606E000ED6EC0EF00009D8B4FFEFCA
:1011F80008F002EF09F0FFFF04EF09F0FFFF898014
:10120800FFFFA00E0F6E860E106E010E116E000EFF
:10121800126E000E146E010E136E000EB8EC11F073
:101228000009D8B41AEF09F01DEF09F0FFFF1FEF0E
:1012380009F0FFFF8980FFFF030E026E0F0E036E99
:10124800FF0E046E020EF2EC10F00009D8B42FEF76
:1012580009F032EF09F0FFFF34EF09F0FFFF898052
:10126800FFFF000E036E000E026E000E056E04688E
:10127800000ED4EC12F00009D8B445EF09F048EF9D
:1012880009F0FFFF4AEF09F0FFFF8980FFFFCDC09B
:101298000EF0CEC00FF059EC0EF00009D8B457EF9D
:1012A80009F05AEF09F0FFFF5CEF09F0FFFF8980B2
:1012B800FFFF480E0A6E000EA8EC10F00009D8B423
:1012C80068EF09F06BEF09F0FFFF6DEF09F0FFFF22
:1012D8008980FFFF010E036EF40E026EF4EC11F02C
:1012E800140E026E7F0E036E000E3BEC11F0380EEA
:1012F800066ECAC007F0000E7AEC11F00001CA2B86
:1013080020EECFF000EE15F0060EDBCFEBFFE8067F
:10131800FCE2010E1C6E010E1D6E6FEC13F020EE48
:10132800CFF000EE15F0060EDBCFEBFFE806FCE28F
:10133800020E1C6E010E1D6E000E1E6EAEEC0BF042
:10134800480E096ECB0E0A6E000E0B6E000EF2EC04
:101358000AF0010E156E0A0E166E0001CC51D3EC80
:1013680013F080B4BAEF09F0BDEF09F0FFFFD3EF37
:1013780009F0FFFF000E036E320E026EF4EC11F05E
:1013880080B4C9EF09F0CCEF09F0FFFFD3EF09F003
:10139800FFFFCF0E0B6E000E0C6E7CEC12F0FFFF01
:1013A80080B6D9EF09F0DCEF09F0FFFF6DEF09F027
:1013B800FFFF000E036E320E026EF4EC11F080B6E1
:1013C800E8EF09F0EBEF09F0FFFF6DEF09F0FFFF21
:1013D800CF0E086E000E096EA8EC12F06DEF09F042
:1013E80061EF01F0FFFF0A6E0A50D8B4FEEF09F072
:1013F80001EF0AF0FFFF26EF0AF0FFFF05BE0AEF34
:101408000AF007EF0AF0FFFF26EF0AF0FFFF02C01D
:1014180006F003C007F004C008F005C009F0061E76
:10142800071E081E091E062A000E07220822092286
:1014380006C00CF007C00DF008C00EF009C00FF090
:101448002FEF0AF0FFFF02C00CF003C00DF004C03C
:101458000EF005C00FF0FFFF025003100410051036
:10146800D8A439EF0AF03CEF0AF0FFFF47EF0AF083
:10147800FFFF000E026E000E036E000E046E000EDB
:10148800056EEFEF0AF0FFFF960E0B6E53EF0AF0B2
:10149800FFFF0B2AD8900F320E320D320C32FFFFAD
:1014A800000E0C14066E000E0D14076E000E0E14BE
:1014B800086EFE0E0F14096E06500710081009106A
:1014C800D8A469EF0AF06CEF0AF0FFFF4CEF0AF0BE
:1014D800FFFF7CEF0AF0FFFF0B2A010E0C26000E1F
:1014E8000D220E220F22D8900F320E320D320C32FE
:1014F800FFFF000E0C14066E000E0D14076E000E92
:101508000E14086EFF0E0F14096E0650071008100F
:101518000910D8A492EF0AF095EF0AF0FFFF6FEFD9
:101528000AF0FFFF9FEF0AF0FFFF0B06D8900C367A
:101538000D360E360F36FFFF0EBEA5EF0AF0A8EFE8
:101548000AF0FFFFB2EF0AF0FFFF020E0B60AFEFE9
:101558000AF0B2EF0AF0FFFF98EF0AF0FFFF0BB0B6
:10156800B8EF0AF0BBEF0AF0FFFFBDEF0AF0FFFF8C
:101578000E9EFFFFD8900B320BC006F0076A086A70
:10158800096A06C009F0086A076A066A06500C125A
:1015980007500D1208500E1209500F120A50D8B4F5
:1015A800D8EF0AF0DBEF0AF0FFFFE6EF0AF0FFFFE3
:1015B80005BEE4EF0AF0E1EF0AF0FFFFE6EF0AF0FC
:1015C800FFFF0F8EFFFF0CC002F00DC003F00EC02E
:1015D80004F00FC005F0FFFF1200FFFFFFFF136EBE
:1015E800000E116E000E126E13505AEC14F0000922
:1015F800D8B401EF0BF004EF0BF0FFFF07EF0BF08F
:10160800FFFFABEF0BF0FFFF09500924FE0B036E41
:10161800135069EC14F00009D8B415EF0BF018EF6B
:101628000BF0FFFF1BEF0BF0FFFFABEF0BF0FFFF23
:10163800000E036E135069EC14F00009D8B427EFBC
:101648000BF02AEF0BF0FFFF2DEF0BF0FFFFABEFD6
:101658000BF0FFFF13503CEC14F00009D8B437EF3F
:101668000BF03AEF0BF0FFFF3DEF0BF0FFFFABEF96
:101678000BF0FFFFD8800934036E135069EC14F0A7
:101688000009D8B44AEF0BF04DEF0BF0FFFF50EF15
:101698000BF0FFFFABEF0BF0FFFF000E046E110E17
:1016A800056E000E066E1350F1EC13F00009D8B465
:1016B80060EF0BF063EF0BF0FFFF66EF0BF0FFFF3F
:1016C800ABEF0BF0FFFF010E046E120E056E000E5D
:1016D800066E1350F1EC13F00009D8B476EF0BF056
:1016E80079EF0BF0FFFF7CEF0BF0FFFFABEF0BF098
:1016F800FFFF13504BEC14F00009D8B486EF0BF041
:1017080089EF0BF0FFFF8CEF0BF0FFFFABEF0BF057
:10171800FFFF1150106E0F6A12500F100C6E000E62
:1017280010100D6E040E0E6EFFFFD8900D320C32A5
:101738000E2E98EF0BF00CC00FF00DC010F00AC081
:10174800D9FF0BC0DAFF0FC0DEFF10C0DDFFFFFFBF
:101758001200FFFFFFFF20EE98F010EE3BF00D0E99
:10176800DBCFE3FFE806FCE220EE80F010EE23F08A
:10177800170EDBCFE3FFE806FCE21E50D8A4C7EF44
:101788000BF0CAEF0BF0FFFF40EF0CF0FFFF1DC09E
:101798000EF01C50FEEC0FF018C002F0036A490E60
:1017A800046E000E056E1FEC0DF0080E4960DFEFA9
:1017B8000BF0E2EF0BF0FFFFECEF0BF0FFFF4950EF
:1017C800D8A4E9EF0BF0ECEF0BF0FFFFEFEF0BF015
:1017D800FFFF010E496EFFFFFE0E1F6EFF0E206E0B
:1017E8004950216E226AD890213622361F50212670
:1017F800205022223B0E2124D96E000E2220DA6EC0
:10180800DECF0EF0DDCF0FF0FCEC12F06F0E0E6E97
:101818007E0E0F6EFCEC12F019C00EF00F6A92ECFF
:1018280013F06F0E0E6E7E0E0F6EFCEC12F01AC0E7
:1018380002F0036A490E046E000E056E1FEC0DF0EF
:10184800FE0E1F6EFF0E206E4950216E226AD89040
:10185800213622361F50212620502222230E2124F1
:10186800D96E000E2220DA6EDECF0EF0DDCF0FF03B
:10187800FCEC12F067EF0CF0FFFF1DC00EF01C50DF
:10188800FEEC0FF019C00EF00F6A92EC13F0FA0E8E
:101898000E6E7F0E0F6EFCEC12F01AC00EF00F6A7F
:1018A80092EC13F0FA0E0E6E7F0E0F6EFCEC12F037
:1018B8001BC00EF00F6A92EC13F06F0E0E6E7E0EC8
:1018C8000F6EFCEC12F0FFFF1200FFFFFFFF0AB0E3
:1018D80002D08A9A01D08A8A08C00BF009C00CF09D
:1018E800070E0D6EFFFFD8900C320B320D2E76EFDF
:1018F8000CF0010E0B160B460B460B468A500B18C4
:10190800F70B0B188A6E08C00BF009C00CF0060E16
:101918000D6EFFFFD8900C320B320D2E8DEF0CF0B0
:10192800010E0B160B460B468A500B18FB0B0B18B7
:101938008A6E08C00BF009C00CF0050E0D6EFFFF93
:10194800D8900C320B320D2EA3EF0CF0010E0B16B3
:101958000B468A500B18FD0B0B188A6E08C00BF04B
:1019680009C00CF0040E0D6EFFFFD8900C320B323C
:101978000D2EB8EF0CF0010E0B168A500B18FE0B4B
:101988000B188A6E8A88000E036E010E026E0DEC2B
:1019980014F08A9808C00BF009C00CF0D8900C32EB
:1019A8000B32D8900C320B32D8900C320B32010E1D
:1019B8000B160B460B460B468A500B18F70B0B18E9
:1019C8008A6E08C00BF009C00CF0D8900C320B32AC
:1019D800D8900C320B32010E0B160B460B468A5070
:1019E8000B18FB0B0B188A6ED89009300C6E083058
:1019F8000B6E010E0B160B468A500B18FD0B0B18BD
:101A08008A6E08C00BF0010E0B168A500B18FE0BDD
:101A18000B188A6E8A88000E036E010E026E0DEC9A
:101A280014F08A98000E036E320E026E0DEC14F05C
:101A3800000E1200FFFFFFFF04C0D9FF05C0DAFF48
:101A4800000EDF6E20EE01F00450D9260550DA2290
:101A5800000EDF6E20EE02F00450D9260550DA227F
:101A6800000EDF6E20EE03F00450D9260550DA226E
:101A7800000EDF6E20EE04F00450D9260550DA225D
:101A8800000EDF6E54EF0DF0FFFF20EE04F004505F
:101A9800D9260550DA22DF2A100E025E270E035AD5
:101AA800FFFF100E025C270E0358D8B05EEF0DF052
:101AB80061EF0DF0FFFF48EF0DF0FFFF70EF0DF045
:101AC800FFFF20EE03F00450D9260550DA22DF2A62
:101AD800E80E025E030E035AFFFFE80E025C030ED7
:101AE8000358D8B07AEF0DF07DEF0DF0FFFF64EFEB
:101AF8000DF0FFFF8CEF0DF0FFFF20EE02F0045019
:101B0800D9260550DA22DF2A640E025E000E035A37
:101B1800FFFF035007E1640E025CD8B096EF0DF0AA
:101B280099EF0DF0FFFF80EF0DF0FFFFA8EF0DF02C
:101B3800FFFF20EE01F00450D9260550DA22DF2AF3
:101B48000A0E025E000E035AFFFF035007E10A0E59
:101B5800025CD8B0B2EF0DF0B5EF0DF0FFFF9CEFCF
:101B68000DF0FFFF04C0D9FF05C0DAFF02C0DFFF98
:101B78001200FFFFFFFF543455345B6E5B50D8A44E
:101B8800C8EF0DF0CBEF0DF0FFFFD7EF0DF0FFFF23
:101B9800FFFF000E526E000E536E000E546E000EC4
:101BA800556E56EF0EF0FFFF52C056F053C057F077
:101BB80054C058F055C059F0200EE9EF0DF0FFFF62
:101BC800D8905932583257325632FFFFE82EE3EF99
:101BD8000DF056505A6E548EFF0E5216FF0E5316C5
:101BE800FF0E5416000E5516960E5B5E5BBE02EF96
:101BF8000EF0FFEF0DF0FFFF1CEF0EF0FFFF5B5044
:101C0800800A970FD8B00BEF0EF00EEF0EF0FFFF23
:101C180011EF0EF0FFFFCCEF0DF0FFFFD89055321B
:101C28005432533252325B3E11EF0EF03AEF0EF05F
:101C3800FFFF1F0E5B6423EF0EF026EF0EF0FFFF91
:101C480030EF0EF0FFFFCCEF0DF0FFFFD8905236CB
:101C58005336543655365B06FFFF5B50D8A437EF32
:101C68000EF03AEF0EF0FFFF29EF0EF0FFFF5A508B
:101C7800D8B441EF0EF044EF0EF0FFFF4DEF0EF039
:101C8800FFFF551E541E531E526C000E5322542241
:101C98005522FFFF52C052F053C053F054C054F0C5
:101CA80055C055F0FFFF1200FFFFFFFF939A93986E
:101CB8009390939293949396000E036E3C0E026E4B
:101CC800F4EC11F0000E096E030E086E000E0A6E99
:101CD80058EC10F0000E036E140E026EF4EC11F0C6
:101CE800000E096E030E086E000E0A6E58EC10F016
:101CF800000E036E010E026EF4EC11F0000E096E78
:101D0800030E086E000E0A6E58EC10F0000E096EF5
:101D1800020E086E000E0A6E58EC10F00F500E10EE
:101D2800106E116A200E1010086E1150096E000E08
:101D38000A6E6AEC0CF0000E096E140E086E000EA6
:101D48000A6E6AEC0CF0000E096E0C0E086E000E9E
:101D58000A6E6AEC0CF0000E096E060E086E000E94
:101D68000A6E6AEC0CF0000E036E010E026EF4ECC3
:101D780011F0000E096E010E086E000E0A6E6AEC74
:101D88000CF0000E096E800E086E000E0A6E6AECEA
:101D98000CF0000E036E010E026EF4EC11F0000E52
:101DA8001200FFFFFFFF626E000E466E000E476EC8
:101DB800800E486EBF0E496E000E146E000E156E32
:101DC800800E166E410E176E5CC002F05DC003F007
:101DD8005EC004F05FC005F0000EF6EC09F002C02A
:101DE80010F003C011F004C012F005C013F037EC76
:101DF80004F010C02DF011C02EF012C02FF013C047
:101E080030F0800E296E960E2A6E180E2B6E4B0E31
:101E18002C6E89EC06F029C042F02AC043F02BC092
:101E280044F02CC045F063EC01F042C052F043C0CE
:101E380053F044C054F045C055F0BEEC0DF052507C
:101E4800AF6E6250D8A42BEF0FF02EEF0FF0FFFF0C
:101E580035EF0FF0FFFFAC84AC8AAB8EAB88948E65
:101E6800949CFFFF000E036E1E0E026EF4EC11F040
:101E7800000E1200FFFFFFFF096E09505AEC14F024
:101E88000009D8B44AEF0FF04DEF0FF0FFFF52EF03
:101E98000FF0FFFFFFFF010E9CEF0FF0FFFF065052
:101EA8000624FE0B036E095069EC14F00009D8B43F
:101EB80060EF0FF063EF0FF0FFFF66EF0FF0FFFF2B
:101EC8004EEF0FF0FFFF07C003F0095069EC14F064
:101ED8000009D8B472EF0FF075EF0FF0FFFF78EF3D
:101EE8000FF0FFFF4EEF0FF0FFFF08C003F009509F
:101EF80069EC14F00009D8B484EF0FF087EF0FF005
:101F0800FFFF8AEF0FF0FFFF4EEF0FF0FFFF0950C2
:101F18004BEC14F00009D8B494EF0FF097EF0FF0E2
:101F2800FFFF9AEF0FF0FFFF4EEF0FF0FFFF000EDD
:101F3800FFFF1200FFFFFFFF000E0A6E000E0B6E80
:101F4800000E0C6E000E0D6E0650071008100910DA
:101F5800D8B4B1EF0FF0B4EF0FF0FFFFF3EF0FF0CD
:101F6800FFFF010E0E6EC0EF0FF0FFFFD890063690
:101F78000736083609360E2AFFFF09AEC6EF0FF0FE
:101F8800C9EF0FF0FFFFB9EF0FF0FFFFFFFFD89089
:101F98000A360B360C360D360650025C07500358CD
:101FA8000850045809500558D8A0DDEF0FF0E0EFAD
:101FB8000FF0FFFFEAEF0FF0FFFF0650025E075039
:101FC800035A0850045A0950055A0A80FFFFD8904E
:101FD80009320832073206320E2ECAEF0FF0FFFF21
:101FE8000AC002F00BC003F00CC004F00DC005F0ED
:101FF8001200FFFFFFFF116E36EF10F0FFFF7F0E9C
:102008000E24086E096A000E0922000E0A6E6AEC98
:102018000CF055EF10F0FFFFBF0E0E24086E096A92
:10202800000E0922000E0A6E6AEC0CF055EF10F053
:10203800FFFF930E0E24086E096A000E0922000E97
:102048000A6E6AEC0CF055EF10F0FFFFD30E0E2469
:10205800086E096A000E0922000E0A6E6AEC0CF07E
:1020680055EF10F0FFFF11500F6E106A1050000A64
:10207800D8B441EF10F055EF10F0FFFF0F50010AF0
:10208800D8B402EF10F0030AD8B40FEF10F0010A29
:10209800D8B41CEF10F0070AD8B429EF10F055EFA8
:1020A80010F0FFFF1200FFFFFFFF0AB002D08A9A6C
:1020B80001D08A8A08C00BF009C00CF0D8900C3205
:1020C8000B32D8900C320B32D8900C320B32010EF6
:1020D8000B160B460B460B468A500B18F70B0B18C2
:1020E8008A6E08C00BF009C00CF0D8900C320B3285
:1020F800D8900C320B32010E0B160B460B468A5049
:102108000B18FB0B0B188A6ED89009300C6E083030
:102118000B6E010E0B160B468A500B18FD0B0B1895
:102128008A6E08C00BF0010E0B168A500B18FE0BB6
:102138000B188A6E8A88000E036E010E026E0DEC73
:1021480014F08A981200FFFFFFFF0B6E0AC006F01A
:10215800010E076E600E086E0B503FEC0FF0000981
:10216800D8B4B9EF10F0BCEF10F0FFFFC1EF10F0DA
:10217800FFFFFFFF010EEFEF10F0FFFF0AC006F0B0
:10218800020E076E000E086E0B503FEC0FF00009B0
:10219800D8B4D1EF10F0D4EF10F0FFFFD7EF10F064
:1021A800FFFFBDEF10F0FFFF0AC006F0030E076E39
:1021B800300E086E0B503FEC0FF00009D8B4E7EF73
:1021C80010F0EAEF10F0FFFFEDEF10F0FFFFBDEFAA
:1021D80010F0FFFF000EFFFF1200FFFFFFFF066E6B
:1021E8000650D8A4FAEF10F0FDEF10F0FFFF02EF51
:1021F80011F0FFFFFFFF010E38EF11F0FFFF06049B
:10220800D8A409EF11F00CEF11F0FFFF0FEF11F058
:10221800FFFFFEEF10F0FFFF020E0618D8A417EF1D
:1022280011F01AEF11F0FFFF33EF11F0FFFF9D825D
:10223800F28EF28C04C0CBFFCA500218FC0B0218B5
:10224800CA6E03C005F0054605460546CA5005187E
:10225800870B0518CA6ECA84D08E36EF11F0FFFFBF
:10226800FEEF10F0FFFF000EFFFF1200FFFFFFFF61
:102278005CEF11F0FFFFACA244EF11F047EF11F053
:10228800FFFF3EEF11F0FFFF02C0F6FF03C0F7FFAC
:10229800F86A050EF76404D00800FFFFF55005D072
:1022A800F6CFE9FFF7CFEAFFEF50AD6E024A032AF7
:1022B800FFFF02C0F6FF03C0F7FFF86A050EF764D8
:1022C80004D00800FFFFF55005D0F6CFE9FFF7CF9F
:1022D800EAFFEF500009D8A474EF11F077EF11F07E
:1022E800FFFF3EEF11F0FFFF1200FFFFFFFF086E38
:1022F80008505AEC14F00009D8B485EF11F088EFB3
:1023080011F0FFFF8BEF11F0FFFFB5EF11F0FFFFAA
:1023180006500624FE0B036E085069EC14F0000901
:10232800D8B499EF11F09CEF11F0FFFF9FEF11F077
:10233800FFFFB5EF11F0FFFF07C003F0085069EC8D
:1023480014F00009D8B4ABEF11F0AEEF11F0FFFFB5
:10235800B1EF11F0FFFFB5EF11F0FFFF08504BECA4
:1023680014F0FFFF1200FFFFFFFF196E1950D8A4E9
:10237800C0EF11F0C3EF11F0FFFFEAEF11F0FFFF1C
:10238800800E026E960E036E980E046E000E056E99
:102398000FC006F010C007F011C008F012C009F015
:1023A8009FEC0FF0FF0E0224156EFF0E0320166E31
:1023B800FF0E0420176EFF0E0520186EC650F00B96
:1023C8000809C66EC68A15C0C8FFC78EFFFF000E73
:1023D800036E0A0E026EF4EC11F0000E1200FFFFFD
:1023E800FFFF02C004F003C005F0FFFF0450051012
:1023F800D8A401EF12F004EF12F0FFFF07EF12F07C
:10240800FFFF20EF12F0FFFF000E076E7C0E066E36
:10241800FFFF0606D8A0070606500710D8A417EF36
:1024280012F01AEF12F0FFFF0CEF12F0FFFF040694
:10243800D8A00506F9EF11F0FFFF1200FFFFFFFF1C
:10244800FFFFC7B42AEF12F02DEF12F0FFFF24EFC1
:1024580012F0FFFF000E026EFFFFC5BC36EF12F050
:1024680039EF12F0FFFF3EEF12F0FFFFFFFF000E03
:102478004DEF12F0FFFF022A630E026446EF12F0DE
:1024880049EF12F0FFFF30EF12F0FFFF9E963AEF90
:1024980012F0FFFF1200FFFF660EF66E270EF76EB2
:1024A800000EF86E00EE80F010EE3FF00900F5CF58
:1024B800EEFFE550E150FAE101EE00F011EE00F018
:1024C800EE6AE550E150FCE1E250FAE100EED6F0A8
:1024D800130EEE6AE806FDE1676A666A656A646A71
:1024E800636A68906892000EF86E0001A2EF08F027
:1024F800FFFF20EE02F00B50D9260C50DA223A0EDC
:10250800DF6489EF12F08CEF12F0FFFF9DEF12F0FD
:10251800FFFF20EE02F00B50D9260C50DA22000EF5
:10252800DF6E0BC008F00CC009F0A8EC12F0A5EFA4
:1025380012F0FFFF20EE02F00B50D9260C50DA22E1
:10254800DF2AFFFF1200FFFFFFFF20EE01F0085017
:10255800D9260950DA223A0EDF64B5EF12F0B8EF47
:1025680012F0FFFFC9EF12F0FFFF20EE01F0085054
:10257800D9260950DA22000EDF6E08C005F009C01E
:1025880006F023EC13F0D1EF12F0FFFF20EE01F07C
:102598000850D9260950DA22DF2AFFFF1200FFFF70
:1025A800FFFF066E0650D8A4DCEF12F0DFEF12F042
:1025B800FFFFE4EF12F0FFFF0F0EBD12F7EF12F06E
:1025C800FFFF0604D8A4EBEF12F0EEEF12F0FFFFC6
:1025D800F3EF12F0FFFF0F0EBA12F7EF12F0FFFF42
:1025E800010EF9EF12F0FFFF000EFFFF1200FFFFD0
:1025F800FFFF0FEF13F0FFFF0EC0F6FF0FC0F7FF4E
:102608000800FFFFF550086E096A010E0A6E6AECB1
:102618000CF00E4A0F2AFFFF0EC0F6FF0FC0F7FF9F
:102628000800FFFFF5500009D8A41DEF13F020EFB4
:1026380013F0FFFFFFEF12F0FFFF1200FFFFFFFF95
:1026480005C0D9FF06C0DAFF160EDF642EEF13F0BF
:1026580031EF13F0FFFF40EF13F0FFFF05C0D9FF84
:1026680006C0DAFF000EDF6E05C002F006C003F0F8
:1026780049EC13F046EF13F0FFFF05C0D9FF06C081
:10268800DAFFDF2AFFFF1200FFFFFFFF20EE04F052
:102698000250D9260350DA22160EDF6456EF13F0E3
:1026A80059EF13F0FFFF64EF13F0FFFF20EE04F083
:1026B8000250D9260350DA22000EDF6E6CEF13F0B9
:1026C800FFFF20EE04F00250D9260350DA22DF2A59
:1026D800FFFF1200FFFFFFFF1DC00EF01C50FEECB5
:1026E8000FF015C00EF00F6A92EC13F0FC0E0E6E90
:1026F8007F0E0F6EFCEC12F016C00EF00F6A92EC13
:1027080013F0FC0E0E6E7F0E0F6EFCEC12F017C06D
:102718000EF00F6A92EC13F01200FFFFFFFF0EC0DD
:1027280002F00FC003F0100E046E000E056E1FECD1
:102738000DF0300E1124086E096A000E0922010EF0
:102748000A6E6AEC0CF0300E1024086E096A000E4E
:102758000922010E0A6E6AEC0CF01200FFFFBF7F1F
:10276800A37FD37FD77FEB7FC77FBB7FB37FCF7F2D
:10277800DF7FE77FA77FC37FAF7FAB7FE37FB77F35
:10278800DB7FCB7F2B7F0C7FE67E037F247FFA7E67
:0D279800327F407924301912027800103F82
:1027A600FFFF176E16C00EF01550FEEC0FF017C0A7
:1027B6000EF00F6A92EC13F0000E096EDF0E086E33
:1027C600010E0A6E6AEC0CF0000E096E430E086EDE
:1027D600010E0A6E6AEC0CF01200FFFFFFFF086E96
:1027E600C586FFFF9EA6FAEF13F0FDEF13F0FFFF7D
:1027F600F4EF13F0FFFF9E9604C002F0085029EC98
:1028060014F005C0D9FF06C0DAFFC9CFDFFF010EFD
:102816001200FFFFFFFF02C004F003C005F0FFFF38
:1028260004500510D8A41AEF14F01DEF14F0FFFFA2
:1028360020EF14F0FFFF26EF14F0FFFF0406D8A0E8
:10284600050612EF14F0FFFF1200FFFFFFFF02B0B4
:1028560002D0C59A01D0C58AC588FFFFC5B836EF34
:1028660014F039EF14F0FFFF30EF14F0FFFF120001
:10287600FFFFFFFFC582FFFFC5B244EF14F047EF2D
:1028860014F0FFFF3EEF14F0FFFF000E1200FFFFF3
:10289600FFFFC584FFFFC5B453EF14F056EF14F0E5
:1028A600FFFF4DEF14F0FFFF000E1200FFFFFFFFCA
:1028B600C580FFFFC5B062EF14F065EF14F0FFFFAF
:1028C6005CEF14F0FFFF000E1200FFFFFFFF046E27
:1028D60003C0C9FF9E96045023EC12F0056E055006
:0628E6001200FFFFFFFFDE
:107E4A00000A0A2D2D2D2D2D2D2044756D70206FC1
:107E5A0066204932432043686970202D2D2D2D2D2F
:107E6A002D0A20202020000A0D2D2D2D2D2D2D200C
:107E7A005363616E206F6620493243204275732036
:107E8A002D2D2D2D2D2D0A2020202000203A206472
:107E9A0065766963652063757272656E746C7920A4
:107EAA006E6F7420737570706F727465640A002047
:107EBA003A20756E6B6E6F776E20636F6D6D616EB3
:107ECA00640A00726F6F74407069633A7E232000FF
:107EDA0074656D7065726174757265005765646E5C
:107EEA0065736461790069326364657465637400FB
:107EFA005361747572646179005468757273646150
:107F0A0079005475657364617900636F75636F7581
:107F1A00200069326364756D700046726964617924
:107F2A00004D6F6E6461790053756E646179006902
:107F3A0032636765740069326373657400726562DF
:107F4A006F6F7400303030300031303030003031F3
:107F5A0030300031313030003030313000313031A2
:107F6A003000303131300031313130003030303191
:107F7A0000313030310030313031003131303100B0
:107F8A00303031310031303131003031313100316E
:107F9A00313131006461746500466562004465638D
:107FAA00005765640054756500417567004672693B
:107FBA00004A756C004A616E004D6F6E004A756E1C
:107FCA000053756E00536570004D61720041707206
:107FDA0000536174004F637400546875004E6F76E5
:107FEA00004D6179002D2D2000303A20000A0A0048
:057FFA002F003A000019
:020000040020DA
:08000000FFFFFFFFFFFFFFFF00
:020000040030CA
:0E000000FF220D0EFF0181FF0FC00FE00F4029
:00000001FF
