:020000040000fa
:080000000002040000000000f2
:020000040000fa
:0400080002040000ee
:020000040000fa
:04000c0002040000ea
:020000040000fa
:0400100002040000e6
:020000040000fa
:0400140002040000e2
:020000040000fa
:0400180002040000de
:020000040000fa
:04001c0002040000da
:020000040000fa
:0400200002040000d6
:020000040000fa
:0400240002040000d2
:020000040000fa
:0400280002040000ce
:020000040000fa
:04002c0002040000ca
:020000040000fa
:0400300002040000c6
:020000040000fa
:04003400ee020000d8
:020000040000fa
:0400380002040000be
:020000040000fa
:04003c0002040000ba
:020000040000fa
:0400400002040000b6
:020000040000fa
:0400440012030000a3
:020000040000fa
:04004800360300007b
:020000040000fa
:04004c0002040000aa
:020000040000fa
:0400500002040000a6
:020000040000fa
:04005400c8020000de
:020000040000fa
:04005800020400009e
:020000040000fa
:04005c00020400009a
:020000040000fa
:040060000204000096
:020000040000fa
:040064000204000092
:020000040000fa
:04006800a2030000ef
:020000040000fa
:04006c00fa03000093
:020000040000fa
:040070000204000086
:020000040000fa
:040074000204000082
:020000040000fa
:04007800020400007e
:020000040000fa
:04007c00020400007a
:020000040000fa
:040080000204000076
:020000040000fa
:040084000204000072
:020000040000fa
:04008800020400006e
:020000040000fa
:04008c00020400006a
:020000040000fa
:040090000204000066
:020000040000fa
:040094005a0300000b
:020000040000fa
:040098007e030000e3
:020000040000fa
:04009c00020400005a
:020000040000fa
:0400a0000204000056
:020000040000fa
:0400a4000204000052
:020000040000fa
:0400a800020400004e
:020000040000fa
:0400ac00020400004a
:020000040000fa
:0400b0000204000046
:020000040000fa
:0400b4000204000042
:020000040000fa
:0400b800020400003e
:020000040000fa
:0400bc00020400003a
:020000040000fa
:0400c0000204000036
:020000040000fa
:0400c4000204000032
:020000040000fa
:0400c800020400002e
:020000040000fa
:0400cc00020400002a
:020000040000fa
:0400d0000204000026
:020000040000fa
:0400d4000204000022
:020000040000fa
:0400d800020400001e
:020000040000fa
:0400dc00020400001a
:020000040000fa
:0400e0000204000016
:020000040000fa
:0400e4000204000012
:020000040000fa
:0400e800020400000e
:020000040000fa
:0400ec00020400000a
:020000040000fa
:0400f0000204000006
:020000040000fa
:0400f4000204000002
:020000040000fa
:0400f80002040000fe
:020000040000fa
:0400fc0002040000fa
:020000040000fa
:0401000002040000f5
:020000040000fa
:0401040002040000f1
:020000040000fa
:0401080002040000ed
:020000040000fa
:04010c0002040000e9
:020000040000fa
:0401100002040000e5
:020000040000fa
:0401140002040000e1
:020000040000fa
:0401180002040000dd
:020000040000fa
:04011c0002040000d9
:020000040000fa
:0401200002040000d5
:020000040000fa
:0401240002040000d1
:020000040000fa
:0401280002040000cd
:020000040000fa
:04012c0002040000c9
:020000040000fa
:0401300002040000c5
:020000040000fa
:0401340002040000c1
:020000040000fa
:0401380002040000bd
:020000040000fa
:04013c0002040000b9
:020000040000fa
:0401400002040000b5
:020000040000fa
:0401440002040000b1
:020000040000fa
:0402080002040000ec
:020000040000fa
:04020c0002040000e8
:020000040000fa
:0402100002040000e4
:020000040000fa
:0402140002040000e0
:020000040000fa
:0402180002040000dc
:020000040000fa
:04021c0002040000d8
:020000040000fa
:0402200002040000d4
:020000040000fa
:0402240002040000d0
:020000040000fa
:0402280002040000cc
:020000040000fa
:04022c0002040000c8
:020000040000fa
:0402300002040000c4
:020000040000fa
:0402340002040000c0
:020000040000fa
:0402380002040000bc
:020000040000fa
:04023c0002040000b8
:020000040000fa
:0402400002040000b4
:020000040000fa
:0402440002040000b0
:020000040000fa
:0402480002040000ac
:020000040000fa
:04024c0002040000a8
:020000040000fa
:0402500002040000a4
:020000040000fa
:0402540002040000a0
:020000040000fa
:04025800020400009c
:020000040000fa
:04025c000204000098
:020000040000fa
:040260000204000094
:020000040000fa
:040264000204000090
:020000040000fa
:04026800020400008c
:020000040000fa
:04026c000204000088
:020000040000fa
:040270000204000084
:020000040000fa
:040274000204000080
:020000040000fa
:04027800020400007c
:020000040000fa
:04027c000204000078
:020000040000fa
:040280000204000074
:020000040000fa
:040284000204000070
:020000040000fa
:04028800020400006c
:020000040000fa
:04028c000204000068
:020000040000fa
:040290000204000064
:020000040000fa
:040294000204000060
:020000040000fa
:04029800020400005c
:020000040000fa
:04029c000204000058
:020000040000fa
:0402a0000204000054
:020000040000fa
:0402a4000204000050
:020000040000fa
:0402a800020400004c
:020000040000fa
:0402ac000204000048
:020000040000fa
:0402b0000204000044
:020000040000fa
:0402b4000204000040
:020000040000fa
:0402b800020400003c
:020000040000fa
:0402bc000204000038
:020000040000fa
:0402c0000204000034
:020000040000fa
:0402c4000204000030
:020000040000fa
:0402c800020400002c
:020000040000fa
:0402cc000204000028
:020000040000fa
:0402d0000204000024
:020000040000fa
:0402d4000204000020
:020000040000fa
:0402d800020400001c
:020000040000fa
:0402dc000204000018
:020000040000fa
:0402e0000204000014
:020000040000fa
:0402e4000204000010
:020000040000fa
:0402e800020400000c
:020000040000fa
:0402ec000204000008
:020000040000fa
:0402f0000204000004
:020000040000fa
:0402f4000204000000
:020000040000fa
:0402f80002040000fc
:020000040000fa
:0402fc0002040000f8
:020000040000fa
:0403000002040000f3
:020000040000fa
:0403040002040000ef
:020000040000fa
:0403080002040000eb
:020000040000fa
:04030c0002040000e7
:020000040000fa
:0403100002040000e3
:020000040000fa
:0403140002040000df
:020000040000fa
:0403180002040000db
:020000040000fa
:04031c0002040000d7
:020000040000fa
:0403200002040000d3
:020000040000fa
:0403240002040000cf
:020000040000fa
:0403280002040000cb
:020000040000fa
:04032c0002040000c7
:020000040000fa
:0403300002040000c3
:020000040000fa
:0403340002040000bf
:020000040000fa
:0403380002040000bb
:020000040000fa
:04033c0002040000b7
:020000040000fa
:0403400002040000b3
:020000040000fa
:0403440002040000af
:020000040000fa
:100400006fd221000eff27000e01880000000000bf
:10041000000020000000e000020032000001200087
:100420002002880014000700f80007000000e00028
:1004300003003a0080142100010020000200370070
:100440000000200001002000810f70000100320038
:1004500014000700000020000000e000020032004d
:100460000000020000000000884e020000000000b2
:100470000040da000000fe004440a900e0b1200086
:100480000000e0000300320000002000a00188000e
:100490004440a800000006008a1f78008b1f7800e7
:1004a0000000060091018800800478000000eb0045
:1004b0001a003700e284440032a0b4009905ba0063
:1004c000e284440032a0b4009906ba00e2844400f9
:1004d00032a0b4000006eb00476fde00fd07b2005b
:1004e000636ce10003003a00ebff07000000eb0043
:1004f0000a003700606ce10004003a00005deb0088
:100500008b05e900fdff3e00040037006168e10053
:10051000010032000086eb000b00070019c7ba008b
:100520001905ba000e04e00003003a000a00e000da
:10053000e0ff3a0000000600fe07b2009e018800be
:100540008a047800f5ff3700395dba008b05e900b1
:100550000c003200295dba008b05e900080032006a
:100560000c00e00003003a00e284440032a0b40032
:10057000f5ff370019ddba008b05e900faff3a00f4
:100580008904e800e184440032a0b40000000600c1
:100590003600f800809fbe00829fbe00849fbe0090
:1005a000869fbe000000fa0010118000610060000c
:1005b0000000e00001003200df2607008560a9008e
:1005c0000080fa004f03be004f02be004f01be0084
:1005d0004f00be003600f900004006003600f8006b
:1005e000809fbe00829fbe00849fbe00869fbe008b
:1005f0000000fa008460a90005e1a900a826070010
:100600000021ef0005e1a8000080fa004f03be00c2
:100610004f02be004f01be004f00be003600f90081
:10062000004006003600f800809fbe00829fbe009a
:10063000849fbe00869fbe000000fa0084e0a900ef
:1006400011e1a900992607000621ef0011e1a80099
:100650000080fa004f03be004f02be004f01be00f3
:100660004f00be003600f900004006003600f800da
:10067000809fbe00829fbe00849fbe00869fbe00fa
:100680000000fa008500a90013e1a9008a260700ee
:100690000a21ef0013e1a8000080fa004f03be001a
:1006a0004f02be004f01be004f00be003600f900f1
:1006b000004006003600f800809fbe00829fbe000a
:1006c000849fbe00869fbe000000fa008760a900dc
:1006d0001fe1a9007b2607001421ef001fe1a800fd
:1006e0000080fa004f03be004f02be004f01be0063
:1006f0004f00be003600f900004006003600f8004a
:10070000809fbe00829fbe00849fbe00869fbe0069
:100710000000fa008780a90021e1a9006c260700eb
:100720001821ef0021e1a8000080fa004f03be006d
:100730004f02be004f01be004f00be003600f90060
:1007400000400600809fbe000200fa0040108000ba
:10075000640060000000e00008003a0041108000e2
:1007600000022000008060000000e00003003a006a
:1007700000108000004f78001a0037004010800001
:10078000640060000000e00005003a0041108000b5
:1007900000022000008060000000e00011003a002c
:1007a00040108000640060000000e0000d00320096
:1007b0004110800000022000008060000000e00086
:1007c00008003a0000108000004f78000782a8005f
:1007d0000000000040108000610060000000e000a8
:1007e000fcff3a008600a9000080fa004f00be001e
:1007f000004006000000fa008620a9000080fa00f0
:10080000004006000040da000000fe000000050085
:1008100003f0a200889fbe008a9fbe008c1f780054
:10082000850007008c0033006450e1004f00320067
:100830006420e1005200320003826c0007003b009c
:100840000905d0000306d000820f54000c065d009d
:1008500002003900020032008901780003067800a6
:100860008582550004003d000003fd008103fd006a
:100870008502ea008b854200840f720002003b0073
:1008800060001000e08018006011b8000005eb0067
:100890007a28e1000a00390006007800c75ddd0013
:1008a000f707b200878075002d0037008281710044
:1008b0000a017800610560008180d1000080d300ca
:1008c0008502e900f9ff3b000604400087844800e8
:1008d00002003b0060041400e0841c000988a300af
:1008e000070032008a817100828171006101640019
:1008f0008904d1000884d3008b05e8001700370075
:100900000978a30013003a000b00e0001300340044
:100910008b05e9000804440089844c000a447400f3
:100920000978a3000d003a000b00e0000700340036
:100930008b05e9000804440089844c0001003a005a
:100940000b0020000978a300f7ff32000001eb0044
:1009500002003700828171000a0178001000070050
:100960000cf0a70001f0a000440037006420e10073
:1009700002003a00838f6c00440033000801be007f
:100980000200be003d003700140020005200370076
:10099000f4ff2f00500037006011b80069003700e5
:1009a00081002000618055000b003d000b002000fd
:1009b00061fe2f000100e1001d0034008281710002
:1009c000610164008904d1000884d3000000e800bc
:1009d000faff3a007100200061006400030070001b
:1009e000020060000900320061044400e0844c0011
:1009f0000988a500050032008b05e8006808e100c1
:100a000002003a008904d1000884d300f20f2000cc
:100a10000258e10005003d00c75ddd00f907b200a6
:100a20008980750008007800000006000bf8270098
:100a30008b007800000005000004be007000070075
:100a40000003be000405be000200be006c000700eb
:100a5000844f7500000006000200be006450e100f3
:100a6000050036006420e100020036000968a3009a
:100a700001003a000800be000160a0004f067800a7
:100a80004f05be004f04be0000000600f0ff2f001f
:100a9000f1ff2700f9ff37006022b80006022000ae
:100aa0000000d0008180d2000482d2008582d20072
:100ab0000000a0000202520083825a0003003100ad
:100ac0000202420083824a000000a1000603e900fe
:100ad000f3ff3a0000000600889fbe008a9fbe0018
:100ae000841f7800d4ff07004f0078001100330006
:100af000f0ff2f00838f6c0006003b0004056500ab
:100b00000a00a7000800370009f0a6001000200026
:100b100008003700820f5400838f5c000300390007
:100b20001000200001003e000000200009f0a70096
:100b30000000ea004f05be004f04be000000e000c8
:100b400000000600889fbe008a9fbe0000827000e1
:100b50000402710004827100260032000004be000d
:100b60000200be006011b8006b0920009502200051
:100b70000182cf000a0039000541b1000082cf0098
:100b8000070039000541b1000982cf000400390097
:100b90000541b1000882cf00010039000541b100d4
:100ba00005425200120032000a003b0082817100af
:100bb000610164008100d1000080d3008984d300ea
:100bc0000884d3008b05e8000442e800f7ff3a00f0
:100bd000070037000804440089844c0000004800e6
:100be000818048008b05e9000442e900f9ff3a00e2
:100bf0006bff07004f05be004f04be00000006005b
:100c0000c70ade00f107b200f50fb200080032009b
:100c1000e1cf4200020032000170a0002400050074
:100c2000810f700001003200040805004400050037
:100c3000810f700002003a00140005008502e900ef
:100c40000000400081c04800fcff3b000170a00094
:040c50002400050077
:020000040000fa
:100c54000000000000000000000000000000000090
:100c64000000000000000000000000000404000078
:100c7400040400000404000000040000000000005c
:100c8400001400000a0a0000000000000000000038
:100c94000000000000000000000000001414000028
:100ca4003f1400000a3f00000a0a00000000000090
:100cb400000400001e150000050600000c140000ce
:100cc400150f0000040000000000000012150000d1
:100cd4000d0a0000142c00002a120000000000007d
:100ce40000000000040a00000a1e000015150000a0
:100cf40009360000000000000002000002010000ac
:100d040000000000000000000000000000000000df
:100d14000020000010080000080800000808000077
:100d24000810000020000000000200000408000079
:100d34000808000008080000080400000200000081
:100d44000000000000040000150e00000e15000055
:100d54000400000000000000000000000404000083
:100d6400041f000004040000040000000000000050
:100d7400000000000000000000000000000000006f
:100d8400000200000201000000000000000000005a
:100d9400001f000000000000000000000000000030
:100da400000000000000000000000000000000003f
:100db400000200000000000000100000080800000d
:100dc4000804000004020000020200000100000008
:100dd400000000000e1100001111000011110000ac
:100de400110e0000000000000000000004060000d6
:100df4000404000004040000040e000000000000cd
:100e0400000000000e1100001108000004020000a0
:100e1400011f000000000000000000000e1100008f
:100e2400100c000010100000110e00000000000063
:100e340000000000080c00000a0a0000091e00005f
:100e44000818000000000000000000001f0100005e
:100e5400010f000010100000110e0000000000003f
:100e6400000000000e090000010f00001111000035
:100e7400110e000000000000000000001f09000027
:100e84000804000004040000040400000000000042
:100e9400000000000e110000110e000011110000ee
:100ea400110e000000000000000000000e11000000
:100eb400111100001e100000120e000000000000be
:100ec400000000000000000004000000000000001a
:100ed400000400000000000000000000000000000a
:100ee40000040000000000000004000004000000f2
:100ef40000200000100800000402000004080000a4
:100f040010200000000000000000000000000000ad
:100f14001f000000001f000000000000000000008f
:100f24000002000004080000102000001008000067
:100f34000402000000000000000000000e11000088
:100f44001108000004040000000400000000000078
:100f5400000000000e11000019150000151d00000e
:100f6400011e000000000000000000000404000056
:100f74000c0a00000a1e00001233000000000000ea
:100f8400000000000f120000120e000012120000f8
:100f9400120f000000000000000000001e110000fd
:100fa4000101000001010000110e0000000000001a
:100fb400000000000f1200001212000012120000c4
:100fc400120f000000000000000000001f120000cb
:100fd4000a0e00000a020000121f000000000000b8
:100fe400000000001f1200000a0e00000a020000a8
:100ff4000207000000000000000000001c120000b6
:101004000101000039110000120c00000000000072
:101014000000000033120000121e00001212000033
:101024001233000000000000000000001f04000054
:101034000404000004040000041f00000000000079
:10104400000000003e080000080800000808000036
:10105400080900000700000000000000371200002b
:101064000a0600000a0a000012370000000000000f
:10107400000000000702000002020000020200005b
:10108400223f000000000000000000001b1b0000c5
:101094001b1b0000151500001515000000000000c2
:1010a400000000003b120000161600001a1a00008f
:1010b4001217000000000000000000000e110000e4
:1010c4001111000011110000110e000000000000b9
:1010d400000000000f120000120e000002020000c7
:1010e4000207000000000000000000000e110000d4
:1010f4001111000011170000190e00001800000063
:10110400000000000f120000120e00000a1200007e
:101114001237000000000000000000001e11000053
:101124000106000008100000110f0000000000007c
:10113400000000001f150000040400000404000067
:10114400040e000000000000000000003312000044
:101154001212000012120000120c00000000000025
:101164000000000033120000120a00000a0c000004
:101174000404000000000000000000001515000039
:10118400150e00000a0a00000a0a00000000000010
:10119400000000001b0a00000a040000040a00000a
:1011a4000a1b000000000000000000001b0a0000f1
:1011b4000a04000004040000040e00000000000003
:1011c400000000001f0900000804000004020000e1
:1011d400121f000000000000001c000004040000b6
:1011e4000404000004040000040400001c000000c7
:1011f40000020000020200000404000008080000cd
:101204000810000000000000000e000008080000a4
:101214000808000008080000080800000e0000008c
:10122400000400000a0000000000000000000000ac
:1012340000000000000000000000000000000000aa
:10124400000000000000000000000000003f00005b
:101254000004000000000000000000000000000086
:10126400000000000000000000000000000000007a
:10127400000c0000121c0000123c000000000000e2
:101284000000000003020000020e00001212000021
:10129400120e00000000000000000000000000002a
:1012a400001c000012020000021c000000000000ec
:1012b4000000000018100000101c000012120000b2
:1012c400123c0000000000000000000000000000cc
:1012d400000c0000121e0000021c000000000000b0
:1012e4000000000038040000041e00000404000094
:1012f400041e0000000000000000000000000000c8
:10130400003c0000120c0000021e0000221c000021
:101314000000000003020000020e00001212000090
:10132400123700000000000000000000040000006c
:101334000006000004040000040e00000000000089
:101344000000000008000000000c00000808000075
:101354000808000008070000000000000302000065
:10136400023a00000a0e00001237000000000000dc
:10137400000000000704000004040000040400004e
:10138400041f000000000000000000000000000036
:10139400000f0000151500001515000000000000e6
:1013a4000000000000000000000f00001212000006
:1013b40012370000000000000000000000000000e0
:1013c400000c000012120000120c000000000000cb
:1013d4000000000000000000000f000012120000d6
:1013e400120e0000020700000000000000000000d0
:1013f400001c000012120000121c00001038000033
:101404000000000000000000001b000006020000b5
:1014140002070000000000000000000000000000bf
:10142400001e0000020c0000101e0000000000005e
:101434000000000000040000040e0000040400008a
:10144400041800000000000000000000000000007c
:10145400001b000012120000123c000000000000fb
:10146400000000000000000000370000120a000025
:101474000c04000000000000000000000000000058
:1014840000150000150e00000a0a0000000000000c
:101494000000000000000000001b00000a0400001f
:1014a4000a1b000000000000000000000000000013
:1014b40000370000120a00000c04000004030000be
:1014c4000000000000000000001e000008040000ee
:1014d400041e0000000000000018000008080000be
:1014e40008040000080800000808000018000000b4
:1014f40008080000080800000808000008080000a8
:1015040008080000080800000006000004040000a9
:1015140004080000040400000404000006000000a5
:101524000225000018000000000000000000000078
:1015340000000000000000000000000000000000a7
:101544000000000000000000000000000000000097
:10155400000000000000000000000000000800007f
:101564000808000008080000080800000000000047
:101574001818000000000000004800006c2400005f
:101584001200000000000000000000000000000045
:101594000000000000000000000000000024000023
:1015a400242400007f120000121200007f120000a9
:1015b400121200000000000000000000081c0000df
:1015c4002a2a00000a0c000018280000282a00001b
:1015d4002a1c00000808000000000000002200008f
:1015e40025150000151500002a5800005454000069
:1015f400542200000000000000000000000c000065
:1016040012120000120a00007625000029110000c1
:10161400916e0000000000000006000006040000b7
:1016240003000000000000000000000000000000b3
:101634000000000000000000004000002010000036
:101644001008000008080000080800000810000046
:101654001020000040000000000200000408000008
:101664000810000010100000101000001008000006
:101674000804000002000000000000000000000058
:10168400080800006b1c00001c6b00000808000028
:101694000000000000000000000000000000000046
:1016a40008080000080800007f080000080800007f
:1016b400080000000000000000000000000000001e
:1016c4000000000000000000000000000000000016
:1016d40006060000040300000000000000000000f3
:1016e4000000000000000000fe00000000000000f8
:1016f40000000000000000000000000000000000e6
:1017040000000000000000000000000000000000d5
:1017140006060000000000000000000080400000f9
:101724004020000020100000100800000804000001
:101734000402000002000000000000000018000085
:1017440024420000424200004242000042420000a3
:101754002418000000000000000000000008000041
:101764000e0800000808000008080000080800002f
:10177400083e00000000000000000000003c0000e3
:101784004242000042200000201000000804000033
:10179400427e00000000000000000000003c000049
:1017a4004242000020180000204000004042000097
:1017b400221c0000000000000000000000200000c7
:1017c4003028000024240000222200007e20000093
:1017d400207800000000000000000000007e0000ef
:1017e40002020000021a00002640000040420000ed
:1017f400221c00000000000000000000003800006f
:1018040024020000021a00002642000042420000a6
:10181400241800000000000000000000007e00000a
:101824002222000010100000080800000808000030
:10183400080800000000000000000000003c000058
:1018440042420000422400001824000042420000ea
:10185400423c0000000000000000000000180000ee
:10186400244200004242000064580000404000004e
:10187400241c000000000000000000000000000024
:101884000000000018180000000000000000000024
:101894001818000000000000000000000000000014
:1018a400000000000008000000000000000000002c
:1018b40000080000080400000000000000400000d0
:1018c40020100000080400000204000008100000ba
:1018d40020400000000000000000000000000000a4
:1018e400000000007f000000000000007f000000f6
:1018f40000000000000000000000000000020000e2
:10190400040800001020000040200000100800001f
:10191400040200000000000000000000003c000081
:101924004242000046400000201000001000000069
:10193400181800000000000000000000001c000057
:10194400225a000055550000555500002d42000054
:10195400221c00000000000000000000000800003d
:101964000818000014140000243c00002242000067
:1019740042e700000000000000000000001f00001b
:1019840022220000221e00002242000042420000e7
:10199400221f00000000000000000000007c000086
:1019a4004242000001010000010100000142000068
:1019b400221c00000000000000000000001f0000c6
:1019c4002242000042420000424200004242000023
:1019d400221f00000000000000000000003f000083
:1019e40042120000121e0000121200000242000007
:1019f400423f00000000000000000000003f000023
:101a040042120000121e0000121200000202000026
:101a1400020700000000000000000000003c00007d
:101a240022220000010100000171000021220000b7
:101a3400221c0000000000000000000000e700007d
:101a440042420000424200007e4200004242000046
:101a540042e700000000000000000000003e00001b
:101a64000808000008080000080800000808000032
:101a7400083e00000000000000000000007c0000a0
:101a840010100000101000001010000010100000d2
:101a940010100000110f000000000000007700008b
:101aa400221200000a0e00000a1200001222000096
:101ab4002277000000000000000000000007000082
:101ac4000202000002020000020200000202000002
:101ad400427f0000000000000000000000770000ca
:101ae40036360000363600002a2a00002a2a000072
:101af4002a6b0000000000000000000000e300006a
:101b0400464600004a4a0000525200005262000059
:101b1400624700000000000000000000001c0000fc
:101b240022410000414100004141000041410000c8
:101b3400221c00000000000000000000003f000024
:101b440042420000424200003e0200000202000045
:101b5400020700000000000000000000001c00005c
:101b64002241000041410000414100004d5300006a
:101b7400321c00006000000000000000003f000074
:101b840042420000423e00001212000022220000e5
:101b940042c700000000000000000000007c0000bc
:101ba40042420000020400001820000040420000ed
:101bb400423e00000000000000000000007f000022
:101bc4004908000008080000080800000808000090
:101bd400081c0000000000000000000000e70000f6
:101be40042420000424200004242000042420000e1
:101bf400423c0000000000000000000000e700007c
:101c040042420000222400002414000014180000a2
:101c1400080800000000000000000000006b000045
:101c2400494900004949000055550000362200008a
:101c340022220000000000000000000000e7000075
:101c44004224000024180000181800002424000076
:101c540042e70000000000000000000000770000e0
:101c640022220000141400000808000008080000e4
:101c7400081c00000000000000000000007e0000be
:101c8400212000001010000008040000044200009d
:101c9400423f000000000000007800000808000037
:101ca40008080000080800000808000008080000f0
:101cb4000808000078000000000000000202000094
:101cc40004040000080800000810000010200000b0
:101cd4002020000040400000001e00001010000002
:101ce4001010000010100000101000001010000070
:101cf400101000001e000000003800004400000026
:101d040000000000000000000000000000000000cf
:101d140000000000000000000000000000000000bf
:101d240000000000000000000000000000000000af
:101d34000000000000ff0000000600000800000092
:101d4400000000000000000000000000000000008f
:101d5400000000000000000000000000000000007f
:101d640000000000003c00004278000044420000f3
:101d740042fc00000000000000000000000300001e
:101d840002020000021a0000264200004242000043
:101d9400261a0000000000000000000000000000ff
:101da40000000000003800004402000002020000ad
:101db4004438000000000000000000000060000043
:101dc40040400000407800004442000042420000cd
:101dd40064d80000000000000000000000000000c3
:101de40000000000003c0000427e000002020000ef
:101df400423c0000000000000000000000f0000071
:101e040088080000087e0000080800000808000098
:101e1400083e000000000000000000000000000078
:101e240000000000007c0000222200001c020000d0
:101e34003c420000423c000000000000000300009f
:101e440002020000023a0000464200004242000042
:101e540042e700000000000000000000000c000049
:101e64000c000000000e0000080800000808000034
:101e7400083e0000000000000000000000300000e8
:101e84003000000000380000202000002020000066
:101e940020200000221e00000000000000030000bb
:101ea4000202000002720000120a00001612000072
:101eb400227700000000000000000000000e000077
:101ec40008080000080800000808000008080000ce
:101ed400083e0000000000000000000000000000b8
:101ee40000000000007f0000929200009292000027
:101ef40092b7000000000000000000000000000095
:101f040000000000003b0000464200004242000086
:101f140042e7000000000000000000000000000094
:101f240000000000003c0000424200004242000069
:101f3400423c00000000000000000000000000001f
:101f440000000000001b0000264200004242000086
:101f5400221e000002070000000000000000000034
:101f640000000000007800004442000042420000eb
:101f74004478000040e00000000000000000000081
:101f840000000000007700004c040000040400007e
:101f9400041f00000000000000000000000000001a
:101fa40000000000007c0000420200003c400000f1
:101fb400423e00000000000000000000000000009d
:101fc40000080000083e000008080000080800009f
:101fd40008300000000000000000000000000000c5
:101fe4000000000000630000424200004242000082
:101ff40062dc00000000000000000000000000009f
:102004000000000000e70000422400002414000047
:1020140008080000000000000000000000000000ac
:102024000000000000eb0000494900005555000085
:102034002222000000000000000000000000000058
:1020440000000000007600002418000018180000aa
:10205400246e0000000000000000000000000000ea
:102064000000000000e700004224000024140000e7
:10207400180800000807000000000000000000002d
:1020840000000000007e000022100000080800008c
:10209400447e00000000000000c00000202000007a
:1020a400202000002010000020200000202000003c
:1020b40020200000c00000001010000010100000dc
:1020c400101000001010000010100000101000008c
:1020d40010100000101000000006000008080000a6
:1020e40008080000081000000808000008080000a4
:1020f40008080000060000000c320000c2000000c6
:1021040000000000000000000000000000000000cb
:1021140000000000000000000a0a00002d2d00004d
:102124002d2d00002d2d00002053000063610000c0
:102134006e2000006f66000020490000324300005a
:102144002042000075730000202d00002d2d00009a
:102154002d2d00002d0a000020200000202000006a
:1021640000200000003a00002000000020200000b1
:10217400200000002d2d0000200000000a0a0000ad
:10218400000a00000a2d00002d2d00002d2d000056
:102194002d200000447500006d700000206f0000c9
:1021a400662000004932000043200000436800001c
:1021b40069700000202d00002d2d00002d2d000041
:1021c4002d0a000020200000202000000030000024
:1021d4003a200000000000004d6f00006e64000013
:1021e400617900000054000075650000736400000c
:1021f4006179000000570000656400006e6500000e
:1022040073640000617900000054000068750000e8
:1022140072730000646100007900000046720000df
:1022240069640000617900000053000061740000db
:1022340075720000646100007900000053750000ad
:102244006e6400006179000000000000ee90000060
:10225400f5900000fd90000007910000109100002f
:1022640017910000209100005069000020740000c4
:102274006f20000074680000652000005200000018
:0c2284002f000000200000003a000000c5
:020000040000fa
:102290000608000000150000020000000000000019
:1022a000000000000000000000000000000000002e
:1022b000000000000000000000000000000000001e
:1022c000000000000000000000000000000000000e
:1022d000000000000000000000000000000080007e
:1022e00001800100800180000180010080018000e8
:1022f00001800100800180000180010080018000d8
:1023000001000000000080000180010000000000ca
:1023100000000000000000000000000000000000bd
:1023200000cc0000cc00cc0000cc0000cc00cc00e5
:10233000000000000000000000000000000000009d
:10234000000000000000000000000000000000008d
:10235000000000000000000000000000000000007d
:10236000000000000000000000000000600c6000a1
:102370000c600c003006300006fe1f00fe1f30000f
:10238000063807001803fe001ffe1f001803180080
:10239000038c01008c018c00010000000000800013
:1023a00000e00300f80f9c000e8c1c008c188c00c1
:1023b00000980000f801e00007800e00801c8c00ef
:1023c000188c18009c18b8000cf00f00e003800077
:1023d000008000000000000000000000000000007d
:1023e000000000000e181b000c110c00110611005b
:1023f0000611030011039b00018e0100c038c000cc
:102400006c604400604430004430440018441800bc
:102410006c0c380000000000000000000000e0002c
:1024200001f0030038071800061806003003f0001a
:1024300001f00000f8009c00310e3300061e06007b
:102440001c061c00063ffc0073f021000000000089
:10245000000000000000000000000000000000007c
:10246000000c00000c000c00000c00000c000c0024
:10247000000000000000000000000000000000005c
:10248000000000000000000000000000000000004c
:10249000000000000000000000000000000000003c
:1024a000020003008001c00000c000006000600066
:1024b00000300000300030000030000030003000fc
:1024c000003000003000600000600000c000c0006c
:1024d0000080010000030000020000000000200056
:1024e00000600000c00080000180010000030000c7
:1024f00003000600000600000600060000060000bb
:1025000006000600000600000300030080018000b2
:1025100001c000006000200000000000000000007a
:10252000000000000000000000000000c000c0002b
:1025300000d80600f807e00001300300380700006b
:10254000000000000000000000000000000000008b
:10255000000000000000000000000000000000007b
:10256000000000000000000000000000800180006a
:10257000018001008001800001fc3f00fc3f8000e1
:102580000180010080018000018001000000000046
:10259000000000000000000000000000000000003b
:1025a000000000000000000000000000000000002b
:1025b000000000000000000000000000000000001b
:1025c0000000000000000000008001008001000009
:1025d0000100010080000000000000000000000079
:1025e00000000000000000000000000000000000eb
:1025f000000000000000000000000000e007e00014
:1026000007000000000000000000000000000000c3
:1026100000000000000000000000000000000000ba
:1026200000000000000000000000000000000000aa
:10263000000000000000000000000000000000009a
:10264000000000000000000000c00000c00000000a
:10265000000000000000000000000000000000007a
:102660000c000c000006000006000600000300003d
:102670000300030080038000018001008001c0008e
:1026800000c00000c000600000600000000000000a
:102690000000000000000000000000000000e0005a
:1026a00003f00700380e18000c0c18000c180c0072
:1026b000180c18000c180c00180c18000c180c0042
:1026c00018180c00380ef00007e0030000000000ae
:1026d00000000000000000000000000000000000fa
:1026e00001800100c001f000019801008801800014
:1026f00001800100800180000180010080018000d4
:1027000001800100800180000180010000000000c4
:102710000000000000000000000000000000e000d9
:1027200003f80f00180c0c00180c1800001800001b
:1027300018000c000006000003800100c0006000cb
:10274000003000001800fc001ffc1f00000000000b
:102750000000000000000000000000000000e00099
:1027600001f80700180e0c000c0c0c00000c000007
:1027700006c00300c00700000c00180000180c0081
:10278000180c1800180cf80007e003000000000007
:102790000000000000000000000000000000000039
:1027a0000c000e00000f00000f800d00c00c600038
:1027b0000c600c00300c18000c0c0c00fc3ffc00f2
:1027c0003f000c00000c00000c000c00000000009a
:1027d0000000000000000000000000000000f80001
:1027e0000ff80f0018001800000c0000ec03fc00ac
:1027f000071c0e00001c00001800180000180c0038
:10280000181c0c00180ef80007e003000000000080
:102810000000000000000000000000000000c000f8
:1028200007f00f00381c1800181800000c00cc002e
:1028300003ec0f003c0e1c001c0c18000c180c00c4
:1028400018181c00380ef00007e00300000000001c
:102850000000000000000000000000000000fc007c
:102860001ffc1f00000c0000060006000003800093
:1028700003800100c001c00000e0000060006000b3
:102880000070000030003000003000000000000048
:102890000000000000000000000000000000e00058
:1028a00003f00700380e18000c180c00180c380044
:1028b00006f00700f00718000c0c18000c180c00ac
:1028c000180c1800380cf8000fe00300000000009e
:1028d0000000000000000000000000000000e00018
:1028e00003f00700380e1c000c0c18000c180c002c
:1028f000181c1c00381ef8001be01900001800000e
:102900000c000c001c0ef80007f001000000000095
:1029100000000000000000000000000000000000b7
:1029200000000000000000000000000080018000a6
:102930000100000000000000000000000000000096
:102940000000000000008000018001000000000085
:102950000000000000000000000000000000000077
:102960000000000000000000000000008001800066
:102970000100000000000000000000000000000056
:102980000000000000008000018001000001000044
:1029900001800000000000000000000000000000b6
:1029a0000000000000000000000000000000000027
:1029b00000001000001c80000fe00300f800180069
:1029c00000f80000e00380000f001c000010000071
:1029d00000000000000000000000000000000000f7
:1029e00000000000000000000000000000000000e7
:1029f00000f81f000000000000000000f81f0000a9
:102a000000000000000000000000000000000000c6
:102a100000000000000000000000000000000000b6
:102a200000000000000000000000000000000000a6
:102a3000000800003800f00001c00700001f00007f
:102a400018001f00c007f000013800000800000057
:102a50000000000000000000000000000000e00096
:102a600003f80f00180c0c00180c180000180000d8
:102a70000c0006000003800001c00000c000c00080
:102a8000000000000000c00000c0000000000000c6
:102a90000000000000000000000000000000000036
:102aa00000e007001818040020c22900224a110083
:102ab0004409440009440900440922001113e200ba
:102ac0000c0240000420180018e00700000000007d
:102ad0000000000000000000000000000000800076
:102ae00003800300c006c00006c00600600c600042
:102af0000c3018003018300018f83f00f83f1c0068
:102b0000700c60000c600600c006c00000000000f1
:102b10000000000000000000000000000000fc00b9
:102b200003fc0f000c0c0c00180c18000c180c0007
:102b30000cfc0700fc0f0c00180c30000c300c00d3
:102b4000300c30000c18fc001ffc070000000000d7
:102b50000000000000000000000000000000c000b5
:102b600007f01f0038381c00300c700006600600ab
:102b70000006000006000600000600000600060031
:102b8000600c70001c30f0001fe007000000000027
:102b90000000000000000000000000000000fe0037
:102ba00003fe0f00060e0600180618000630060089
:102bb00030063000063006003006300006300600d1
:102bc00018061800060efe000ffe030000000000ad
:102bd0000000000000000000000000000000fc00f9
:102be0003ffc3f000c000c00000c00000c000c002f
:102bf00000fc1f00fc1f0c00000c00000c000c006f
:102c0000000c00000c00fc003ffc3f000000000036
:102c10000000000000000000000000000000f800bc
:102c20003ff83f00180018000018000018001800b6
:102c300000f81f00f81f1800001800001800180006
:102c40000018000018001800001800000000000024
:102c50000000000000000000000000000000e00094
:102c60000ff83f003c780e006006e00007c003004c
:102c70000003000003fe0300fe03c00007c00600bf
:102c8000c00ec0003cf0f8003fe00f000000000064
:102c900000000000000000000000000000000c0028
:102ca000300c30000c300c00300c30000c300c00bc
:102cb00030fc3f00fc3f0c00300c30000c300c00ae
:102cc000300c30000c300c00300c300000000000e4
:102cd0000000000000000000000000000000800074
:102ce00001800100800180000180010080018000de
:102cf00001800100800180000180010080018000ce
:102d000001800100800180000180010000000000be
:102d100000000000000000000000000000000000b3
:102d2000060006000006000006000600000600007f
:102d30000600060000060000060006000006180057
:102d4000061806003807f00003e00100000000004c
:102d5000000000000000000000000000000006006d
:102d600030061800060c0600060603008601c600a1
:102d7000006600007600de00008e010006030600fb
:102d800006060c0006180600300660000000000071
:102d9000000000000000000000000000000018001b
:102da0000018000018001800001800001800180093
:102db0000018000018001800001800001800180083
:102dc000001800001800f8001ff81f0000000000a5
:102dd00000000000000000000000000000000e00e5
:102de000e01ef0001ef01e00f036d80036d8360087
:102df000d836d80066cc6600cc66cc00c6c6c60005
:102e0000c6c6c600c6c68600c386c3000000000052
:102e100000000000000000000000000000000c00a6
:102e2000301c30003c303c00306c30006c30cc004a
:102e300030cc30008c310c00330c33000c360c00dd
:102e4000360c3c000c3c0c00380c3000000000003c
:102e50000000000000000000000000000000e00092
:102e600007f81f001c380e007006600003c0030046
:102e7000c003c00003c00300c003c00003c00600bd
:102e8000600e70001c38f8001fe007000000000012
:102e90000000000000000000000000000000fc0036
:102ea0000ffc1f000c380c00300c30000c300c00f4
:102eb000300c1800fc1ffc00070c00000c000c007c
:102ec000000c00000c000c00000c000000000000d2
:102ed0000000000000000000000000000000e00012
:102ee00007f81f001c380e007006600003e00300a6
:102ef000c003c00003c00300c003c00007e0060019
:102f0000630e3f001c3cf8003fe0f70000c00000eb
:102f10000000000000000000000000000000fe00b3
:102f20000ffe1f000638060030063000063006008f
:102f300038fe1f00fe07060003060600060c06000a
:102f40001806180006300600300660000000000079
:102f50000000000000000000000000000000e00091
:102f600003f80f001c0c0c00180c18000c001c00bf
:102f700000f80300e00f00001e00380006300600d5
:102f8000300e30001c1cf8000fe0070000000000ad
:102f90000000000000000000000000000000fe0033
:102fa0007ffe7f00800180000180010080018000a1
:102fb000018001008001800001800100800180000b
:102fc00001800100800180000180010000000000fc
:102fd00000000000000000000000000000000c00e5
:102fe000300c30000c300c00300c30000c300c0079
:102ff000300c30000c300c00300c30000c300c0069
:10300000300c30001818f8001fe007000000000026
:1030100000000000000000000000000000000300ad
:103020006006300006300600300c18000c180c004a
:1030300018180c00180c38000e300600300670000e
:10304000076003006003c00001c001000000000031
:10305000000000000000000000000000000003006d
:1030600060c36100c361c3006166330066336600fc
:103070003366330066336600336c1b006c1b6c00d8
:103080001b2c1a003c1e38000e380e0000000000f9
:1030900000000000000000000000000000000f0021
:1030a000e00c70001830300018700c00600ec0008a
:1030b000078003008003c00003e00600700c3000ae
:1030c0001c1818000c300e006007e0000000000023
:1030d00000000000000000000000000000000300ed
:1030e000c00660000c301c0038381800300c60003e
:1030f00006e00700c003800001800100800180001d
:1031000001800100800180000180010000000000ba
:103110000000000000000000000000000000fc00b3
:103120007ffc7f000060000030001800000c0000f1
:10313000060003008001c00000600000300018009d
:10314000000c00000600fe007ffe7f000000000073
:103150000000000000000000000000000000e0008f
:1031600003e0030060006000006000006000600099
:10317000006000006000600000600000600060000f
:1031800000600000600060000060000060006000ff
:1031900000600000e003e0000300000000003000d9
:1031a000003000006000600000600000c000c0004f
:1031b00000c00000c001800001800100800100000b
:1031c00003000300000300000600060000000000ea
:1031d0000000000000000000000000000000e0000f
:1031e00003e00300000300000300030000030000ed
:1031f00003000300000300000300030000030000bd
:1032000003000300000300000300030000030000ac
:1032100003000300e003e0000300000000000000e2
:1032200000c00100c00160000360030060033000c3
:1032300006300600180c18000c000000000000000a
:10324000000000000000000000000000000000007e
:10325000000000000000000000000000000000006e
:10326000000000000000000000000000000000005e
:10327000000000000000000000000000000000004e
:10328000000000000000000000ffff00ffff000042
:1032900000000000000000000000000000000c0022
:1032a000000c00000c000c00000c00000c000000e2
:1032b000000000000000000000000000000000000e
:1032c00000000000000000000000000000000000fe
:1032d00000000000000000000000000000000000ee
:1032e000000000000000000000000000f003f800f3
:1032f000071c0c000c0c00000ff00f00f80c0c0069
:103300000c0c0c001c0ff8000ff01800000000005f
:103310000000000000000000000000000000180095
:10332000001800001800180000180000d803f8006a
:103330000f380c0018181800181818001818180062
:1033400018181800380cf8000fd80300000000000f
:10335000000000000000000000000000000000006d
:10336000000000000000000000000000c003f000aa
:1033700007300e00180c1800001800001800180084
:1033800000180c00300ef00007c003000000000021
:10339000000000000000000000000000000000002d
:1033a000180018000018000018001800c01bf000da
:1033b0001f301c00181818001818180018181800ca
:1033c00018181800301cf0001fc01b00000000007f
:1033d00000000000000000000000000000000000ed
:1033e000000000000000000000000000c003f0002a
:1033f0000f300c001818f8001ff81f0018001800f4
:1034000000381800301cf0000fc00700000000005a
:10341000000000000000000000000000000080002c
:103420000fc00f00c000c00000c00000f007f00097
:1034300007c00000c000c00000c00000c000c00005
:1034400000c00000c000c00000c00000000000007c
:10345000000000000000000000000000000000006c
:10346000000000000000000000000000e00df80077
:103470000f180e000c0c0c000c0c0c000c0c0c00ab
:103480000c0c0c00180ef8000fe00d00000c0c00e6
:103490000c1c0600f807f0000100000000001800f6
:1034a000001800001800180000180000d807f800e5
:1034b0000f381c00181818001818180018181800d1
:1034c0001818180018181800181818000000000024
:1034d0000000000000000000000000000000c0002c
:1034e00000c000000000000000000000c000c0009c
:1034f00000c00000c000c00000c00000c000c0004c
:1035000000c00000c000c00000c0000000000000bb
:103510000000000000000000000000000000c000eb
:1035200000c000000000000000000000c000c0005b
:1035300000c00000c000c00000c00000c000c0000b
:1035400000c00000c000c00000c00000c000c000fb
:1035500000c00000f80078000000000000000c002f
:10356000000c00000c000c00000c00000c0c0c0007
:10357000060c03008c01cc00006c0000fc009c00d9
:10358000018c03000c030c00060c0c000000000072
:103590000000000000000000000000000000c0006b
:1035a00000c00000c000c00000c00000c000c0009b
:1035b00000c00000c000c00000c00000c000c0008b
:1035c00000c00000c000c00000c0000000000000fb
:1035d00000000000000000000000000000000000eb
:1035e0000000000000000000000000007c3cff0024
:1035f0007ec7e30083c18300c183c10083c1830010
:10360000c183c10083c18300c183c10000000000e9
:1036100000000000000000000000000000000000aa
:103620000000000000000000000000009807f80003
:103630000f381c001818180018181800181818004f
:1036400018181800181818001818180000000000a2
:10365000000000000000000000000000000000006a
:10366000000000000000000000000000c003f000a7
:103670000f300c0018181800181818001818180027
:1036800018181800300cf0000fc0030000000000f4
:10369000000000000000000000000000000000002a
:1036a000000000000000000000000000d803f80047
:1036b0000f380c00181818001818180018181800df
:1036c00018181800380cf8000fd80300180018005c
:1036d00000180000180018000000000000000000a2
:1036e000000000000000000000000000c01bf0000f
:1036f0001f301c0018181800181818001818180087
:1037000018181800301cf0001fc01b000018000023
:103710001800180000180000180000000000000049
:10372000000000000000000000000000b007f000f2
:103730000370000030003000003000003000300026
:1037400000300000300030000030000000000000b9
:103750000000000000000000000000000000000069
:10376000000000000000000000000000e003f00086
:1037700003380e00180c380000f00300c0070000ea
:103780000c180c00380ef00007e0030000000000e9
:103790000000000000000000000000000000000029
:1037a00000800000c000c00000c00000f007f00072
:1037b00007c00000c000c00000c00000c000c00082
:1037c00000c00000c000c00007800700000000002b
:1037d00000000000000000000000000000000000e9
:1037e0000000000000000000000000001818180091
:1037f00018181800181818001818180018181800a9
:1038000018181800381cf0001fe019000000000014
:1038100000000000000000000000000000000000a8
:103820000000000000000000000000000c1818005c
:103830000c180c00180c3000063006003006600032
:10384000036003006003c00001c00100000000002d
:103850000000000000000000000000000000000068
:10386000000000000000000000000000c141c10095
:1038700041c36100636363006363630036363600ef
:10388000363636001c1c1c001c1c1c0000000000ee
:103890000000000000000000000000000000000028
:1038a0000000000000000000000000001c3838008c
:1038b0001c300c00600660000360030060036000c1
:1038c00003600600300c38001c1c380000000000ab
:1038d00000000000000000000000000000000000e8
:1038e0000000000000000000000000001830300060
:1038f00018301800701860000c600c00e00cc0005c
:1039000006c0060080038000038003008001800061
:1039100001c00100f0007000000000000000000085
:10392000000000000000000000000000fc1ffc0080
:103930001f000c000006000003800100c0006000b2
:10394000003000001800fc001ffc1f0000000000f9
:103950000000000000000000000000000000000067
:1039600003800100c000c00000c00000c000c00013
:1039700000c00000600060000030000060004000f7
:1039800000c00000c000c00000c00000c000c000b7
:103990000080010000030000000000000000800023
:1039a0000180010080018000018001008001800011
:1039b0000180010080018000018001008001800001
:1039c00001800100800180000180010080018000f1
:1039d0000180010080018000010000000000600003
:1039e00000c00000c0018000018001008001800053
:1039f0000180010000030000030006000003000036
:103a000001800100800180000180010080018000b0
:103a100001c0000060000000000000000000000085
:103a20000000000000000000000000000000000096
:103a300000f01000f81f08000f0000000000000058
:103a40000000000000000000000000000000000076
:103a50000000000000000000000000000000000066
:103a60000000000000000000000000000000000056
:103a70000000000000000000000000000000000046
:103a80000000000000000000000000000000000036
:103a90000000000000000000000000000000000026
:103aa000000000000000000000c00300300c08000f
:103ab00010042000042002004002400002400200e6
:103ac000400240000420040020081000300cc00018
:103ad00003000000000000000000000000000000e3
:103ae000000000000000000000c00300f00ff8001c
:103af0001ffc3f00fc3ffe007ffe7f00fe7ffe00bc
:103b00007ffe7f00fc3ffc003ff81f00f00fc0006d
:103b100003000000000000000000000000000000a2
:103b20000000000000000000000000000000e000b5
:103b300007f00f00181818001818180018181800a7
:103b400018181800f00fe000070000000000000047
:103b50000000000000000000000000000000000065
:103b60000000000000000000000000000000e00075
:103b700007f00f00f81ff8001ff81f00f81ff800eb
:103b80001ff81f00f00fe000070000000000000019
:103b90000000000000000000000000000000000025
:103ba0000000000000000000000000000000000015
:103bb0000000000000000000000000008001c000c4
:103bc00003600600300c180018181800f81ff800e1
:103bd0001f000000000000000000000000000000c6
:103be00000000000000000000000000000000000d5
:103bf0000000000000000000000000008001c00084
:103c000003e00700f00ff8001ff81f00f81ff8008e
:103c10001f00000000000000000000000000000085
:103c2000000000000000f8001ff81f00181818001e
:103c300018300c006006c000038001000000000086
:103c40000000000000000000000000000000000074
:103c50000000000000000000000000000000000064
:103c6000000000000000f8001ff81f00f81ff80017
:103c70001ff00f00e007c0000380010000000000fb
:103c80000000000000000000000000000000000034
:103c90000000000000000000000000000000000024
:103ca0000000000000000000000000000000e00034
:103cb00001f0010098018c000186010086018c0052
:103cc00001980100f001e000010000000000000088
:103cd00000000000000000000000000000000000e4
:103ce0000000000000000000000000000000e000f4
:103cf00001f00100f801fc0001fe0100fe01fc00e2
:103d000001f80100f001e0000100000000000000e7
:103d100000000000000000000000000000000000a3
:103d20000000000000000000000000000000800013
:103d300007800f0080198000318061008061800061
:103d400031801900800f8000070000000000000093
:103d50000000000000000000000000000000000063
:103d600000000000000000000000000000008000d3
:103d700007800f00801f80003f807f00807f8000d1
:103d80003f801f00800f800007000000000000003f
:103d90000000000000000000000000000000c00063
:103da000012002002002400001300600080808003f
:103db000080808000808080008080800080820008b
:103dc0000220020020022000022002002002200027
:103dd0000220020020022000020000000000c000bb
:103de00001e00300e003c00001f00700d80dd80097
:103df0000dd80d00d80dd8000dd80d00d80d6000dd
:103e00000360030060036000036003006003600060
:103e10000360030060036000030000000000c000b6
:103e200001200200200240000130060008080800be
:103e300008080800041002002002200040012000b1
:103e40000220020010040800080808000410040002
:103e50001004200004400000000000000000c0002a
:103e600001e00300e003c00001f00700d80dd80016
:103e70000dd80d00cc19c60031c26100c001600030
:103e800003600300700638000c180c000c180c00be
:103e9000180c30000c600000000000000408000056
:103ea0000200000000000000061d00001e000000cf
:103eb000020000002e0000000026000000001e008e
:103ec000000000001e000200001e000003000600ab
:103ed0001d0a1d000e1d12001d161d000008000009
:103ee0000400000000000000241d0000020000008b
:0c3ef000020000000100000000000000c3
:020000040000fa
:103efc000200fa00000f7800e2a2a800d7e2a800a6
:103f0c009e00780051168800d7c2a900d7c2a8001d
:103f1c000080fa00000006000200fa00000f780092
:103f2c00e2a2a900d7e2a8009e00780051168800f2
:103f3c00d7c2a900d7c2a8000080fa000000060072
:103f4c000200fa00000f7800e2a2a800d7c2a80075
:103f5c00d7e2a9000080eb003016880041168000e3
:103f6c001e00780001087800411680001e007800c1
:103f7c0001087800c622ef00d7e2a8000080fa0002
:103f8c00000006000400fa00000f780011079800ea
:103f9c00e282a9001e007800dfff07001e009000df
:103fac00d3ff0700e282a8000080fa0000000600a0
:103fbc000400fa00000f780011079800e282a900b3
:103fcc001e007800d4ff07001e009000dcff0700e5
:103fdc00e282a8000080fa00000006000200fa004d
:103fec00000f7800c622ef00d3e2a900d3c2a900cb
:103ffc00dea2a900de82a900e282a800e2a2a8004b
:10400c00d7c2a800d7e2a800200320008818070018
:10401c00418020000000eb00e5ff070021408000fc
:10402c001e00780001087800110020000000eb0051
:10403c00d4ff0700f1b3230010002000d1ff0700cc
:10404c000160200020002000ceff0700710020003e
:10405c00c0002000cbff070061002000d000200032
:10406c00c8ff070001202300e0002000c5ff070067
:10407c00b10b2000e0012000c2ff070041a6260082
:10408c0030002000bfff07008000eb00f000200094
:10409c00bcff070001f02e0040042000b9ff070010
:1040ac008000eb0050042000b6ff0700f113200045
:1040bc0060042000b3ff07008000eb000003200029
:1040cc00b0ff07006170200010032000adff070057
:1040dc006120200020032000aaff070001302000ef
:1040ec0030032000a7ff0700210020004003200020
:1040fc00a4ff07008000eb0050032000a1ff070085
:10410c0071702000600320009eff0700012020003a
:10411c00700320009bff070081902000a00320006b
:10412c0098ff0700d1f02000b003200095ff070096
:10413c00610020008002200092ff0700b12e2100b8
:10414c00f00220008fff0700010027006002200012
:10415c008cff0700310e2b000002200089ff0700a6
:10416c00410420007002200086ff070051e4270064
:10417c00e002200083ff07008000eb00000120001c
:10418c0080ff0700e00120002918070001872600a6
:10419c00100120007bff070031032000700020007d
:1041ac0078ff07000080fa00000006000600fa0005
:1041bc00000f780011079800220798009e009000cd
:1041cc001e00780005000700ae00900020022000c1
:1041dc006cff07000080fa00000006000400fa00e3
:1041ec00000f78001107980021408000909928005a
:1041fc00808f5000040032002140800090912900f3
:10420c00808f500007003a009e007800e0042000e8
:10421c005cff07009e009000f004200059ff07008f
:10422c00060037009e0078000002200055ff0700b2
:10423c009e0090001002200052ff07000080fa0040
:10424c00000006001000fa00008fbe002207980044
:10425c0033079800440798005507980066079800a4
:10426c00770798002140800090992800808f50009b
:10427c0012003a004e0090000000e900c800dd007a
:10428c001e007800010070008000780040042000bf
:10429c003cff07002e0090008000780050042000a6
:1042ac0038ff07006e0090000000e90080007800e5
:1042bc006004200033ff0700120037001e00780056
:1042cc0080007800000520002eff07004e009000b3
:1042dc000000e900800078001005200029ff07008d
:1042ec002e009000800078002005200025ff07009c
:1042fc006e0090000000e90080007800300520007e
:10430c0020ff07000080fa00000006000600fa00fb
:10431c00200798008000eb000000eb00afff0700c7
:10432c00e282a90020022000fbfe07006000b8001a
:10433c00008fbe00060037002e009000ecfe070038
:10434c0012002000030020001e0f41005e97490060
:10435c00f0bf2200010020001e01be00800f5100a2
:10436c00818f5900f4ff3600e282a8000080fa0029
:10437c00000006000e00fa00008fbe002207980015
:10438c0033079800044f980055079800660798006b
:10439c008e48900000ceb30000c04000004f980043
:1043ac000e4890008080fb00000320000088b900bc
:1043bc0000007800800078006080200000804000c1
:1043cc006e039000de029000000278002e01900037
:1043dc00be0190001e00be00020007000080fa0023
:1043ec00000006001400fa003007980041079800fe
:1043fc00520798006307980074079800050f9800ff
:10440c00160f98006000b800008fbe000000eb0093
:10441c0020079800de0090003e0090006fff070020
:10442c006000b800008fbe002a003700e282a900ad
:10443c0020022000b8fe0700f000200020079800a2
:10444c00130037001e00780000004000fe009000b2
:10445c000080400090007800120020002e00900098
:10446c000010dd00008060000000e00003003a0056
:10447c001e0890009efe0700020037000e089000f8
:10448c009bfe07002e0090000000e900200798001a
:10449c002e0090000000e000eaff3d00e282a80040
:1044ac003e009000ce00900061004000e08048008b
:1044bc003007980041079800de0090003e00900005
:1044cc0046ff070012002000030020001e0f4100d1
:1044dc005e9749001e01be00700120000100200003
:1044ec00800f5100818f5900d0ff36000080fa00f8
:1044fc00000006001200fa004007980051079800cf
:10450c006207980073079800040f98006000b800c9
:10451c00008fbe000013200001002000200798002f
:10452c0031079800170037006e009000104078009b
:10453c000e0b9000fe029000004278002e019000bd
:10454c00be0190004e009000de00900089ff070035
:10455c002e009000be00900070005000e0805800cb
:10456c0020079800310798006e0090000000e800ca
:10457c006007980012002000030020001e0f41006d
:10458c005e9749006e009000104078000080fb00a0
:10459c000000ea004f00de008042780014c0b30037
:1045ac001e01be003001200001002000800f5100d0
:1045bc00818f5900010036000042eb0004c06200fc
:1045cc000004e000d8ff3a000080fa00000006006a
:1045dc001000fa00889fbe004047980031079800f1
:1045ec0042079800234f98006407980075079800bd
:1045fc00740037004e00900010407800304798004f
:10460c004e409000f84f400073003e00be009000fa
:10461c0000132000808f500071003e002e48900047
:10462c008080fb003e009000008040006102b800da
:10463c004e4090008080fb002e4890000080fb00d4
:10464c000000d100004078000080fb00008040009a
:10465c006101b9003e0090008000eb004e439000d9
:10466c000684fb008004eb000403be000202be00c3
:10467c000001be000800be00f2fe07004e40900094
:10468c000080fb00be009000d4fe0700200220003a
:10469c0021fe0700be40900000ceb30000c04000d9
:1046ac00304798000040eb0010479800340037006a
:1046bc002e489000ec4f50000a003a003e4090000b
:1046cc000080fb009e4090000181fb006c00b90053
:1046dc000000780002004000a1622800614f7800c1
:1046ec00080037003e4090008080fb001e40900088
:1046fc000080fb00c408dd0000804000e1a9280018
:10470c00614f78000040eb00204798001200370002
:10471c001e80fb0061006000004078000004e00097
:10472c0004003200ee0090002002200015fe07006d
:10473c0003003700fe0090002002200011fe07004d
:10474c001e80fb000000d100004f78002e4090002e
:10475c000040e800204798002e4890000080fb00a5
:10476c000000d100804078002e40900080cf500097
:10477c00e7ff3e001e4090000040e8001047980004
:10478c009e4090002e48900080cf5000c8ff39000a
:10479c000614200007002000040f20000500200054
:1047ac006011b8006000b800a6fe07004e409000f3
:1047bc0068404000404798004e0090000000e80020
:1047cc00400798004e009000104078000004e00074
:1047dc0088ff3a000300370000000000010037009a
:1047ec00000000004f04be000080fa00000006002c
:1047fc001600fa00889fbe00204f9800314f980099
:10480c006207980073079800045798001557980092
:10481c00160f9800270f9800e400470001000900cc
:10482c008018eb008058eb000b0037000e4890000e
:10483c000040e800004f98006e019000fe019000cf
:10484c00008f2d00f1ff2f000200400083804800f4
:10485c0060079800710798006e019000fe019000af
:10486c00f070220001002000800f5100818f590050
:10487c00eeff3e00090037007e4090000040e8004b
:10488c00704798006e009000fe009000803eb100d2
:10489c000180b10060079800710798006e019000cc
:1048ac00fe019000703e200001002000800f51009e
:1048bc00818f5900f0ff3e00090037006e409000d8
:1048cc000040e800604798006e009000fe009000e9
:1048dc004006b1000180b100600798007107980094
:1048ec006e019000fe0190003006200001002000b7
:1048fc00800f5100818f5900f0ff3e0009003700f6
:10490c005e4090000040e800504798006e00900018
:10491c00fe0090006a005000e0805800600798008c
:10492c00710798006e019000fe019000900020002d
:10493c0001002000800f5100818f5900f0ff3e00d4
:10494c006e00900000407800404798000040eb005b
:10495c00004f7800730037003e4890008080fb00c9
:10496c001e5090000080fb00008040006102b900e6
:10497c002e4890008080fb001e5090000080fb00b1
:10498c000000d100004078000080fb000080400057
:10499c006101b9003e4890000080fb008000eb00f4
:1049ac002e4b90000684fb008004eb000403be0039
:1049bc000202be000001be000800be0021fe07007e
:1049cc003e4890008080fb002e4890000080fb0049
:1049dc0002fe0700200220004ffd07000040eb0004
:1049ec0030479800400037001e509000ec4f5000ac
:1049fc000f003a001e80fb0064001000000047000e
:104a0c00404090000080fb0070004000be409000d1
:104a1c000181fb006c00b90000007800020040002e
:104a2c00a162280061417800224798000d003700f0
:104a3c001e80fb0064001000000047004040900006
:104a4c000080fb00f00040003e4090000080fb0026
:104a5c00c408dd0000804000e1a928006141780015
:104a6c00224798000040eb001047980014003700d4
:104a7c002e4090000080fb00610060000040780038
:104a8c000004e000040032009e0890002002200088
:104a9c003cfd070003003700ae0890002002200008
:104aac0038fd07002e4090000080fb000000d10074
:104abc00204798001e4090000040e80010479800e6
:104acc001e5090000080fb000000d1008040780058
:104adc001e40900080cf5000e5ff3e003e4090000d
:104aec000040e80030479800be4090001e509000f7
:104afc0080cf5000bcff39000614200007002000b6
:104b0c00040f2000050020006011b8006000b80000
:104b1c00ccfd07002e48900068404000204f9800c4
:104b2c001e4fe8000e5090009e40780080cf500041
:104b3c0089ff39004f04be000080fa000000060017
:104b4c001800fa0040079800510798006207980077
:104b5c0073079800040f9800150f9800260f980003
:104b6c00370f98006000b8002007980031079800b4
:104b7c00240037006000b800008fbe00150037001d
:104b8c001e017800ae0090000e0890000088b9005d
:104b9c00000078000000410000004000ceb89700f3
:104bac000080400010017800ee0090002e00900074
:104bbc0080804000ce0190001e00780000804100f3
:104bcc007afd070012002000030020001e0f410098
:104bdc005e9749000e0890009e0890001e01be00d2
:104bec00800f5100818f5900e5ff39002e00900095
:104bfc00be00900061004000e08048002007980053
:104c0c00310798002e019000be0190002e089000f4
:104c1c00be089000800f5100818f5900d5ff3900dc
:104c2c000080fa00000006000400fa000000eb000f
:104c3c00100798004e0037000000eb00000f7800c2
:104c4c00440037009e00900070112000808f5000af
:104c5c000500360002d02f009e0090001e00780048
:104c6c0052fd07003a0037009e009000f00e200025
:104c7c00808f500005003600a2c422009e009000d8
:104c8c001e00780049fd0700310037009e0090009f
:104c9c00700c2000808f50000500360082d52f004c
:104cac009e0090001e00780040fd07002800370091
:104cbc009e009000f0092000808f50000500360007
:104ccc00027e20009e0090001e00780037fd070039
:104cdc001f0037009e00900070072000808f50004e
:104cec0005003600f27f20009e0090001e00780028
:104cfc002efd0700160037009e009000f0042000e7
:104d0c00808f50000500360002802f009e0090001e
:104d1c001e00780025fd07000d0037009e00900056
:104d2c0070022000808f50000500360002fe2f001c
:104d3c009e0090001e0078001cfd07000400370048
:104d4c000081eb009e0090001e00780017fd07000c
:104d5c001e0fe800f00e20009e007800808f50009f
:104d6c00b8ff36001e0090000000e8001007980005
:104d7c009e009000f0132000808f5000aeff360094
:104d8c000080fa00000006002600fa00300f9800a0
:104d9c00410f9800520f9800630f9800740f980001
:104dac000517980016179800271798000000eb00bd
:104dbc00200798000000eb0030079800fe089000d8
:104dcc003e08900000805000400798009e10900014
:104ddc005e0890000080500050079800be089000bc
:104dec00110f98005e099000220f98004e00900061
:104dfc000000e00003003400100020007007980051
:104e0c000b0037004e0090000000e00003003a0059
:104e1c000000eb0070079800050037000080eb00e5
:104e2c00700798004e0090000000ea0040079800c0
:104e3c005e0090000000e000030034001000200031
:104e4c00000f98000b0037005e0090000000e0009f
:104e5c0003003a000000eb00000f9800050037003b
:104e6c000080eb00000f98005e0090000000ea004c
:104e7c0050079800ce0090005e009000808f50008c
:104e8c0003003400ce019000630798000200370045
:104e9c00de009000610798006000b800008fbe0033
:104eac0028003700ae0890001e0890004eb99700fd
:104ebc00befc0700ae0090004e0090000080400049
:104ecc0020079800be0090005e009000008040001b
:104edc0030079800ae0090006e009000808f50005c
:104eec0008003400ae0090006e009000008050006e
:104efc00200798009e0890007e00900000804000e3
:104f0c00100f9800be0090006e009000808f500033
:104f1c0008003400be0090006e009000008050002d
:104f2c0030079800ae0890000e08900000804000fa
:104f3c00200f980012002000030020001e0f4100db
:104f4c005e9749006e0090000000e800cf80de0004
:104f5c00be0f5000ae8f5800d2ff31000080fa0017
:104f6c00000006001600fa00889fbe008a1f780019
:104f7c003007980041079800520798006307980083
:104f8c0074079800050f9800160f9800270f9800cb
:104f9c003e019000ce0190007e0090008e089000a3
:104fac00800f5100818f59000c003a005e01900077
:104fbc00ee0190001e089000ae089000800f51008a
:104fcc00818f590005003a00de0090003e009000f1
:104fdc004eb9970075fc0700ac0037001e09900015
:104fec00ae0990005e009000ee00900000005100b1
:104ffc008180590065ee07000004be007e01900020
:10500c008e0990003e009000ce00900000005100f0
:10501c00818059005dee07001ac0b3000001be008c
:10502c000800be0057ee07000000e00001003c0045
:10503c000045eb000a04e0004b0032005e019000da
:10504c00ee0190001e089000ae089000800f5100f9
:10505c00818f590014003600de0090002107980063
:10506c001e099000ae099000520798006307980043
:10507c002e0090008000eb00100f9800210f98007c
:10508c00be019000230798007e0190008e099000cd
:10509c0032079800430798002e0090008000eb0028
:1050ac0070079800010f9800de019000130798001c
:1050bc00250037001e0090006101b8005e009000d2
:1050cc00ee00900000015100818159007e02900099
:1050dc008e0a90003e009000ce009000000052001e
:1050ec0081805a00009ab90004027800028bb90042
:1050fc0086027800050242000010b800010242004e
:10510c00840078001e0a9000ae0a90005e019000a8
:10511c00ee0190000201520083815a005bee070001
:10512c00800078003e009000008f40004eb9970040
:10513c009e0090001e0078001cfc07001e009000d2
:10514c000000e800100798001e0090006101b800f4
:10515c001e089000ae089000800f5100818f5900fe
:10516c00d4ff3900490037003e019000ce01900079
:10517c007e0090008e089000800f5100818f5900a6
:10518c0014003600de009000210798001e099000e4
:10519c00ae09900052079800630798002e0090000b
:1051ac008000eb00100f9800210f9800be019000ba
:1051bc00230798007e0190008e099000320798001a
:1051cc00430798002e0090008000eb0070079800b9
:1051dc00010f9800be019000030f780024003700e7
:1051ec001e0078006101b8003e009000ce009000d7
:1051fc0000015100818159001e0a9000ae0a9000f6
:10520c005e009000ee0090000000520081805a0079
:10521c00009ab90004027800028bb900860278006b
:10522c00050242000010b800010242008400780020
:10523c007e0290008e0a90003e019000ce019000fc
:10524c000201520083815a0010ee070080007800a2
:10525c005e00900000804000100798004eb9970047
:10526c009e0090001e007800d0fb07001e0fe80087
:10527c001e0078006101b8007e0090008e0890003e
:10528c00800f5100818f5900d5ff36004f057800f3
:10529c004f04be000080fa00000006001a00fa005d
:1052ac006007980071079800020f9800130f980080
:1052bc00240f9800350f9800460f98006000b80036
:1052cc00008fbe002e099000be09900022079800a6
:1052dc00330798002e089000be0890000000400094
:1052ec0081804800320020000300200000005100a3
:1052fc008180590040079800510798007d003700c5
:10530c008e0890001e007800808050006e01900086
:10531c002e009000000051004e099000a3fb0700e6
:10532c008e0890001e007800808050006e01900066
:10533c002e009000000041004e0990009bfb0700de
:10534c008e0890002e009000808040006e0190002e
:10535c001e007800000051004e09900093fb0700de
:10536c008e0890001e007800808050006e01900026
:10537c002e009000000051004e0990008bfb07009e
:10538c008e0890002e009000808050006e019000de
:10539c001e007800000051004e09900083fb0700ae
:1053ac008e0890001e007800808040006e019000f6
:1053bc002e009000000041004e0990007bfb07007e
:1053cc008e0890002e009000808050006e0190009e
:1053dc001e007800000041004e09900073fb07008e
:1053ec008e0890002e009000808040006e0190008e
:1053fc001e007800000041004e0990006bfb070076
:10540c008e0890001e007800808040006e01900095
:10541c002e009000000051004e09900063fb070025
:10542c0012002000030020001e0f41005e9749006f
:10543c004e009000de009000e00f5000e08f58000e
:10544c000e003d001e01be004218dd00ce10de0035
:10545c00810070004210dd0066004000e0804800d2
:10546c004e019000de019000020040008380480055
:10547c004007980051079800160037002e00900046
:10548c00be0090003e011000ae8118004218dd00f5
:10549c00ce10de00810070004210dd006a0040007a
:1054ac00e08048004e019000de01900002004000b8
:1054bc008380480040079800510798002e00900008
:1054cc00be00900061005000e0805800200798005a
:1054dc00310798008e0890002e00900080804000cc
:1054ec006e0190001e007800000041004e099000f3
:1054fc002efb07002e009000be0090001e01be0087
:10550c00800f5100818f59007dff34000080fa001c
:10551c00000006001000fa00889fbe00008fbe003d
:10552c002207980033079800440798005507980005
:10553c0066079800770798004e009000de009000f8
:10554c003e014000ae8148000200be00ceb997007b
:10555c00831f78002e039000be0390000002be0053
:10556c002e019000be0190001e00be0006fe07003a
:10557c008f87e9002e019000be0190006e00900014
:10558c00fe00900002004000838048004eba970055
:10559c00841f78000003be001e02be002e01900086
:1055ac00be0190001e00be00f7fd07008f87e900ca
:1055bc002e019000be0190006e009000fe00900045
:1055cc0002024000838248004e009000de009000f2
:1055dc003e014000ae8148002e039000be039000b7
:1055ec006e009000fe00900006004000878048008e
:1055fc004ebb9700861f78000403be000202be005b
:10560c000001be001e00be00dffd07008f87e90011
:10561c004e009000de0090003e014000ae8148003c
:10562c002e029000be0290006e009000fe009000d2
:10563c0004004000858048004e029000de0290007d
:10564c003e044200ae844a004eba9700841f780094
:10565c002e039000be0390000202be000001be00ab
:10566c000800be00c8fd07008f87e9004f04be008c
:10567c000080fa00000006001400fa0020079800d1
