:020000040000FA
:0600000000F095EF01F095
:10000800FFFF5582E9CF19F0EACF1AF0D9CF1BF0DC
:10001800DACF1CF0F3CF1DF0F4CF1EF0CA949E92F5
:1000280000F000F000F000F000F000F000F000F048
:1000380000F000F000F000F000F000F000F000F038
:1000480000F000F000F000F000F000F000F000F028
:1000580000F000F000F000F000F000F000F000F018
:1000680000F000F000F000F000F000F000F000F008
:1000780000F000F000F000F000F000F000F000F0F8
:1000880000F000F000F000F000F000F000F000F0E8
:1000980000F000F000F000F000F000F000F000F0D8
:1000A80000F000F000F000F000F000F000F000F0C8
:1000B80000F000F000F000F000F000F000F000F0B8
:1000C80000F000F000F000F000F000F000F000F0A8
:1000D80000F000F000F000F000F000F000F000F098
:1000E80000F000F000F000F000F000F000F000F088
:1000F80000F000F000F000F000F000F000F000F078
:1001080000F000F000F000F000F000F000F000F067
:1001180000F000F000F000F000F000F000F000F057
:1001280000F000F000F000F000F000F000F000F047
:1001380000F000F000F000F000F000F000F000F037
:1001480000F000F000F000F000F000F000F000F027
:1001580000F000F000F000F000F000F000F000F017
:1001680000F000F000F000F000F000F000F000F007
:1001780000F000F000F000F000F000F000F000F0F7
:1001880000F000F000F000F000F000F000F000F0E7
:1001980000F000F000F000F000F000F000F000F0D7
:1001A80000F000F000F000F000F000F000F000F0C7
:1001B80000F000F000F000F000F000F000F000F0B7
:1001C80000F000F000F000F000F000F000F000F0A7
:1001D80000F000F000F000F000F000F000F000F097
:1001E80000F000F000F000F000F000F000F000F087
:1001F80000F000F000F000F000F000F000F000F077
:1002080000F000F000F000F000F000F000F000F066
:1002180000F000F000F000F000F000F000F000F056
:1002280000F000F000F000F0CA84010E3726000E3E
:10023800382239223A22260E3718381039103A1047
:10024800D8A429EF01F02CEF01F0FFFF56EF01F0E1
:10025800FFFF452A000E376E000E386E000E396E0D
:10026800000E3A6E430E0A6E000E0B6E5CEC0AF03E
:100278004250D8B442EF01F045EF01F0FFFF56EFCE
:1002880001F0FFFF000E426E680E0E6E20EE43F086
:1002980000EE0FF0060EDBCFEBFFE806FCE2000EE7
:1002A800FDEC03F0FFFF010E3B26000E3C223D2231
:1002B8003E22110E3B183C103D103E10D8A467EFAB
:1002C80001F06AEF01F0FFFF85EF01F0FFFF8BA05F
:1002D80070EF01F075EF01F0FFFF186A182A77EF49
:1002E80001F0FFFF186AFFFF8B501818FE0B181853
:1002F8008B6E000E3B6E000E3C6E000E3D6E000EC7
:100308003E6EFFFF1EC0F4FF1DC0F3FF1CC0DAFFE6
:100318001BC0D9FF1AC0EAFF19C0E9FF55921100A6
:10032800FFFFF8EF0BF0FFFF20EE4AF010EE80F031
:100338000A0EDBCFE3FFE806FCE2160E436E110E51
:10034800446E000E456E060E466E130E476E040E82
:10035800486E140E496E010E926E180E936E700E52
:10036800946E0E0EC16EA00E2C6E860E2D6E010EB2
:100378002E6E000E2F6E000E316E010E306E000EC6
:1003880040EC09F0200E236E8AC024F0000E02EC27
:1003980009F0210E236E8AC024F0000E02EC09F049
:1003A800220E236E8AC024F0000E02EC09F0230E00
:1003B800236E8AC024F0000E02EC09F0000E206EB5
:1003C8001F68100E13EC0CF0000E206E000E1F6E4E
:1003D800000E226E2168000EBCEC0BF0680E236E36
:1003E800000EB2EC08F0680E2C6E430E2D6E000E57
:1003F8002E6E000EEAEC04F0FFFF080E436407EFD0
:1004080002F00AEF02F0FFFF1EEF02F0FFFF0A0EF4
:10041800436011EF02F014EF02F0FFFF1EEF02F04D
:10042800FFFF000E206E460E1F6E000E72EC07F0E6
:1004380016EF03F0FFFF090E436425EF02F028EFE3
:1004480002F0FFFF3CEF02F0FFFF0B0E43602FEFBF
:1004580002F032EF02F0FFFF3CEF02F0FFFF000E68
:10046800206E550E1F6E000E72EC07F016EF03F0AB
:10047800FFFF0A0E436443EF02F046EF02F0FFFF6E
:100488005AEF02F0FFFF110E43604DEF02F050EFFC
:1004980002F0FFFF5AEF02F0FFFF000E206EB40ECD
:1004A8001F6E000E72EC07F016EF03F0FFFF100E40
:1004B800436461EF02F064EF02F0FFFF78EF02F0AF
:1004C800FFFF120E43606BEF02F06EEF02F0FFFFCA
:1004D80078EF02F0FFFF000E206E8C0E1F6E000EEC
:1004E80072EC07F016EF03F0FFFF110E43647FEF85
:1004F80002F082EF02F0FFFF96EF02F0FFFF130E0B
:10050800436089EF02F08CEF02F0FFFF96EF02F0F4
:10051800FFFF000E206E730E1F6E000E72EC07F0C8
:1005280016EF03F0FFFF120E43649DEF02F0A0EFF9
:1005380002F0FFFFB4EF02F0FFFF140E4360A7EFD5
:1005480002F0AAEF02F0FFFFB4EF02F0FFFF000E87
:10055800206E5A0E1F6E000E72EC07F016EF03F0B5
:10056800FFFF130E4364BBEF02F0BEEF02F0FFFF84
:10057800D2EF02F0FFFF150E4360C5EF02F0C8EF9F
:1005880002F0FFFFD2EF02F0FFFF000E206E230EF5
:100598001F6E000E72EC07F016EF03F0FFFF140E4B
:1005A8004364D9EF02F0DCEF02F0FFFFF0EF02F056
:1005B800FFFF160E4360E3EF02F0E6EF02F0FFFFE5
:1005C800F0EF02F0FFFF000E206E140E1F6E000EFB
:1005D80072EC07F016EF03F0FFFF150E4364F7EF18
:1005E80002F0FAEF02F0FFFF0EEF03F0FFFF170E25
:1005F800436001EF03F004EF03F0FFFF0EEF03F099
:10060800FFFF000E206E0C0E1F6E000E72EC07F03E
:1006180016EF03F0FFFF000E206E050E1F6E000E92
:1006280072EC07F0FFFF82BA1CEF03F01FEF03F034
:10063800FFFF37EF03F0FFFF000E206E640E1F6E02
:100648007BEC09F082BA2BEF03F02EEF03F0FFFFEB
:1006580037EF03F0FFFF430E256E000E266E04EC05
:100668000AF0010E426EFFFF82BC3DEF03F040EF3F
:1006780003F0FFFF58EF03F0FFFF000E206E640E3B
:100688001F6E7BEC09F082BC4CEF03F04FEF03F0D8
:10069800FFFF58EF03F0FFFF430E236E000E246E9A
:1006A80030EC0AF0010E426EFFFF81B85EEF03F0F6
:1006B80061EF03F0FFFF79EF03F0FFFF000E206EFC
:1006C800640E1F6E7BEC09F081B86DEF03F070EFDC
:1006D80003F0FFFF79EF03F0FFFF430E226E000ED9
:1006E800236EDBEC0AF0010E426EFFFF81B67FEF4E
:1006F80003F082EF03F0FFFF9AEF03F0FFFF000E15
:10070800206E640E1F6E7BEC09F081B68EEF03F04D
:1007180091EF03F0FFFF9AEF03F0FFFF430E216E06
:10072800000E226E27EC0BF0010E426EFFFF44C054
:100738001FF0206A8B0E216E000E226ED4EC05F09D
:10074800200E236E800E00018B25D96EDA6A000E0A
:10075800DA22DF50246E000E02EC09F0210E236E1F
:10076800800E00018C25D96EDA6A000EDA22DF507D
:10077800246E000E02EC09F043C01FF0206A8B0EB5
:10078800216E000E226ED4EC05F0220E236E800E30
:1007980000018B25D96EDA6A000EDA22DF50246E4A
:1007A800000E02EC09F000018C51D8A4DEEF03F032
:1007B800E1EF03F0FFFFEBEF03F0FFFF230E236EE3
:1007C800FF0E246E000E02EC09F000EF02F0FFFFAE
:1007D800230E236E800E8C25D96EDA6A000EDA227B
:1007E800DF50246E000E02EC09F000EF02F095EFE6
:1007F80001F0FFFF166E16508EEC0CF00009D8B40D
:1008080008EF04F00BEF04F0FFFF0EEF04F0FFFF1A
:10081800E7EF04F0FFFF0E500E24FE0B026E165099
:10082800A9EC0CF00009D8B41CEF04F01FEF04F099
:10083800FFFF22EF04F0FFFFE7EF04F0FFFF000ED9
:10084800026E1650A9EC0CF00009D8B42EEF04F093
:1008580031EF04F0FFFF34EF04F0FFFFE7EF04F09F
:10086800FFFF170E096E000E0A6E115099EC0BF07F
:1008780017C002F01650A9EC0CF00009D8B447EFE5
:1008880004F04AEF04F0FFFF4DEF04F0FFFFE7EF3D
:1008980004F0FFFF170E096E000E0A6E105099EC57
:1008A8000BF017C002F01650A9EC0CF00009D8B4F0
:1008B80060EF04F063EF04F0FFFF66EF04F0FFFF62
:1008C800E7EF04F0FFFF170E096E000E0A6E0F50D7
:1008D80099EC0BF017C002F01650A9EC0CF00009C7
:1008E800D8B479EF04F07CEF04F0FFFF7FEF04F059
:1008F800FFFFE7EF04F0FFFF170E096E000E0A6E08
:10090800125099EC0BF017C002F01650A9EC0CF03D
:100918000009D8B492EF04F095EF04F0FFFF98EFC8
:1009280004F0FFFFE7EF04F0FFFF170E096E000E5B
:100938000A6E135099EC0BF017C002F01650A9EC90
:100948000CF00009D8B4ABEF04F0AEEF04F0FFFFF1
:10095800B1EF04F0FFFFE7EF04F0FFFF170E096E99
:10096800000E0A6E145099EC0BF017C002F01650E6
:10097800A9EC0CF00009D8B4C4EF04F0C7EF04F0F8
:10098800FFFFCAEF04F0FFFFE7EF04F0FFFF170EC9
:10099800096E000E0A6E155099EC0BF017C002F0A4
:1009A8001650A9EC0CF00009D8B4DDEF04F0E0EF24
:1009B80004F0FFFFE3EF04F0FFFFE7EF04F0FFFFB1
:1009C80016507FEC0CF0FFFF1200FFFFFFFF2F6EA9
:1009D8002CC026F0000E276E300E286E000E296EF1
:1009E8002F5073EC06F00009D8B4FDEF04F000EFC7
:1009F80005F0FFFF03EF05F0FFFFD1EF05F0FFFF64
:100A0800020E2D241F6E000E2E20206E30503FEC5B
:100A18000CF02CC026F0010E276E300E286E000E4A
:100A2800296E2F5073EC06F00009D8B41EEF05F0BC
:100A380021EF05F0FFFF24EF05F0FFFFD1EF05F0F0
:100A4800FFFF010E2D241F6E000E2E20206E305049
:100A58003FEC0CF02CC026F0020E276E300E286EEC
:100A6800000E296E2F5073EC06F00009D8B43FEF42
:100A780005F042EF05F0FFFF45EF05F0FFFFD1EF6E
:100A880005F0FFFF2DC01FF02EC020F030503FECC6
:100A98000CF02CC026F0030E276E300E286E000EC8
:100AA800296E2F5073EC06F00009D8B45EEF05F0FC
:100AB80061EF05F0FFFF64EF05F0FFFFD1EF05F0F0
:100AC800FFFF030E2D241F6E000E2E20206E3050C7
:100AD8003FEC0CF02CC026F0040E276E300E286E6A
:100AE800000E296E2F5073EC06F00009D8B47FEF82
:100AF80005F082EF05F0FFFF85EF05F0FFFFD1EF6E
:100B080005F0FFFF040E2D241F6E000E2E20206E10
:100B180030503FEC0CF02CC026F0050E276E300E3E
:100B2800286E000E296E2F5073EC06F00009D8B419
:100B3800A0EF05F0A3EF05F0FFFFA6EF05F0FFFF1C
:100B4800D1EF05F0FFFF050E2D241F6E000E2E209D
:100B5800206E30503FEC0CF02CC026F0060E276EAD
:100B6800300E286E000E296E2F5073EC06F0000927
:100B7800D8B4C1EF05F0C4EF05F0FFFFC7EF05F0EB
:100B8800FFFFD1EF05F0FFFF060E2D241F6E000EAC
:100B98002E20206E30503FEC0CF0FFFF1200FFFFBC
:100BA800FFFF21C0D9FF22C0DAFF000EDF6E20EE62
:100BB80001F02150D9262250DA22000EDF6E20EEF5
:100BC80002F02150D9262250DA22000EDF6E20EEE4
:100BD80003F02150D9262250DA22000EDF6E20EED3
:100BE80004F02150D9262250DA22000EDF6E09EFD8
:100BF80006F0FFFF20EE04F02150D9262250DA2219
:100C0800DF2A100E1F5E270E205AFFFF100E1F5CF2
:100C1800270E2058D8B013EF06F016EF06F0FFFFA6
:100C2800FDEF05F0FFFF25EF06F0FFFF20EE03F0D4
:100C38002150D9262250DA22DF2AE80E1F5E030E41
:100C4800205AFFFFE80E1F5C030E2058D8B02FEF84
:100C580006F032EF06F0FFFF19EF06F0FFFF41EF55
:100C680006F0FFFF20EE02F02150D9262250DA22AA
:100C7800DF2A640E1F5E000E205AFFFF205007E196
:100C8800640E1F5CD8B04BEF06F04EEF06F0FFFF86
:100C980035EF06F0FFFF5DEF06F0FFFF20EE01F0F5
:100CA8002150D9262250DA22DF2A0A0E1F5E000EB2
:100CB800205AFFFF205007E10A0E1F5CD8B067EFEB
:100CC80006F06AEF06F0FFFF51EF06F0FFFF21C0C4
:100CD800D9FF22C0DAFF1FC0DFFF1200FFFFFFFFAE
:100CE8002B6E2B5061EC0CF00009D8B47EEF06F0A7
:100CF80081EF06F0FFFF86EF06F0FFFFFFFF010E12
:100D0800F7EF06F0FFFF26502624FE0B206E2B502F
:100D18009DEC0CF00009D8B494EF06F097EF06F0BC
:100D2800FFFF9AEF06F0FFFF82EF06F0FFFF27C0F4
:100D380020F02B509DEC0CF00009D8B4A6EF06F07B
:100D4800A9EF06F0FFFFACEF06F0FFFF82EF06F019
:100D5800FFFF2B5070EC0CF00009D8B4B6EF06F08A
:100D6800B9EF06F0FFFFBCEF06F0FFFF82EF06F0D9
:100D7800FFFFD8802634206E2B509DEC0CF0000924
:100D8800D8B4C9EF06F0CCEF06F0FFFFCFEF06F0BE
:100D9800FFFF82EF06F0FFFF010E216E28C022F050
:100DA80029C023F02B50DCEC0BF00009D8B4DFEF9E
:100DB80006F0E2EF06F0FFFFE5EF06F0FFFF82EF37
:100DC80006F0FFFF2B5052EC0CF00009D8B4EFEFFF
:100DD80006F0F2EF06F0FFFFF5EF06F0FFFF82EFF7
:100DE80006F0FFFF000EFFFF1200FFFFFFFF000EDF
:100DF800066E04BE05EF07F002EF07F0FFFF0CEFE9
:100E080007F0FFFF036C041ED8B0042A010E066E1B
:100E1800FFFF02BE15EF07F012EF07F0FFFF1CEF10
:100E280007F0FFFF016C021ED8B0022A010E061A55
:100E3800FFFF000E086E000E076E03500410D8B4B2
:100E480028EF07F02BEF07F0FFFF5CEF07F0FFFF3D
:100E5800010E056E35EF07F0FFFFD8900336043614
:100E6800052AFFFF04AE3BEF07F03EEF07F0FFFF58
:100E780030EF07F0FFFFFFFFD89007360836035022
:100E8800015C04500258D8A04CEF07F04FEF07F070
:100E9800FFFF55EF07F0FFFF0350015E0450025AB1
:100EA8000780FFFFD89004320332052E3FEF07F08A
:100EB800FFFF0650D8B463EF07F066EF07F0FFFFB7
:100EC8006BEF07F0FFFF076C081ED8B0082AFFFF7A
:100ED80007C001F008C002F01200FFFFFFFF236EF9
:100EE800040E205CD8A07BEF07F07EEF07F0FFFF31
:100EF80082EF07F0FFFF030E206E1F68FFFF2350ED
:100F0800D8A489EF07F08CEF07F0FFFFB3EF07F0E5
:100F1800FFFF1FC021F020C022F0D89022322132DA
:100F2800D890223221322150BE6ED8902030226EC5
:100F38001F30216E010E2116213A2146BD5021187D
:100F4800DF0B2118BD6E1FC021F0010E2116213ABA
:100F5800BD502118EF0B2118BD6EE2EF07F0FFFF1F
:100F68002304D8A4BAEF07F0BDEF07F0FFFFE2EFC4
:100F780007F0FFFF1FC021F020C022F0D8902232D6
:100F88002132D890223221322150BB6ED8902030A5
:100F9800226E1F30216E010E2116213A2146BA50C9
:100FA8002118DF0B2118BA6E1FC021F0010E21167F
:100FB800213ABA502118EF0B2118BA6EFFFF120020
:100FC800FFFFFFFF000E066E02BEF0EF07F0EDEF29
:100FD80007F0FFFFF7EF07F0FFFF016C021ED8B024
:100FE800022A010E066EFFFF04BE00EF08F0FDEFB7
:100FF80007F0FFFF05EF08F0FFFF036C041ED8B0F1
:10100800042AFFFF03500410D8B40DEF08F010EFC6
:1010180008F0FFFF3DEF08F0FFFF010E056E1AEF25
:1010280008F0FFFFD89003360436052AFFFF04AE08
:1010380020EF08F023EF08F0FFFF15EF08F0FFFF9F
:10104800FFFF0350015C04500258D8A02EEF08F0AF
:1010580031EF08F0FFFF36EF08F0FFFF0350015EA5
:101068000450025AFFFFD89004320332052E24EFB1
:1010780008F0FFFF0650D8B444EF08F047EF08F037
:10108800FFFF4CEF08F0FFFF016C021ED8B0022AE8
:10109800FFFF01C001F002C002F01200FFFFFFFFD6
:1010A800000E276E000E286E000E296E000E2A6EA6
:1010B8002350241025102610D8B465EF08F068EFE7
:1010C80008F0FFFFA7EF08F0FFFF010E2B6E74EF8B
:1010D80008F0FFFFD89023362436253626362B2AEB
:1010E800FFFF26AE7AEF08F07DEF08F0FFFF6DEF07
:1010F80008F0FFFFFFFFD8902736283629362A3612
:1011080023501F5C2450205825502158265022581F
:10111800D8A091EF08F094EF08F0FFFF9EEF08F0D9
:10112800FFFF23501F5E2450205A2550215A265075
:10113800225A2780FFFFD8902632253224322332C4
:101148002B2E7EEF08F0FFFF27C01FF028C020F0ED
:1011580029C021F02AC022F01200FFFFFFFF246EF1
:10116800245061EC0CF00009D8B4BDEF08F0C0EFD2
:1011780008F0FFFFC3EF08F0FFFFFFEF08F0FFFFE5
:1011880023502324FE0B206E24509DEC0CF0000904
:10119800D8B4D1EF08F0D4EF08F0FFFFD7EF08F08C
:1011A800FFFFFFEF08F0FFFF0E0E206E24509DECAE
:1011B8000CF00009D8B4E3EF08F0E6EF08F0FFFF01
:1011C800E9EF08F0FFFFFFEF08F0FFFF100E206EB9
:1011D80024509DEC0CF00009D8B4F5EF08F0F8EFB6
:1011E80008F0FFFFFBEF08F0FFFFFFEF08F0FFFF3D
:1011F800245052EC0CF0FFFF1200FFFFFFFF256E9A
:10120800255061EC0CF00009D8B40DEF09F010EF8F
:1012180009F0FFFF13EF09F0FFFF3DEF09F0FFFFB3
:1012280023502324FE0B206E25509DEC0CF0000962
:10123800D8B421EF09F024EF09F0FFFF27EF09F0F8
:10124800FFFF3DEF09F0FFFF24C020F025509DEC83
:101258000CF00009D8B433EF09F036EF09F0FFFFBE
:1012680039EF09F0FFFF3DEF09F0FFFF255052EC81
:101278000CF0FFFF1200FFFFFFFF366E3650D8A4B8
:1012880048EF09F04BEF09F0FFFF72EF09F0FFFF9D
:10129800000E1F6E240E206EF40E216E000E226EBC
:1012A8002CC023F02DC024F02EC025F02FC026F02E
:1012B80053EC08F0FF0E1F24326EFF0E2020336E11
:1012C800FF0E2120346EFF0E2220356EC650F00B23
:1012D8000809C66EC68A32C0C8FFC78EFFFF000E57
:1012E800206E0A0E1F6E7BEC09F01200FFFFFFFF55
:1012F8001FC021F020C022F0FFFF21502210D8A4E7
:1013080088EF09F08BEF09F0FFFF8EEF09F0FFFF80
:10131800A7EF09F0FFFF000E246EC70E236EFFFF34
:101328002306D8A0240623502410D8A49EEF09F041
:10133800A1EF09F0FFFF93EF09F0FFFF2106D8A006
:10134800220680EF09F0FFFF1200FFFFFFFFFFFFFB
:10135800C7B4B1EF09F0B4EF09F0FFFFABEF09F044
:10136800FFFF000E1F6EFFFFC5BCBDEF09F0C0EF09
:1013780009F0FFFFC5EF09F0FFFFFFFF000ED4EFF4
:1013880009F0FFFF1F2A630E1F64CDEF09F0D0EFAD
:1013980009F0FFFFB7EF09F0FFFF9E96C1EF09F0D4
:1013A800FFFF1200FFFFFFFFFFFFC7B4DEEF09F0EA
:1013B800E1EF09F0FFFFD8EF09F0FFFF000E016E23
:1013C800FFFFC5BCEAEF09F0EDEF09F0FFFFF2EF10
:1013D80009F0FFFFFFFF000E01EF0AF0FFFF012AEF
:1013E800630E0164FAEF09F0FDEF09F0FFFFE4EF87
:1013F80009F0FFFF9E96EEEF09F0FFFF1200FFFFD6
:10140800FFFF20EE01F02550D9262650DA223A0EA9
:10141800DF6411EF0AF014EF0AF0FFFF25EF0AF07E
:10142800FFFF20EE01F02550D9262650DA22000EC3
:10143800DF6E25C022F026C023F0DBEC0AF02DEF8A
:101448000AF0FFFF20EE01F02550D9262650DA22B7
:10145800DF2AFFFF1200FFFFFFFF20EE01F02350FD
:10146800D9262450DA22DF50D8A43DEF0AF040EF05
:101478000AF0FFFF51EF0AF0FFFF20EE01F02350C2
:10148800D9262450DA223B0EDF6E23C021F024C077
:1014980022F027EC0BF059EF0AF0FFFF20EE01F0E5
:1014A8002350D9262450DA22DF06FFFF1200FFFF5F
:1014B800FFFF20EE02F00A50D9260B50DA223A0E2E
:1014C800DF6469EF0AF06CEF0AF0FFFF7DEF0AF0C6
:1014D800FFFF20EE02F00A50D9260B50DA22000E48
:1014E800DF6E0AC007F00BC008F088EC0AF085EF41
:1014F8000AF0FFFF20EE02F00A50D9260B50DA223C
:10150800DF2AFFFF1200FFFFFFFF20EE01F0075068
:10151800D9260850DA223A0EDF6495EF0AF098EFE0
:101528000AF0FFFFA9EF0AF0FFFF20EE01F00750D5
:10153800D9260850DA22000EDF6E07C004F008C072
:1015480005F073EC0BF0B1EF0AF0FFFF20EE01F0AD
:101558000750D9260850DA22DF2AFFFF1200FFFFC2
:10156800FFFF20EE04F00150D9260250DA22160EB1
:10157800DF64C1EF0AF0C4EF0AF0FFFFCFEF0AF013
:10158800FFFF20EE04F00150D9260250DA22000EA7
:10159800DF6ED7EF0AF0FFFF20EE04F00150D926E6
:1015A8000250DA22DF2AFFFF1200FFFFFFFFFFFFD2
:1015B80022C0D9FF23C0DAFF160EDF64E6EF0AF077
:1015C800E9EF0AF0FFFFF8EF0AF0FFFF22C0D9FFAA
:1015D80023C0DAFF000EDF6E22C01FF023C020F008
:1015E80001EC0BF0FEEF0AF0FFFF22C0D9FF23C089
:1015F800DAFFDF2AFFFF1200FFFFFFFF20EE04F0F3
:101608001F50D9262050DA22160EDF640EEF0BF099
:1016180011EF0BF0FFFF1CEF0BF0FFFF20EE04F0C3
:101628001F50D9262050DA22000EDF6E24EF0BF06F
:10163800FFFF20EE04F01F50D9262050DA22DF2ABF
:10164800FFFF1200FFFFFFFF21C0D9FF22C0DAFF12
:10165800DF50D8A432EF0BF035EF0BF0FFFF44EF6B
:101668000BF0FFFF21C0D9FF22C0DAFF170EDF6E93
:1016780021C01FF022C020F04DEC0BF04AEF0BF018
:10168800FFFF21C0D9FF22C0DAFFDF06FFFF1200EB
:10169800FFFFFFFF20EE04F01F50D9262050DA226A
:1016A800DF50D8A45AEF0BF05DEF0BF0FFFF68EFA7
:1016B8000BF0FFFF20EE04F01F50D9262050DA224D
:1016C800170EDF6E70EF0BF0FFFF20EE04F01F50D7
:1016D800D9262050DA22DF06FFFF1200FFFFFFFFA6
:1016E80004C0D9FF05C0DAFF160EDF647EEF0BF0E9
:1016F80081EF0BF0FFFF90EF0BF0FFFF04C0D9FF65
:1017080005C0DAFF000EDF6E04C001F005C002F06C
:10171800B4EC0AF096EF0BF0FFFF04C0D9FF05C048
:10172800DAFFDF2AFFFF1200FFFFFFFF0D6E0DC07B
:1017380001F0026A000E046E0A0E036EE5EC07F073
:1017480001C00BF002C00CF00DC001F0026A000EDF
:10175800046E0A0E036EFAEC06F00150100DF350F9
:101768000B2409C0D9FF0AC0DAFFDF6E1200FFFFA1
:10177800FFFF236E2350D8A4C4EF0BF0C7EF0BF084
:10178800FFFFCCEF0BF0FFFF0F0EBD12D9EF0BF0F0
:10179800FFFF2304D8A4D3EF0BF0D6EF0BF0FFFF25
:1017A800D9EF0BF0FFFF0F0EBA12FFFF1200FFFF79
:1017B800FFFF256EC586FFFF9EA6E5EF0BF0E8EF5D
:1017C8000BF0FFFFDFEF0BF0FFFF9E9621C01FF02D
:1017D80025502CEC0CF022C0D9FF23C0DAFFC9CF6A
:1017E800DFFF010E1200FFFF6A0EF66E190EF76E8C
:1017F800000EF86E00EE4AF010EE0BF00900F5CF7F
:10180800EEFFE550E150FAE100EE37F0130EEE6A14
:10181800E806FDE155905592000197EF01F0FFFFB2
:10182800226E9D82F28EF28C1FC0CBFF030ECA126D
:1018380022C021F0FF0E2126214621462146CA500A
:101848002118870B2118CA6ECA84D08E1200FFFF98
:10185800FFFF1FB002D0C59A01D0C58AC588FFFF17
:10186800C5B839EF0CF03CEF0CF0FFFF33EF0CF08C
:10187800FFFF1200FFFFFFFF226E22C021F00F0EB4
:10188800211622380F0B0F0B0A0DF35021241FC00D
:10189800D9FF20C0DAFFDF6E1200FFFFFFFFC5840B
:1018A800FFFFC5B45AEF0CF05DEF0CF0FFFF54EFEB
:1018B8000CF0FFFF000E1200FFFFFFFFC580FFFFC7
:1018C800C5B069EF0CF06CEF0CF0FFFF63EF0CF0A4
:1018D800FFFF000E1200FFFFFFFFC582FFFFC5B22A
:1018E80078EF0CF07BEF0CF0FFFF72EF0CF0FFFFCE
:1018F800000E1200FFFFFFFFC584FFFFC5B487EF8E
:101908000CF08AEF0CF0FFFF81EF0CF0FFFF000EE8
:101918001200FFFFFFFFC580FFFFC5B096EF0CF078
:1019280099EF0CF0FFFF90EF0CF0FFFF000E120094
:10193800FFFFFFFF216E20C0C9FF9E962150AAEC31
:1019480009F0226E22501200FFFFFFFF036E02C053
:10195800C9FF9E960350D7EC09F0046E045012009C
:0D196800FFFF407924301912027800103F73
:02197600FFFF71
:020000040020DA
:08000000FFFFFFFFFFFFFFFF00
:020000040030CA
:0E000000FF220D0EFF0181FF0FC00FE00F4029
:00000001FF
